:1000000020550020353E0000B5210200093E0000C9
:10001000093E0000093E0000093E0000000000000B
:100020000000000000000000000000008538000013
:10003000093E000000000000313800007B6902002A
:1000400035390000BB5B020035390000353900004E
:1000500035390000353900003539000035390000E8
:1000600035390000353900003539000035390000D8
:1000700035390000353900003539000035390000C8
:1000800035390000353900003539000035390000B8
:1000900035390000353900003539000035390000A8
:1000A0003539000035390000353900003539000098
:1000B0003539000035390000353900003539000088
:1000C0003539000035390000353900003539000078
:1000D0003539000035390000353900003539000068
:1000E0003539000035390000353900003539000058
:1000F0003539000035390000353900003539000048
:1001000053B94AB9002908BF00281CBF4FF0FF317E
:100110004FF0FF3000F088B9ADF1080C6DE904CE66
:1001200000F01AF8DDF804E0DDE9022304B07047BE
:10013000430803F05533C01A830803F0333300F04B
:100140003330184400EB101000F00F3000EB0020AB
:1001500000EB0040000E70472DE9F047089E0D4669
:1001600004468846002B4DD18A42944668D9B2FA9B
:1001700082F252B101FA02F3C2F1200120FA01F138
:100180000CFA02FC41EA030894404FEA1C45210C9A
:10019000B8FBF5FE1FFA8CF705FB1E8341EA03430B
:1001A0000EFB07F199420BD91CEB03030EF1FF3054
:1001B00080F01E81994240F21B81AEF1020E634431
:1001C0005B1AA4B2B3FBF5F005FB103344EA034419
:1001D00000FB07F7A7420AD91CEB040400F1FF3328
:1001E00080F00881A74240F2058164440238E41B94
:1001F00040EA0E4000211EB1D4400023C6E900436E
:10020000BDE8F0878B4208D9002E00F0EE80002177
:10021000C6E900050846BDE8F087B3FA83F1002976
:100220004AD1AB4202D3824200F2F980841A65EBD4
:10023000030301209846002EE2D0C6E90048DFE71C
:1002400002B9FFDEB2FA82F2002A40F09180A1EBFF
:100250000C054FEA1C471FFA8CFE0121B5FBF7F392
:1002600007FB1350250C45EA00450EFB03F0A8429E
:1002700008D91CEB050503F1FF3802D2A84200F2B1
:10028000CB8043462D1AA4B2B5FBF7F007FB1055FF
:1002900044EA05440EFB00FEA64508D91CEB040405
:1002A00000F1FF3502D2A64500F2BB802846A4EB40
:1002B0000E0440EA03409EE7C1F120078B4022FA7A
:1002C00007FC4CEA030C20FA07F405FA01F31C437F
:1002D000FD404FEA1C4900FA01F3B5FBF9F8200C88
:1002E0001FFA8CFE09FB185540EA054508FB0EF085
:1002F000A84202FA01F20BD91CEB050508F1FF3AFE
:1003000080F08880A84240F28580A8F10208654408
:100310002D1AA4B2B5FBF9F009FB105544EA0545C6
:1003200000FB0EFEAE4508D91CEB050500F1FF34BD
:100330006CD2AE456AD90238654440EA0840A0FB59
:100340000294A5EB0E05A542C846A64656D353D047
:100350005EB1B3EB080265EB0E0505FA07F722FA6A
:1003600001F3CD401F43C6E900750021BDE8F087C9
:10037000C2F1200320FA03F10CFA02FC25FA03F380
:1003800095400D434FEA1C471FFA8CFEB3FBF7F173
:1003900007FB11302B0C43EA004301FB0EF098429F
:1003A00004FA02F408D91CEB030301F1FF382FD241
:1003B00098422DD9023963441B1AADB2B3FBF7F052
:1003C00007FB103345EA034500FB0EF3AB4208D9A7
:1003D0001CEB050500F1FF3816D2AB4214D90238E8
:1003E0006544ED1A40EA014138E73146304607E7F7
:1003F0008646E5E61846FAE64B45A9D2B9EB02086F
:1004000064EB0C0E0138A3E74046EAE7204694E788
:100410004146D1E7D0467BE7023B654432E70846D8
:1004200009E76444023842E7704700BF000000005B
:100430002DE9F8430346D0E90A801E6B184D841954
:100440003034A0451746894613A3D3E9002315D8B5
:10045000A0FB0501FFF754FE20F07F40C9F8000023
:10046000A4EB08000CA3D3E90023A0FB0501FFF7D0
:1004700047FE20F07F403860BDE8F883A8FB050107
:10048000FFF73EFE20F07F40C9F8000006F1300083
:10049000E8E700BFAFF300808D49FD1A07000000B8
:1004A00000CA9A3B000000002DE9F04F8FB020B940
:1004B0000FB0BDE8F04F18F071BBBF4D95F86A70F2
:1004C00017F0010740F06F8195F8293005EB8303A1
:1004D000D3F82C9095F8353005EB8303D3F838B07A
:1004E000B9F1000F13D04C4614F8020BC0F3801082
:1004F00016F0B6F806220146204621F0ABFE99F828
:1005000000305A060DD4AC48594625F0E0F899F869
:10051000003013F00E0F40F0A2802B6A4BB10C2775
:1005200099E00621204624F015FD0028EBD1122782
:1005300091E017F015FD804630B117F01DFD8246A1
:1005400020B9404617F012FD072784E018F0DCFDC3
:10055000044618B9504617F015FDF2E74FF6FF7242
:100560000285826E00F11C0312B900F160028266FE
:1005700004F15C0204F15801A06E0B9324F0F5FC29
:1005800094F86E2022F0070284F86E2094F8392047
:1005900002F03F0262F07F0284F8392094F83C2098
:1005A00022F0070284F83C200622A4F8702094F878
:1005B0007C20002622F0070284F87C20C4E9126621
:1005C000A666A4F86C60E685266384F83B60266521
:1005D000A4F87460A4F87860A4F8886084F88A604D
:1005E000C4F89860A4F89C60A4F8B06024F0F3FF0D
:1005F00094F8CA200B9B2B6222F0030284F8CA20D5
:1006000094F8F620A4F8C860C4E92E0166F34512F8
:1006100000200021C5E9188AC4E93001C4E94A660E
:10062000C4E94866C4E90566A4F8D06084F8D360DC
:10063000C4F8D480A4F8F46084F8F620C4F8846088
:10064000C4F81C612670E4611AF08AFB38B15A487C
:1006500018F04CF8032738460FB0BDE8F08F95F836
:1006600024300121C3F342030DF133008DF8333000
:1006700024F0A7FC0246002800F08D809BF80110B2
:10068000484624F0DAFF4D49ED6100243123C5E9E5
:100690000234A0FB010146A3D3E90023C5E90544C8
:1006A0002C706C60FFF72CFDB5F86880286124F091
:1006B00032FF0646B8F1000F06D199F8004004F069
:1006C0000F04631E5C425C4195F824902B69DFF8AF
:1006D000F0B03C4A64F3000985F824904FF0020A18
:1006E00019F001090DACCDF834A031D00020CDE9CE
:1006F0000525CDE9000304930321CDE907B4CDE935
:1007000002003346524624F0D3FE214617F04EFD38
:10071000002840D12C4A06954AF2D833CDE904028C
:100720000093CDE907B4CDE90200019033460122E0
:100730000321CDF834A024F0BBFE214617F036FD8E
:1007400048BB95F86A3043F0010385F86A3082E7C8
:100750001E4903F2471008601D48CDE90432CDE977
:1007600008414FF0910CA8FB00014FF6FF73CDE953
:1007700002930CFB08110EA3D3E90023CDE9065B1D
:10078000FFF7BEFC3346CDE90090524603214846B0
:1007900015F072FED1E72B6A002B3FF4C0AE06487D
:1007A00017F0A4FFBBE6002755E700BFAFF30080BA
:1007B0008D49FD1A07000000842B002000CA9A3BD7
:1007C000F5790100B5880100ED850100F02B0020CE
:1007D000002AE7840000000070B590F824308AB049
:1007E000C3F342030D46044601210DF123001646D2
:1007F0008DF8233024F0E5FB71780246284624F07A
:100800001CFF1D491AA3D3E90023A0FB0101FFF738
:1008100077FC216905468D421FD2481B0021174AEB
:1008200002230993A21A6C23B2FBF3F2144B059333
:1008300009AE00230232CDE90110CDE903330321D3
:1008400006960093D2B2184624F04DFE314617F0BA
:10085000ADFC40B925610AB070BD02D9691A00200B
:10086000DDE70020F7E70C20F5E700BFAFF30080DD
:100870008D49FD1A0700000000CA9A3B842B002016
:10088000F5790100000000002DE9F047044690F8DA
:10089000300094F820303E4FC0F3400060F38613E0
:1008A0008CB084F8203004F1210124F03AFE268D2A
:1008B00094F82030E4610025A6FB07014FF0910C6D
:1008C00003F079030CFB0611C4E9055584F82030C8
:1008D00025702DA3D3E90023FFF712FC3123C4E9CF
:1008E0000235E36A65600933A0F13102934232BFF9
:1008F00023612561E562274D064624F00CFE0223A4
:100900000B93651B3423B5FBF3F5234BB4F828C0D8
:10091000CDE90643B846214B059307462369049366
:10092000ACFB080891214FF0000901FB0C810DF18F
:100930002C0A15A3D3E90023CDF820A0CDF80C9004
:10094000FFF7DEFB104619464FF47A720023FFF7DB
:10095000D7FB0435EDB2CDE901600321CDF800905D
:100960003B462A46484624F0A3FD514617F01EFC9C
:1009700040B994F8303043F0010384F830300CB0C3
:10098000BDE8F0870C20FAE78D49FD1A070000004A
:10099000002AE784142C0020F5790100FD8C010069
:1009A000F8B50446002016461F4618F023FA0546FF
:1009B00020B390F83030018567F3420380F830307F
:1009C0009DF818306401DB0003F0180304F02004E4
:1009D0001C4390F8203023F038031C4380F820405B
:1009E00009489124A6FB000105A3D3E9002304FBD9
:1009F0000611FFF785FBE8620020F8BD0C20FCE73C
:100A00008D49FD1A07000000002AE784000000005D
:100A10002DE9F04F914690F8883090F88920934264
:100A20008DB004460F460BD190F89D1090F89C2095
:100A30008A4225D00122023B80F88A2080F8893042
:100A400094F8883094F889209A1A02F00302022A56
:100A500040F06E8294F88A00012800F01482022887
:100A600000F03084CC4ACD49CD4840F252431FF0CB
:100A700027FB404080F311884FF0030002DF57E26C
:100A800090F8B13090F8B02093425BD09B1ADA070F
:100A9000D6D590F87C1011F0010826D017F024FB71
:100AA00005460028CCD094F8B03084F8B130238DBE
:100AB000C38003230371037F43F00303037700F133
:100AC000200609234377C37708220021304621F00E
:100AD000CCFBD4E93001324624F0F6FE2946086802
:100AE00017F056FA17F05EFAAAE7AE4824F0EDF9CF
:100AF00005460028A4D094F8B130013B84F8B13009
:100B0000037943F0030303710923437194F93930E6
:100B1000002BACBF08230E2300F10806C371082286
:100B20004146304621F0A1FBD4E92E01324624F0A3
:100B3000CBFE2946204624F0D8FEB4F87630A4F83F
:100B400078307DE790F8C93090F8C82093425FD0A4
:100B50009B1ADB077FF574AF90F8CA30DE0724D408
:100B6000904824F0B2F9014600283FF469AF94F8A8
:100B7000C930013B84F8C93094F8CA3043F001030E
:100B800084F8CA30037943F00303037106234371E9
:100B90000C23C37103726FF00E034372052383723B
:100BA0004FF0FF33C3720373C4E79D0722D517F0DC
:100BB0009BFA014600283FF443AF94F8C83084F80C
:100BC000C930238DC38003230371037F43F00303E4
:100BD0000377062343770C23C37794F8CB3080F850
:100BE0002030B4F8CC30A0F82130B4F8CE30A0F8E2
:100BF000233074E740F62D53674A684968481FF070
:100C00005FFA404080F311884FF0030002DF17E7DE
:100C100090F8F52090F8F4309A423FF411AF624D0D
:100C20002B6813B198427FF40BAF94F8F63003F0C1
:100C30000F03062B00F2248101A252F823F000BF1B
:100C40005D0C0000E10C0000370E0000410A0000BE
:100C5000410A0000410A0000410A00005148668E26
:100C6000B4F82E8024F031F9014600283FF4E8AEB4
:100C700003792C6043F003030371182343710F239E
:100C8000C371B4F8F8300381B4F8FA304381B4F892
:100C9000FC308381B4F8FE30C38100230374C37435
:100CA000037546444FF0FF3343758375C375037670
:100CB00043768376C3760377437783774E44B4F8DD
:100CC0007630A4F87830A0F8116094F8F630042259
:100CD00062F3030384F8F630204624F006FEAFE604
:100CE00094F8F730EBB12F4824F0EFF801460028D4
:100CF0003FF4A6AE037943F0030303711123C371DC
:100D0000032343710F23037294F8F7304372204694
:100D100024F0EBFD94F8F43084F8F53000232B60D8
:100D20008EE694F93920002A40DB94F8F620C4F8C6
:100D3000A830062060F3030294F8000184F8F6203E
:100D4000012284F8AC20B4F8FA2048B1B2FBF0F3E9
:100D500013FB00F3B4F8F8009BB2984298BF1A4610
:100D6000B4F8FC30A4F8A230B4F8FE30A4F8A430F3
:100D700094F8F630A4F8A020C3F3001394F89E2052
:100D8000DB0043F0020322F00F021343013984F821
:100D90009E3084F89D1053E6F2D6020002DE020077
:100DA00021940200F02C00205C2C0020674824F0E5
:100DB0008CF8014600283FF443AE037943F0030367
:100DC0000371182343711023C371B4F8F830038101
:100DD000B4F8FA304381B4F8FC308381B4F8FE30C3
:100DE000C38194F800310374B4F80231A0F81130D3
:100DF000B4F80431A0F81330B4F80631A0F8153077
:100E0000B4F80831A0F81730B4F80A31A0F8193056
:100E1000B4F80C31A0F81B30B4F80E31A0F81D3036
:100E2000204624F062FD94F8F630052262F30303B5
:100E300084F8F63004E617F057F9014600283FF42D
:100E4000FFAD94F8F620032363F3030284F8F62041
:100E5000228D0371037FC28043F0030303771823BD
:100E600043770F23C377B4F8F8300384B4F8FA302B
:100E70004384B4F8FC308384B4F8FE30C3842EE697
:100E800040F65E63B8E6E28DB4F83280904494F8A0
:100E90009E20C84412F007011FFA88F858D017F0B6
:100EA0000BF90646002843D0284824F00EF80546E2
:100EB00000283DD0204617F0A9FF17F015F9336838
:100EC000D4F898205A602B79C4F8986043F0030353
:100ED0002B7100220C236B71EA7194F8AC302B72E9
:100EE00040F2E241D4F8A830B3FBF1F3A5F80930A1
:100EF000B4F8A030A5F80B30B4F8A230A5F80D3046
:100F0000B4F8A430A5F80F3094F89E3062F30203D1
:100F100084F89E30A38D984408F106081FFA88F8DB
:100F2000A4F88C80A5F811802946204624F0DDFC29
:100F300094F8D03094F8D1209B1ADBB2012B00F04A
:100F4000118200200DB0BDE8F08F00BFF02C002012
:100F5000B4F88CA0A8EB0A0210041FFA82FBE7D4B5
:100F600084F8893094F89C3094F8F42084F89D300B
:100F700094F8F530934209D094F8F63003F00F035B
:100F8000062B04BF84F8F520A4F87810C04BD4F8E1
:100F900098501A68944204BF00221A600DB12B6861
:100FA00063B9BC4ABC49BD4840F6B4231FF088F879
:100FB000404080F311884FF0030002DF2868B4F846
:100FC000A0204368C4F89830638DB4F8A260B4F8E8
:100FD000A4109A4213D1A38DB34210D140F2E24340
:100FE00003FB02FC42F2107303FB01C3013BB3FBA2
:100FF000FCF3B4F872C09BB29C4500F02181238DB4
:10100000EB8018232B7100232B77EA832E846984CD
:10101000294616F0BDFF16F0C5FFA368002B09DABC
:10102000E068626823F0004390422CBF3F18BF186D
:10103000A360FF1A608DB4F8A060994D10FB0BF00F
:1010400080B2B0FBF6F293B20B9316FB02F39BB2A5
:10105000984240F2E24180F0F680181A48438AA391
:10106000D3E90023A0FB0501FFF74AF820F07F40F9
:1010700007440B9BE28DAAEB080A9A4494F9393095
:101080009144CA4440F2E248002BA4F82EA008FB89
:1010900006F980F2E580226CA36C02FB1B33A3648B
:1010A00024F0ECFD064694F87C00C0F3C20019F071
:1010B000A5FE94F8AC20064409FB06F608FB02F2F4
:1010C00006F574267748226506F23F260022B6FB15
:1010D000F0F60B98C4F88420A26C266470434FEAA3
:1010E0005903963B024463649A4294BFA264A3648A
:1010F000A0FB050164A3D3E90023FFF701F83F1A21
:10110000D4F8A800B0FBF8F008FB00F05EA3D3E928
:101110000023A0FB0501FEF7F3FFA9EB060620F074
:101120007F48B4F8A0306385B4F8A230A385B4F842
:10113000A43042F2107202FB0393013BB3FBF9F3BC
:10114000A4F87230584B4B44B3FBF9F3A4F8763053
:1011500094F89E30190744BF0023A4F8743002218C
:1011600001201BF06FFC002202218246012014F0B6
:1011700029FC204617F0D4FF00F105095FFA89F930
:101180004A4B00944A460121002015F00FFA30F036
:1011900002030CD03F4A4649404840F65F331EF0F8
:1011A0008FFF404080F311884FF0030002DFA6FB61
:1011B000056535A3D3E9002330462946FEF7A0FF95
:1011C0003C4B0894CDE906433B4B059323690493BC
:1011D00020F07F4439484FF6FE730393A4FB0001CF
:1011E0000723301A03FB041165EB01014FF47A72F7
:1011F0000023FEF785FF3B46CDE90140CDF8008096
:101200004A460121002024F053F930F002030CD0AB
:10121000204A2749214840F679331EF051FF4040CB
:1012200080F311884FF0030002DFBAF1000F04D001
:1012300001220221104614F0C5FB6FF08B0081E6FD
:1012400001232B71E4E606FB120080B248430EA393
:10125000D3E90023A0FB0501FEF752FF3F1A08E780
:101260000C4A17490D484FF433631EF029FF4040E4
:1012700080F311884FF0030002DF4FF000084E4664
:101280004FE700BFAFF300808D49FD1A0700000053
:101290005C2C0020F2D60200BCD702002194020090
:1012A00000CA9A3B40420F00FF5962025D90010064
:1012B000CFD702000590010065A201008D49FD1AFB
:1012C00002DE0200628EE18D0A44914494F88C2083
:1012D000D2071FFA89F925D5364823F0F6FD0546D1
:1012E00000283FF425AE94F88C306FF3000384F8A7
:1012F0008C30A38D9944037909F1060943F0030367
:10130000A4F892900371082343710123C37105224D
:1013100004F18D01083020F09DFFB4F89230A5F85B
:101320000D3001E6B4F89220A9EB020919F4004F40
:101330007FF4FEAD04F1340584F88930052204F110
:101340008D01284620F086FF0521284623F039FE2E
:1013500094F8393060F3050384F83930012384F8B8
:101360003031E5E5134823F0B0FD014688B194F82B
:10137000D130013B84F8D130037943F0030303718A
:1013800002234371C37194F8D2300372204624F0D3
:10139000ACFAB4F8780000287FF4D3ADB4F872301A
:1013A000012B02D9A4F87830CBE50133A4F87830CA
:1013B000C8E500BFF02C00202DE9F04F0B68D3F8F2
:1013C00000A0037F93B0174615460446C3F380136D
:1013D0000622894600F11E0110A80C9357F8086BED
:1013E00020F038FF062210A90EA820F033FF214676
:1013F000032251F82EBB384620F02CFF2B1D184637
:1014000005F11807042204F12A010A9320F022FFB3
:10141000052204F13A01384620F01CFF0521384628
:1014200023F0CFFD6A7F00F03F0060F305026A778A
:1014300094F83F20C2F30401A977A18EE981012825
:1014400002F01F028FB206D91B3202F01F020B2AD4
:1014500001D80A9B9FB995F82030002262F300035F
:10146000CAF8142085F820300123237121465846FC
:1014700016F08EFD16F096FD13B0BDE8F08FD9F88A
:1014800000200D934FF00008C2F8048094F8371044
:1014900094F8362042EA01222A8294F83F2096F8F6
:1014A0007C10638E0B93520962F3C50140F2E24354
:1014B00086F87C105F4324F0E1FB0A9096F87C00EC
:1014C000C0F3C20019F09AFC0A9A1044784300F560
:1014D0007420774A00F23F20B0FBF2F07A08963A87
:1014E000AA6294F83120686240F2E2435A43AA6348
:1014F000228F0A92BDF828200D9B42F2107101FB49
:101500000272013AB2FBF7F2A6F87220694A194654
:101510003A4406F18000B2FBF7F2A6F876200422E6
:1015200020F098FE9DF83020A2774FF48073A383BB
:101530000EA9062204F11F0020F08CFEEB89E38443
:101540002B8A238596F87C30BDF828206285C3F36A
:10155000C20384F82C30304617F0E2FD2146A88102
:10156000E080584616F014FD16F01CFD414640463A
:1015700024F058FB504CC6F804808346312300F217
:101580005240C6E90238A0FB040147A3D3E9002377
:10159000FEF7B6FD0B9AD9F80C3020F07F4040F2F0
:1015A000E24101FB02333061686A03F2B241424614
:1015B0003F1AA1EB0B0B0120022114F003FA504655
:1015C00017F0CAFA821C3D4BCDF800A0D2B201211F
:1015D000404614F0EBFF514618F028FE9AF82430EC
:1015E000DB0707D50122CDF800804346114640466F
:1015F00014F0DCFF304617F093FDA7FB04782AA314
:10160000D3E90023054641463846FEF779FDD9F86F
:101610000830A3F13A0940F2AB130893284BCDE907
:101620000663284B05933369049320F07F462648D0
:101630000723A6FB0001381A03FB061168EB010122
:101640004FF0000A4FF47A720023CDF80CA0FEF799
:1016500057FD15A3D3E90023CDE90160ABFB0401DD
:10166000FEF74EFD053520F07F40EDB200904B4671
:101670002A460121504623F01BFF30F002030CD014
:10168000124A134913484FF4D6731EF019FD404017
:1016900080F311884FF0030002DF0122022110467F
:1016A00014F090F9E8E600BF8D49FD1A070000002C
:1016B00040420F00FF59620200CA9A3B2DA201006E
:1016C00001A2010065A201008D49FD1A7ED8020029
:1016D000CFD70200219402002DE9F04F8FB0DFF840
:1016E000D8800A900DF137010DF1360023F096FFF6
:1016F000324F9DF836A09DF837B023F00CFFD8F894
:101700000040A4FB07542AA3D3E9002381462146C5
:101710002846FEF7F5FC0A9B0B90D8F804000693C8
:10172000274B0593002622A3D3E90023A0FB070142
:10173000CDE90766FEF7E4FC0B9B20F07F40CDE986
:101740000360204823F07F47A7FB00010723281AE6
:1017500003FB071164EB01014FF47A720023FEF7DB
:10176000CFFC0096CDE901704B465A460321504606
:1017700023F09EFE30F0020416D1134A13480023D2
:101780001DF03EFC68B19DF837209DF836000094AE
:101790002346032114F00AFF6FF073000FB0BDE879
:1017A000F08FD8F80C00F9E76FF08B00F6E700BF78
:1017B0008D49FD1A07000000EC30002000CA9A3B5A
:1017C000F5D901008D49FD1A447B0B00FC30002047
:1017D00038B50F4D044623F09EFEA96823F09DFE08
:1017E0006968B0FBF4F404440A4807A3D3E9002372
:1017F000A1FB0001FEF784FC20F07F40844294BFEF
:101800000020012038BD00BF8D49FD1A07000000EF
:10181000EC30002000CA9A3BF8B51046144624F07C
:101820007EFEA388124E0546E3B1204624F077FEE3
:101830000746204624F073FE00F03F033F2BC0F321
:1018400087111CBF0B4A52F8210056F8272056F882
:10185000251014BF43434FF0FF3307481EF030FC00
:101860000020F8BD56F8201004481EF029FCF7E7C8
:10187000187D02006C7D02003C8802005D88020039
:10188000F8B5104614460F4624F049FE054620469A
:1018900024F04DFE0646204624F041FE3146024625
:1018A00009481EF00DFC0948BB884680003D18BF62
:1018B00001250570002583808560002200231030FB
:1018C0001DF080FD2846F8BD6F880200E80E00205C
:1018D00008B504481EF0F4FBBDE80840002000F005
:1018E000EBB900BF8488020008B504481EF0E8FB8D
:1018F000BDE80840012000F0DFB900BF8A8802007F
:1019000038B504460D4604481EF0DAFB2046294649
:101910001EF092FB002038BD8F880200F8B5104CF5
:10192000A368C3B1012000F0C7F90025A7684FF4F0
:10193000004640F2E73029464FF47A720023E7FB75
:101940000601FEF7DDFB02460B4604F110001DF018
:1019500039FDA560F8BD2078BDE8F84000F0ACB9CD
:10196000E80E002008B5014620B10D48BDE808404A
:101970001EF0A6BB0B481EF0A3FB0B490B4822F040
:101980005CF9014608B10A48F0E71FF0CEFA0320DF
:1019900012F050F9BDE8084006481EF091BB00BFA8
:1019A0009F880200BF880200A87C0200207D020000
:1019B000D6880200F98802002DE9F0418EB002AF0E
:1019C00008F092F9B8B12E4E2E4BB6F878201D785B
:1019D0004FF6FF7300249A42C7E9004485F00105E1
:1019E000E846C7F807407A80BB80FB7207D12648DB
:1019F0001EF066FBC5463037BD46BDE8F08107F1F5
:101A000018034FF4B81207F10C0048F20321C7E99C
:101A10000423FB6022F043FF294607F10C0024F069
:101A2000F2FC1A4B198807F10C004A1C1A8024F0AA
:101A3000F2FC174B07F10C00197824F0E4FC0022AB
:101A4000002307F10C0024F01DFD214607F10C00D6
:101A500024F002FD214607F10C0024F0D4FC0D4BCC
:101A60000D4853F825101EF02BFB0094234607F178
:101A70000C02394606F16C000CF012FABAE700BF0E
:101A800094020020E80E00200B890200CC320020D6
:101A9000CC0B0020187D02004C8902002DE9F0419A
:101AA000DFF8B48088B002AB4FF4102205460E4632
:101AB00005A848F20421CDE90623059322F0EFFEA4
:101AC00008F1200025F0AAFB4FF47A77A0FB070469
:101AD000C00B40EA4440D8F8084098F80010241899
:101AE00022D081F0010105A824F08DFC98F80010A7
:101AF00005A824F088FC631C2CD041F69B039C4273
:101B00001FD94FF217639C421ED9144B9C421DD91A
:101B1000134B9C421ED8134F0323013C3C44B4FB9F
:101B2000F7F444EA8314E1B205A824F06CFC002326
:101B3000009305AA314628460CF0B2F908B0BDE87A
:101B4000F08100236427E8E70123E6E7022342F25D
:101B50001077E2E73F21E7E7E80E0020EF9C09005D
:101B60003FC84002C027090010B5431E01390F309D
:101B700013F8014F11F8012F944206D18342F7D197
:101B80000120C823024A137010BD0020FF23F9E78B
:101B9000CC0B0020F7B533481EF092FA324C324E8F
:101BA000324F1021204624F003FE0028B8BFDD2369
:101BB0002F48BCBF237063701EF082FA002516F810
:101BC000011B384601351EF07BFA102DF7D129484C
:101BD0001EF076FA2849294825F095F9284803F09F
:101BE000DDFF014610B127481EF06AFA2488264816
:101BF000C4F30E0421461EF063FA244B2448CDE9B9
:101C00000043002319461A4608F0C0F80146C8B13F
:101C100020481EF055FA20491348FFF7A5FF78B178
:101C20001E481EF04DFA1E491E48002225F065FB95
:101C30004FF4004200231B48CDE900231EF0E6F8D4
:101C400003B0F0BD184A22F0F5F9014608B1174873
:101C5000DFE7174BA3F85400A3F8780015481EF0EF
:101C60002FFAD8E7638902008633002090890200AA
:101C700074890200A18A02001D190000F80E0020DC
:101C8000651900009F8802009889020076330020C1
:101C900096330020BF890200BC0B0020198A020085
:101CA000B9190000B00E002066330020DE89020062
:101CB00094020020FC890200084B1A691268920401
:101CC00048BF80F0010028B19B68DB6803484FF4EF
:101CD000005118479B681B69F8E700BFFC760200BB
:101CE0000B6801330B60014B1B681847240300206D
:101CF000014B1860704700BF2403002007B50B4656
:101D0000002102460191034801A900F0F9F803B04F
:101D10005DF804FBE11C000030B585B0CDE90101A0
:101D20000446002501A90548039500F0E9F8DDE91E
:101D300002309842B8BF255405B030BD9B00020068
:101D40002DE9F84FB0F8189019F0080804469346AA
:101D50000DD001290CBF49F0100949F02009A0F865
:101D600018908BF31188BFF36F8FBDE8F88F09F0DF
:101D70000709022907D120461EF0BCF90028F0D03F
:101D80000128238B4ED16769218B002F15DA256836
:101D900021F00701C4E9008841F0010121830026F8
:101DA000218B01F0070ACA4502D0A368002B5AD143
:101DB0000DB9002E71D0002356E001F007035A1F21
:101DC000012A1ED821F00701062B256889B2C4E933
:101DD00000880AD13DB1638B2A46126801339BB259
:101DE000002AFAD1638341F00201218320461EF0CC
:101DF00081F906460028D3D0238B43F020032383A8
:101E0000CDE7042B0CD121F0070189B221832046B4
:101E10001EF070F905460028C1D041F02001218351
:101E20000025BCE7032809D1226923F007031668BF
:101E300043F00603238300252F46B1E7042806D18B
:101E4000226923F00703566843F00403F2E70528EC
:101E500006D1226923F00703966843F00503E9E7FA
:101E600000252E46E8E7012341F0080121838BF38A
:101E70001188BFF36F8FFBB985BB16B11F49204690
:101E8000B0474FF02003EFF3118B83F31288BFF3B9
:101E90006F8F238B23F008032383238BDA0625D54A
:101EA00023F0100323830121B4F8189009F00709E7
:101EB00000297FF45EAF54E7A1680029DCD0D1F897
:101EC0000090D1F804B03B4652462046D847B9F1BD
:101ED000000FD1D04946D9F80090F2E729463B4699
:101EE000524620462D681EF021F9C5E713F0200167
:101EF0001EBF23F0200323830221D5E759010200EE
:101F00002DE9F04F91B08B46029092461C46002579
:101F10009AF8000008B928465FE325280AF101076E
:101F200007D0029B594698470028C0F256830135D6
:101F300012E2182200210AA820F097F99AF801303D
:101F4000252B78D0002210469646944616463946F0
:101F500017F8013B2B2B00F09D8000F29480202B82
:101F600000F09B80232B00F09B802EB19DF8306009
:101F700046F004068DF83060BCF1000F05D09DF8E6
:101F8000306046F008068DF83060BEF1000F05D0D5
:101F90009DF8306046F010068DF8306028B19DF84D
:101FA000300040F020008DF830002AB19DF830203C
:101FB00042F040028DF830209DF8302002F04400BD
:101FC000442803D16FF386128DF830209DF830201D
:101FD0002A2B42F080028DF830207BD19DF83120F1
:101FE00042F001024B1C8DF831201A782E2A9DF800
:101FF00031200CBF0121002161F341028DF8312015
:1020000074D15A782A2A6AD0013300210A26184648
:1020100010F8012BA2F13007092F40F28E809DF8B5
:1020200030200E91C2F3400040EAD17161F34102C9
:102030008DF830205AE00AF102078DF833309DF810
:102040003130D90740F1498154F8049BB9F1000FB0
:1020500007DA9DF8302042F004028DF83020C9F1F3
:1020600000095A0740F1428154F8048BB8F1000F7F
:1020700080F241819DF831306FF341038DF83130AA
:102080004FF0FF3837E12D2B0CD0302B7FF46DAFA4
:1020900001225CE74FF0010C59E74FF0010E56E7C3
:1020A000012054E7012652E70CFB0202303A334686
:1020B0001E4616F8010BA0F13007092FF4D99942FA
:1020C00093D09DF830100D92D20F62F341018DF83C
:1020D00030108AE70B4600224FF00A0CE8E79DF823
:1020E000312042F004028DF8312002331F4617F8E8
:1020F000012B6C2A41D025D8682A2BD06A2A46D0D9
:102100004C2A4CD01F4617F8012B9DF831308DF822
:102110003320782A00F2D980572A4DD8412A03D09B
:10212000453A022A00F2D1809DF83230042262F34F
:1021300002038DF8323001239EE006FB0121303985
:10214000034664E7742A26D07A2ADBD19DF8313021
:1021500006220DE05A78682A9DF8312006D1012127
:1021600061F3C6028DF831209F1CCCE71346022292
:1021700062F3C6038DF83130C5E75A786C2A9DF8B2
:10218000312001D10421EBE713460322F0E79DF84B
:1021900031300522ECE79DF831300722E8E7BDF841
:1021A000303023F4F04323F0020343F4804343F040
:1021B0000203ADF83030A6E7A2F15801202900F261
:1021C000848001A050F821F08D220000CB22000075
:1021D000CB220000CB220000CB220000CB2200004B
:1021E000CB220000CB220000CB22000029210000DE
:1021F000CB2200008D2200004D220000292100008A
:102200002921000029210000CB2200004D220000DE
:10221000CB220000CB220000CB220000CB2200000A
:10222000952200008D220000B1220000CB22000088
:10223000CB220000B1220000CB2200008D22000042
:10224000CB220000CB2200008D2200009DF832102E
:10225000012003F0780360F30201402B8DF8321067
:1022600002BF9DF8301041F001018DF83010632A53
:1022700031D1003B18BF01239DF83020C2F340014B
:102280000B4363F341028DF83020D8E69DF83210FD
:102290000220DEE79DF8322003F07803A3F140002E
:1022A000032161F3020243428DF832204341E3E708
:1022B0009DF83220032113F0780F61F302028DF8AC
:1022C000322014BF01230023D6E79DF8303043F0BD
:1022D00001038DF830300023CEE79DF93020002A2D
:1022E000B4BFDDF834904FF0FF39BAE69B077FF5B5
:1022F000C7AEDDF838809DF831100023CDE90D33ED
:102300009DF8323003F00703012BC1F3C30138D12C
:10231000CB1E042B22D8DFE803F00309092121009A
:1023200054F8043BDA17CDE90A3206E0073424F00A
:102330000704F4E80223CDE90A239DF8303013F0B6
:10234000030656D002983B46524659461EF0A3FA61
:102350000028C0F242810544BA46D9E554F8043B4E
:1023600001294FEAE372CDE90A3205D19DF8283000
:102370000A9300230B93E0E70229DED1BDF9283050
:10238000D0E7022B23D1CB1E042B13D8DFE803F0B8
:10239000030A0A12120022680A920023201D0B93DE
:1023A0000446CAE7E01D20F00700F0E80223CDE96B
:1023B0000A23F5E754F8043B0A9301294FF0000380
:1023C0000B93D3D00229B8D1BDF82830D0E7042B25
:1023D00009D1E31D23F0070303F10804D3E9002327
:1023E000CDE90A23A9E7032B04BF54F8043B0A9361
:1023F000A3E79DF833007828AED8622822D8252894
:102400003FF48FAD5828A7D10DF126030093DDE9E5
:102410000A0104AB0CAA1EF0F8F98246B8F1000FCD
:102420000DF126000CDB9DF83020A0EB0A036FF3C2
:10243000861298458DF8302002D9A8EB03030D933E
:1024400080463DE06338152886D801A252F820F076
:10245000D124000035250000592300005923000035
:10246000592300005923000035250000592300009E
:102470005923000059230000592300008F25000034
:102480005D2500006125000059230000592300004C
:10249000A9240000592300005D25000059230000F5
:1024A000592300005D250000B8F1000FDDF828A0D9
:1024B0000ADB414650461FF0A7FE0AEB0008002643
:1024C000BAF1000F0CD147E750461FF096FEF4E733
:1024D0000A9B8DF8103000260DF1100A0DF111083D
:1024E000A8EB0A0306B101339DF83220D00668D567
:1024F000023352060D9948BF0E9A0B4448BF9B18F1
:10250000B9F1000F76DD9DF83020A9EB0309C2F385
:102510008003039353076DD4500661D546B1029BE7
:10252000594630469847002857DB039B01351E4625
:10253000302356E01E070FD413F0100618BF2026D4
:10254000DDE90A23002BBFF65FAF524263EB430382
:10255000CDE90A232D2657E72B26F1E7002653E77E
:102560000A9840B30DF1260300930CAA04AB002196
:102570001EF04BF9BDF8323003F0EF0343F4F043A3
:1025800043F010038246ADF83230002646E70A9B3E
:1025900007293FF6E1AEDFE801F00C04060C08085D
:1025A0000C0C1D70D8E61D80D6E6EA17C3E9005270
:1025B000D2E61D60D0E6DFF8C8A006460AF105089D
:1025C0008EE7110748BF013393E718460393594636
:1025D000029B98470028039B04DA11B0BDE8F08FF6
:1025E00020234D444A46002AA5EB090109F1FF3991
:1025F000EBDC0D4636B1029B594630469847002821
:10260000EBDB01359DF83230D90601D41A0706D527
:10261000029B5946302098470028DEDB01359DF8A3
:102620003230DB0607D59DF83300029B59469847A8
:102630000028D2DB01350D9E2E44731B002B16DCC7
:1026400002984346524659461EF025F90028C4DB3D
:102650000544A944A9EB0503002B7FF77DAE029B3F
:102660005946202098470028B7DB0135F2E7029B46
:102670005946302098470028AFDB0135DDE700BF21
:10268000348A020030B51049104889B0002224F085
:1026900034FE0F4D0F4900220023CDE9062300240C
:1026A0000E23CDE90334CDE901440B4B00944FF4E4
:1026B000407228461CF0F2FA0849284624F07AFABB
:1026C000204609B030BD00BFE1260000280F0020E1
:1026D000600F0020A0390020212A00003A8A020061
:1026E00001481CF067BC00BFD00C00200C4A00233E
:1026F00010B513700B4A13600B4B0C4A1A604FF461
:10270000004000F0B9FC00F06BFA09481EF0DAF85E
:10271000BDE81040074908480823482224F000BAC1
:10272000A73300208C1E002028030020030902008C
:10273000941E0020286800209C1E002070B5124BBB
:10274000BFF35B8F53E8005F6A1C43E80021002958
:10275000F8D1BFF35B8F2DB90C4C0D4E361B3611E3
:10276000B54200DB70BD237B53B123689B690BB17D
:1027700020469847636804221968204600F022FA30
:1027800001351034ECE700BF901E0020807B020072
:10279000A07B020010B54FF02003EFF3118483F308
:1027A0001288BFF36F8F04481EF09CF884F31188E1
:1027B000BFF36F8F10BD00BF941E002010B5044CF6
:1027C000237813B903481CF0F5FB0123237010BDD7
:1027D000A6330020D00C0020064BBFF35B8F53E8DC
:1027E000002F013243E800210029F8D1BFF35B8FAD
:1027F000704700BF8C1E00200020064BBFF35B8F8C
:10280000024653E8000F43E800210029F9D1BFF345
:102810005B8F70478C1E0020F8B5FFF7EDFF0A4C68
:102820000A4D2D1B07462D110026AE4200DBF8BDD8
:1028300063685B792BB123681B6913B13946204665
:10284000984701361034F0E7807B0200A07B02003D
:10285000164B984237B5044602D3154B984220D305
:1028600014480022002301A91CF0B8F90546D8B984
:102870000122019BBFF35B8F53E8001F43E8002058
:102880000028F9D1BFF35B8F019821464122043023
:102890001FF0A1FC019C7E2384F8453084F846504B
:1028A0000434204603B030BD034CFAE7047602003E
:1028B00044E002009C1E0020428A020050B1064BF8
:1028C000984206D303F5107398422CBF00200120D4
:1028D00070470020704700BF28680020434B1B78DA
:1028E0002DE9F74F044603B900B3FFF753FF054640
:1028F00078B1BFF35B8F3E4B53E8002F013A43E8BA
:1029000000210029F8D1BFF35B8F9CB128461EF04F
:1029100002F92CB9374B1B68002B01DDFFF77CFF58
:1029200035481DF0DDFF041E18BF0124204603B00A
:10293000BDE8F08F314B1B78BBB92B7ADB0714D481
:102940001EF0FCF8804628461EF0C3F801464046BB
:102950001DF0DBFF2A4B2B4ADFF8ACA0DFF8ACB050
:102960009B1A06464FEAD30936B9294E294FBF1B99
:102970003F114FF0000836E0B6FA86F7C7F11F079F
:10298000394628461EF0A8F8234B9842024602D347
:10299000224B984216D31046FFF790FF90B952454C
:1029A00010D06989C1F3891100F0FEF84FEA89134C
:1029B00043F001030246ADF800303946434658461D
:1029C0001DF0FDFF012303FA07F726EA0706CBE710
:1029D00073685B7923B1336829465B683046984752
:1029E00008F101081036B845F2DB8FE7A633002066
:1029F000881E00208C1E0020941E0020A73300207B
:102A0000407B020048790200428A02005C8A020090
:102A1000807B0200A07B02000476020044E00200FA
:102A200010B5FFF78BFE1CF0C3FF0C4B186030B1E4
:102A30000B4B1B68092B02DD0A481CF0BBFA094C42
:102A40000020FFF74BFF0028FAD14FF0FF324FF084
:102A5000FF3320461CF0D4FAF2E700BFB81E002076
:102A6000881E0020D00C0020294B37B51B684181FF
:102A700004469847E0604FF02003EFF3118583F39D
:102A80001288BFF36F8F234821461DF01FFF85F387
:102A90001188BFF36F8FBFF35B8F1F4B53E8002F7D
:102AA000013243E800210029F8D1BFF35B8F1B4AB4
:102AB000127882B14FF02003EFF3118483F3128870
:102AC000BFF36F8F0020FFF709FF84F31188BFF376
:102AD0006F8F03B030BD124A1B681268002AF8D00D
:102AE000012B0AD100220023CDE900230D484FF429
:102AF000004200231DF08AF9EBE70A2BE9D10948CF
:102B000024F007FC084803B0BDE830401CF052BA7E
:102B100028030020941E0020881E0020A7330020D8
:102B2000B81E0020280F0020D00C0020F8B50E4F52
:102B30003D7875B90D4C0E4EFFF700FE361B361171
:102B4000B54207DB0020FFF7C9FE0028FAD10123B8
:102B50003B70F8BD63685B791BB1236820465B69F5
:102B6000984701351034EBE7A7330020807B020043
:102B7000A07B020007B504380190BFF35B8F50E8DB
:102B8000003F5A1E40E800210029F8D1BFF35B8FB7
:102B9000012B03D1034801A923F0DDFF03B05DF849
:102BA00004FB00BF9C1E0020044A054B9B1AB1EB9E
:102BB000D30F34BF52F8310000207047487902002B
:102BC000807B0200054A4368801A0011013001220F
:102BD000187119605A71FFF7F1BD00BF807B0200C8
:102BE0002023024902481A4623F09ABF686A00204F
:102BF000BC1E002037B50023094D01930120FFF7CB
:102C00006DFE0446FFF7E8FD0022002301A92846D7
:102C10001BF0E4FF08B1002CF0D1019803B030BDE7
:102C2000BC1E002007B500230193074800220023A3
:102C300001A91BF0D3FF10B1FFF7DCFF0190019851
:102C400003B05DF804FB00BFBC1E0020F0B5037AA2
:102C500085B0DC0701901ED4457A2D091BD00024D5
:102C60002646019831461DF037FF0746FFF726FE3E
:102C700070B134B9019B294618691DF046FE04461F
:102C800048B124FA06F3D90702D53846FFF772FF98
:102C90000136AE42E5D3019B1A7A920704D55B69EF
:102CA000084C0393039B2BB9064801A923F053FF5B
:102CB00005B0F0BD1D6803A9204623F04CFF039525
:102CC000F0E700BFBC1E00200EB403B503AB014605
:102CD00053F8042B04480193FFF712F902B05DF892
:102CE00004EB03B0704700BFF50E02002DE9F0477A
:102CF0001D46089B1746DA0604460E4605D499067B
:102D00004CBF2A492A49FFF7DFFFDFF8A8904FF0B0
:102D10000008A8452ADBDFF8A080DFF8A090DFF8E4
:102D200094A00025BD422FD2725D49462046FFF790
:102D3000CBFF0135102D20D12149DFF87880DFF855
:102D400084902046FFF7C0FF0025AF4228D9725D6E
:102D5000A2F120035F2B28BF2E2249462046FFF711
:102D6000B3FF0135102D14D1BDE8F0874946204648
:102D7000FFF7AAFF08F10108CBE76A07D2D1514655
:102D80002046FFF7A1FFCDE741462046FFF79CFF15
:102D9000CFE76B07D9D141462046FFF795FFD4E72F
:102DA00041462046FFF790FFDBE700BFA18A020003
:102DB000A08A0200A58A0200A38A0200928902006A
:102DC000A78A0200A98A02002DE9F04F87B011F00E
:102DD000020605929DF84080BDF9489007461A46C4
:102DE00001F0010A01F0080506D011F0440F38D1B6
:102DF0003349FFF769FF0646BAF1000F0AD0314B9D
:102E0000314953F82820314B3846002A08BF1A466A
:102E1000FFF75AFF3DB12E4B2E4953F82820384674
:102E2000FFF752FF0546B9F1000F16DB059B002B9B
:102E300043D0012303FA08F8274B284C18F0100F51
:102E400018BF1C4649469DF84400FFF7ADFE2146D9
:102E500002463846FFF738FF0544A81907B0BDE819
:102E6000F08F1F4B196831B31E4B4FF461661B681E
:102E7000B2FBF3F34FF47A7BB3FBF1F4B4FBF6F25D
:102E800006FB124601FB14340BFB04F44FF03C0C20
:102E9000B4FBF1FEB6FBFCF301FB1E440CFB136616
:102EA0000BFB04F40096B4FBF1F1CDE901E10E490E
:102EB000FFF70AFF9FE708469DE7084CC2E700BFFF
:102EC000BA8A02007C7D02003DCB0200AC8A02007F
:102ED000907D0200DF8A0200B68A0200B18A0200F9
:102EE000D81E0020DC1E0020C38A020038B50C4624
:102EF000E107054603D5084A0849FFF7E5FEE20663
:102F000008D4A30628464CBF05490649BDE8384009
:102F1000FFF7DABE38BD00BFAC8A02003DCB02002D
:102F2000A18A0200A08A02002DE9F0478B7A13F0F3
:102F300007088AB005460E46174622D00A7A498904
:102F4000C3F3C203C1F38911D243CDE900830291D7
:102F5000F36802F001023946FFF736FF8146347A02
:102F6000E44314F001040ED0294630461DF058FE0B
:102F7000B8F1000F2BD0424639462846FFF7B6FF7E
:102F800025E0C146EBE7B8F1000F26D12746EB68F4
:102F9000069306AA3B46A96830461DF02DFE069A08
:102FA0006B681A603AB1AB68134413F8014CA4F192
:102FB0000A035C425C4128461DF08FFF069B1F44BC
:102FC000002BE4D11CB114492846FFF77DFE2846AA
:102FD0000AB0BDE8F0471DF080BF30461DF0AEFDE1
:102FE0000E4902462846FFF76FFE4FF0100A05AA69
:102FF000234606A93046CDF814A01DF0FDFD059A24
:10300000002AB8D04B46009706A92846FFF76EFE67
:10301000059B1C44EBE700BFE58A02003DCB0200A4
:1030200073B542F20F738B4228BF0B4605680F4AF7
:103030000446052168461DF050F863680C495B683A
:1030400006460B2228461DF0DEFD636832466946BF
:1030500028465B681DF0D7FD636806495B681B2244
:1030600028461DF0D0FD02B070BD00BFD7C10200E0
:103070001F8B0200038B0200084A10B50123084C85
:1030800013600021A04204D801B11360054B186001
:1030900010BD40085B000121F4E700BFDC1E0020EA
:1030A00040420F00D81E0020F8B5074F0D460446D9
:1030B0004618B44201D12846F8BD386814F8011BFF
:1030C00083685B689847F4E7F41E0020014B024ACE
:1030D0001A607047F41E0020B476020001481DF00B
:1030E000FCBE00BFC07D02000148FFF799BF00BFD2
:1030F000C07D020010B508460C461DF0DDFC0548F9
:1031000021460F22FFF710FF2046BDE810401DF0BA
:1031100002BD00BFC07D0200014B01221A70704742
:10312000B9330020024B034801221A701DF0D5BEAE
:10313000BA330020EC7D02000148FFF771BF00BFE9
:10314000EC7D020010B508460C461DF0B5FC0548A4
:1031500021460F22FFF7E8FE2046BDE810401DF093
:10316000DABC00BFEC7D0200054B1B781BB141F2BD
:10317000883024F093B8A42000211CF0FFBB00BFCE
:10318000BA3300202DE9F047DFF88C90DFF88CA0EF
:1031900080460F46042499F80050CDB94FF0FF3314
:1031A0004FF0FF3250461BF017FE3A464146284684
:1031B0001BF006FB064650461BF086FE184DFEB17E
:1031C00001232B7099F800306BB93846BDE8F087C1
:1031D0003A46414600201BF0F3FA0646EEE75CB99A
:1031E0002C704FF0FF3400201BF036FB0028ECD091
:1031F0002B78002BF3D1E8E7013CFFF7B5FFF2E7AE
:103200002B7813B1013C04D12C702B78002BC2D148
:10321000DBE7FFF7A9FFF8E7BA330020900C0020A6
:10322000B933002030B585B000230546CDE902331F
:1032300001904FF0FF330C484FF0FF321BF0CCFDF4
:103240000A4B1C6834B1636820461B6801A9984783
:103250002468F7E7284600F00BF8044602481BF004
:1032600033FE204605B030BDA40C00200C1F00200A
:10327000F8B51A4C1A4F06460025BC4206D3194B26
:103280001C680CB1143C9CB92846F8BD1EB9E36813
:103290004BB91434F1E72068002231461DF048FE96
:1032A0000028F4D1F5E79847002D08BF0546F0E760
:1032B00036B9E36863B914F1140FE5D06469E0E747
:1032C0002068002231461DF033FE0028F1D1F2E7DC
:1032D0009847002D08BF0546EDE700BF347902008E
:1032E00048790200141F0020F8B505464FF020036E
:1032F000EFF3118683F31288BFF36F8F094B1C68BD
:103300005CB1094FD4E90132002D08BF13460BB15F
:10331000387898472468002CF4D186F31188BFF3DD
:103320006F8FF8BD1C1F0020241F00201FB50F4BFE
:103330001A68BAB901221A600D4A07CA01AB83E8BC
:1033400007000C4A4AB193E807001EF0ADFF0020C9
:1033500005B05DF804EBFFF7C7BF82F31188BFF338
:103360006F8FF4E705B05DF804FB00BF2C0300206D
:10337000241F0020A9220200F0B589B06E46014644
:10338000054630461DF0F7FD96E80700174C84E827
:1033900007002078274638B3154B002119606B1CB5
:1033A0000DD0144816464FF4004C134A0023E6FB98
:1033B0000C01FCF7A5FE0121281A23F04FFF1CF099
:1033C0005FF80120FFF790FF97E8070005AB83E85F
:1033D00007000A4A1AB193E807001EF052FFFFF7F0
:1033E000A5FF1CF01BFA207809B0F0BD241F0020B7
:1033F0002C0300203F420F0040420F0083220200B6
:10340000014B1868704700BF30030020F0B5082258
:1034100089B01DF06CFFCB6A03930B6B04934B6B6D
:1034200005938B6B0693CB6B079313466A460C464A
:103430000646002711461046CDE9017700971DF09A
:1034400063FE3146054630461DF05EFE216B03915A
:10345000616B0491A16B0591E16B0544CDE9061701
:10346000104611461DF050FE3146054430461DF011
:103470004BFE0544206A0090606A0190A06A0290A9
:10348000A06B0690E06B07903046CDE90477039778
:103490001DF03AFE0544606A0090A06AD4F838C076
:1034A0000190E06A0290CDF810C0606BD4F83CC087
:1034B0000390CDE905C0206A079030461DF024FE38
:1034C0000544E06A0090206B0190606B0290206AD6
:1034D0000690A06A07903046CDE9047703971DF067
:1034E0003CFF236B0093636B0193A36B0293E36B2D
:1034F0000393636A0693E36A07932D1A0823304601
:10350000CDE904771DF029FF636B0093A36B019352
:10351000E36B0293236A0393636A0493A36ACDE97E
:103520000537236B07932D1A082330461DF015FF2E
:10353000A36B0093E36BCDE90137636A0393A36A3E
:103540000493E36ACDE90537636B07932D1A0823CB
:1035500030461DF002FF2D1A10D40D4C35B908224B
:10356000314620461DF0CFFE01280FD00823224609
:10357000314630461DF0F1FE2D1AEFE7044A0823CC
:10358000314630461DF0C0FD2D18F8D409B0F0BD0D
:10359000007E02000449431E0F3013F8012F8A5C9D
:1035A0001A708342F9D17047628B0200F0B5264E43
:1035B00007460C460FCE8DB001AD0FC50FCE0FC51F
:1035C00096E8070085E807003846002F38D0002C21
:1035D00038D0381F2146024610344B780D781B0432
:1035E00043EA0563CD782B438D78043143EA052304
:1035F0008C4242F8043FF0D1144C04218A0703693D
:1036000016D1C3F30742A55C1A0EA25C42EA05621A
:10361000C3F30725DBB2655DE35C42EA054242EA9B
:10362000032221F0030330336B4453F82C3C534006
:1036300050F8042F013153402C290361DED10120C1
:103640000DB0F0BD2046FBE7E07B0200628B02007C
:10365000014910220A60704710ED00E072B6404048
:1036600080F31188BFF36F8FBFF34F8F30BF62B607
:10367000BFF36F8F704700BF72B6494081F3118866
:1036800020BF80F3118862B6704700BF73B506464D
:103690000C4601B3134B144D1448ED1AED08AD015F
:1036A00045F00105ADF80050D1E9012309681DF08E
:1036B00086F9ADF80050D4E90423E1680C481DF008
:1036C0007EF9E1690B482A461DF04CF9A1690A48C8
:1036D0002A461DF047F92146304602B0BDE8704049
:1036E0001BF026B948790200587B0200628C020068
:1036F000918C0200C08C0200CF8C020043B2002BE0
:1037000008DB012200F01F0002FA00F05B09024A08
:1037100042F82300704700BF00E100E043B2002BF5
:103720000DDB01225B0900F01F0002FA00F02033DC
:10373000034A42F82300BFF34F8FBFF36F8F7047E8
:1037400000E100E0054B420900F01F0053F8222081
:10375000012303FA00F01040704700BF00E100E0D1
:1037600043B2002BA8BF03F1604301F10101B8BFD0
:10377000064B4FEA4111ACBF03F5614300F00F0067
:10378000C9B2B4BF195483F80013704714ED00E0B8
:1037900008B572B6044B986918B100229A6123F0FB
:1037A00010FA62B608BD00BF8C32002030BFFFF7B0
:1037B000FDBF00BF0F4A08B50F4B22F07F029A6091
:1037C000BFF34F8FBFF36F8FD3F8882022F47002BE
:1037D000C3F88820EFF3148323F0040383F31488E1
:1037E000BFF36F8F1BF048F91CF05CF900F016FB7B
:1037F0001BF04CF90000000000ED00E0094A0A4906
:1038000093680968D967094998674B6843F0805302
:103810004B60002383F31188BFF36F8F9368D86FD9
:10382000704700BF8C3200201488020000ED00E0D9
:1038300012498A684FF030001044EFF3098C80E899
:10384000F01F202080F31288BFF36F8F0C4F4FF0D2
:103850000066CA698A603E60906F0023936780F3B8
:10386000118804B5104600F01BFBBDE8044002F1CE
:10387000300090E8F01F8CF3098870478C320020EC
:1038800004ED00E01EF0040F0CBFEFF30880EFF32F
:103890000980816911F8021C0229FFD001B51EF0D0
:1038A00081FC01BD42F8203C009B42F81C3C0A49C7
:1038B000019B42F8183C029B42F8143C21F00101A4
:1038C0004FF0807342F8043C42F8081C0023203A71
:1038D00002658367704700BF95020200094A0346EC
:1038E000906870B113F1160F806E05D0A0F1200220
:1038F0009A4205D8834203D2814228BF00207047F4
:10390000002070478C32002008B5094B98600D46A6
:10391000144600F0C5FA204685F30988002163B6F5
:1039200081F31188BFF36F8F002200231CF0B2FCDB
:103930008C32002001B572B60B4A906900281EBF78
:103940000021916123F03DF962B6EFF30580A0F10B
:1039500010004FEAC0000549014409C99847BDE875
:1039600001400349084700008C32002044770200E0
:1039700075390000044B9968D869884203D003491F
:103980004FF080520A6070478C32002004ED00E056
:103990002DE9F047354B364C364DE41AE408A401C6
:1039A00044F00109074688463348494616461CF04C
:1039B000CCFFAB6ADB0603D5304849461CF0C5FF97
:1039C000AB6A180704D52E4844F001011CF0BDFF76
:1039D000284DAB6A990723D46FF01509254DAB6AC2
:1039E000DB0704D5274844F001011CF0AEFFAB6AA9
:1039F000980604D5244844F001011CF0A6FF1D4B95
:103A00009A6AD10624D49A6A920721D40020194ACE
:103A1000936A43F0FF03936200233370BDE8F0879D
:103A200044F0010A194851461CF08FFFD5F8349034
:103A3000AB6A1A06D0D51648524649461CF092FF8A
:103A4000B8F1000FCAD0AB6A23F08003AB62C5E7C0
:103A50005B681B05DAD539464846FFF73FFF00286B
:103A6000D4D080F309880220D1E700BF4879020052
:103A7000587B020000ED00E0FD8C0200138D020077
:103A8000468D0200878D0200A68D0200598D02002E
:103A9000718D020070B5234B234C244D2448E41A49
:103AA000E408A40144F0010631461CF04EFFAB6A65
:103AB0009B0103D51F4831461CF047FFAB6ADD016F
:103AC00004D51D4844F001011CF03FFF174DAB6ABF
:103AD000180304D5194844F001011CF036FFAB6A05
:103AE000590304D5164844F001011CF02EFF0F4D78
:103AF000AB6A9A0304D5134844F001011CF025FF7A
:103B0000AB6ADB0304D5104844F001011CF01DFF33
:103B1000064A936A6FEA03436FEA134393620020F5
:103B200070BD00BF48790200587B020000ED00E044
:103B3000D58D0200ED8D0200008E02001A8E02006B
:103B4000388E02005D8E0200778E02002DE9F04172
:103B50002A4B2B4C2B4DE41AE408A40144F0010835
:103B600007460E46284841461CF0EFFEAB6AD904D2
:103B700003D5264841461CF0E8FEAB6A1A0504D579
:103B8000234844F001011CF0E0FE1E4DAB6A9B058A
:103B900012D544F001081F4841461CF0D6FEA96B1F
:103BA000AB6A180408D51C4842461CF0DBFE1FB166
:103BB000AB6A23F40043AB62124DAB6A590504D5DE
:103BC000164844F001011CF0C0FEAB6ADA050DD5C1
:103BD000134844F001011CF0B8FE0A4A936A002021
:103BE00043F47F4393623070BDE8F081AB6A9B047D
:103BF000F3D50C4844F00101EDE700BF487902001D
:103C0000587B020000ED00E0A28E0200B88E020098
:103C1000468D0200C98E0200E28E0200F78E02007D
:103C2000128F0200A68D02002DE9F043654B5E68FD
:103C30008BB00D46C6F30804002787F31188BFF345
:103C40006F8F02F07F43B3F17F4F0DD102F00C0371
:103C5000082B0BD15C495D4B5D48C91AC908890125
:103C600041F001011CF071FE3D4603E0120701D452
:103C70000546012700238DF80730E31E092B00F2CB
:103C80008880DFE803F00575797286868686867DF2
:103C90004E4A4D4EDFF82C814E48B61AF608B60152
:103CA00046F0010631461CF050FED8F82C404FF08B
:103CB000000914F002048DF8079005D046483146FB
:103CC0001CF043FE002407E0D8F82C30002B1DDA4E
:103CD000424831461CF039FE9DF807309BB920223E
:103CE000294602A81EF0B6FA099B002F65D0C3F33F
:103CF000080222B96FEA53236FEA4323099302A90A
:103D00002046FFF7C3FC0BB0BDE8F083D8F82C3099
:103D10005B00E1D5324831461CF017FEAB6933F841
:103D2000022C4DF602739A420AD098F8283073B1EB
:103D30000DF1070201212846FFF72AFE0446CBE7D2
:103D40002968284832461CF00DFE2C68C4E798F814
:103D500029302BB10DF107010120FFF7F7FEEDE748
:103D6000B8F82A309BB2002BB6D0FFF793FEE5E7F8
:103D70000DF107020021DEE70DF107010020ECE75D
:103D80001149124B1848C91AC908890141F00101AB
:103D900096E70E4A0C4B154815499B1ADB0816F49A
:103DA000F87F4FEA831318BF014643F0010311481F
:103DB000A4F110021CF0EAFD84E723F4FF7323F062
:103DC00001039BE700ED00E0587B02004879020008
:103DD0002A8F0200558F02006C8F02008D8F020027
:103DE0009B8F0200BA8F0200D68F02000F90020054
:103DF000FA8F020028900200024A536943F0100330
:103E00005361704700ED00E0EFF30880EFF30981A4
:103E100001B57246FFF708FF01BD00BF044800234B
:103E20002021C2180133302B82F80013F9D17047DA
:103E300000E100E023F0E0FB202080F31188084837
:103E40004FF40261401880F30988EFF314800221D7
:103E5000084380F31488BFF36F8FFFF7ABFC0000BB
:103E6000A0560020064B9B68834207D1EFF30583E1
:103E700023B1044A536843F0805353601BF0AEBD36
:103E80008C32002000ED00E0024B034A0348012180
:103E900000F08CB80000042000000020AC7E02007E
:103EA000826E054B203A1A60044A2021C3E90112B0
:103EB0001846012100F084B8301F002000000B15C7
:103EC000F8B52A4F0E460021B14214DA4468002C9E
:103ED00048D0C3B104F1FF3C14EA0C0F0DD0244AC2
:103EE000244B2548D21AD208920142F001021CF05C
:103EF00039FD6FF015021046F8BD1F2CEFD905688B
:103F00001CEA050FEBD1202CD5B2D0F808C002680E
:103F100016D9B4F1004F15D8013CB4FA84F4C4F1B9
:103F20001F046400072D4CEA04040DD9104A114BFC
:103F30001248D21AD208920142F001022946D6E76D
:103F40000824EFE73E24EDE722F01F022A4342F067
:103F5000100244F00104C7F89850C7F89C20C7F835
:103F6000A0406A1C01310C30AEE700BF00ED00E05C
:103F7000487B0200487902003F90020062900200F4
:103F8000044B0522C3F89420BFF34F8FBFF36F8F0C
:103F9000704700BF00ED00E0BFF35F8F024B0022CF
:103FA000C3F89420704700BF00ED00E010B5034C4B
:103FB00001232278FFF784FF207010BDBB3300205F
:103FC00008B5094A00231278FFF77AFF10F1160F9F
:103FD00003D0064B0022072800DD08BDC3F8980077
:103FE000C3F8A0200130F6E7BB33002000ED00E06D
:103FF00014490868082810B521D8FFF7CDFF124CE6
:1040000049680022904201F10C0105D10F4B187054
:10401000FFF7B6FF002010BDC4F8982051F80C3C03
:1040200023F01F03134343F01003C4F89C3051F8EE
:10403000043C43F00103C4F8A0300132E2E74FF042
:10404000FF30E8E7B87E020000ED00E0BB3300205F
:10405000014B1860704700BF340300204FF020036D
:10406000EFF3118283F31288BFF36F8F06490123A8
:10407000C1F840354FF08041C1F8783582F311889E
:10408000BFF36F8F0020704700E0014020B1034B69
:10409000800143F001031847704700BFA07C020075
:1040A0000E4B402970B528BF40210D4C46181D46C7
:1040B000B04203F1020304D1002305F81130074890
:1040C00070BD02781209A25C03F8022C10F8012BD3
:1040D00002F00F02A25C03F8012CE9E7FF33002095
:1040E000E090020030B503788BB0044607AD032B97
:1040F00021D8DFE803F0021A1C1E124928461EF0E0
:1041000060F863780493A3780393E37802932379A8
:104110000193637900930C4AA37905951E210B48FE
:104120001BF0DBFF09480BB030BD0949E6E7094940
:10413000E4E70949E2E7094A0A2128461BF0CDFFD6
:10414000DFE700BF9B900200BD900200E13300203A
:10415000A2900200A9900200B3900200AECB020030
:1041600010B5034C2522214600F004FA204610BD6C
:10417000BC33002070B5214CBFF35B8F2368BFF3C5
:104180005B8FDA0706460D4601D50C2070BD01296C
:1041900031D8BFF35B8F54E8003F43F0020244E89C
:1041A00000210029F7D1BFF35B8F9B07EDD41448A2
:1041B00031461EF0A8F8134806F120011EF0A3F8BE
:1041C000BFF35B8F75B154E8003F43F0040344E84C
:1041D0000032002AF7D1BFF35B8F0B481AF0EAFEDA
:1041E0000020D3E754E8003F23F0040344E8003202
:1041F000002AF0D0F6E71220C8E700BF3C1F0020DD
:10420000A0340020C0340020B80C00202DE9F04775
:104210006A4B6B4DDFF8AC81DFF8AC91ED1AED081D
:1042200047464FF0FF324FF0FF3348461AF0E8FEA2
:10423000BFF35B8FD8F80040BFF35B8F14F001042D
:104240005AD0DFF888A1624C624E6348524621463C
:104250001CF0AEFEE8BBA901604841F001011CF072
:1042600074FB4FF01F0A4FF0FF324FF0FF33012075
:1042700000F0DEF900F1080602210446304622F083
:10428000B3F83E230370422343700121304622F0ED
:10429000ABF8082303704121304622F0A5F806460A
:1042A00000F801ABBAF1000F1DD0402200211DF033
:1042B000DCFFBFF35B8F57E8003F23F0010347E8C3
:1042C0000032002AF7D1BFF35B8F204601F0EAF8F5
:1042D000A7E72022314620461DF0ABFF0028B4D0CE
:1042E0004FF0000ABFE73C491EF00DF8203106F1FF
:1042F00021001EF008F8DCE7BFF35B8FD8F8003030
:10430000BFF35B8F9B078CD5304933481DF015FDFB
:10431000011E38DAAA01324842F001021CF022FBE9
:104320004FF0FF324FF0FF33012000F081F900F130
:10433000080A02210646504622F056F83E23037032
:10434000222343700121504622F04EF809230370C6
:104350002121504622F048F8034601303CBB1F2281
:104360001A70FF2120221DF080FFBFF35B8F57E8FA
:10437000003F23F0020347E80032002AF7D1BFF3E1
:104380005B8F3046A2E71249BFF35B8FD8F800304D
:104390001048BFF35B8F13F0040F01F120020B4BA9
:1043A00018BF014610461CF052FE0446B8E7002232
:1043B00009491A701DF0A7FFD7E700BF487902002E
:1043C000407A02003C1F0020B80C0020D87E02007A
:1043D000803400204D910200A0340020F1900200B2
:1043E0001A91020070B5067D044676B983681D886F
:1043F00042F22602954245D00FD842F20102954280
:104400004FD042F225039D4213D02A4BD3F84C31B2
:1044100020461B69BDE87040184742F25E039D428A
:10442000F3D10321083022F06AF8A06890F8401018
:104430002EE00321083022F062F8204618F092FCAA
:10444000BFF35B8F1C4B1A68BFF35B8F920707D5D6
:104450000C26314642F225001DF031FF002070BDD0
:10446000BFF35B8F53E8002F42F0010143E80010D7
:104470000028F7D1BFF35B8FD307E9D40F481AF0B8
:1044800099FDE6E70321083022F039F8A0683146AB
:10449000FFF770FE0646204618F064FC31462846B9
:1044A000DAE7DA7802F07F02DA701A7922F0010294
:1044B0001A71AAE7800000203C1F0020B80C0020E1
:1044C00010B588B00C4C0D4900220023CDE906231D
:1044D00000230A22CDE90323CDE9013300934FF4F1
:1044E0008F62074B20461AF0D9FB0649204608B0D8
:1044F000BDE8104022F05EBBE00F0020C03C002071
:104500000D4200003B91020030B4034608461A7881
:10451000012A13D0022A26D072B9154A02F11004DA
:1045200052F8045B41F8045BA242F9D15B8812782F
:104530000A7043731B0A837330BC70470C4A02F144
:10454000100452F8045B41F8045BA242F9D15B68A5
:1045500012780A70C3F3072243731B0CC3731B0A40
:1045600082730374E8E730BC112219461DF072BE55
:1045700095910200F0B50578012D8BB004460E46EA
:1045800017460CD0022D0DD0002D44D14388254A6A
:10459000394630460BB0BDE8F0401BF09EBD436885
:1045A000214AF5E72A46411C06A81DF053FEE11CEE
:1045B000042208A81DF04EFE2A46E11D0DF11A0046
:1045C0001DF048FE2A4604F1090107A81DF042FE2D
:1045D0002A4604F10B010DF11E001DF03BFE04F113
:1045E0000D01042209A81DF035FEBDF81830049312
:1045F000089B0393BDF81A300293BDF81C30019359
:10460000BDF81E300093094A099B394630461BF01D
:1046100064FD0BB0F0BD002130460BB0BDE8F040AA
:104620001DF023BEA5A102008C8C0200789102002F
:1046300038B50546054821F021FE044620B1002189
:10464000083021F040FE2575204638BD380E002088
:104650000B460B490246D1F8300110B520B9BDE830
:1046600010400120FFF7E4BF21F086FE0123002166
:10467000037581810446083021F025FE204610BDD7
:104680008000002070B504460F2C0D4610461946D8
:1046900005D80D2C12D9BDE87040FFF7D9BF132CF7
:1046A0000CD10B4821F0EAFD044628B10021083066
:1046B00021F009FE01232375204670BD02460B46FA
:1046C0000DB10448EEE7BDE870400120FFF7B0BF30
:1046D000880E0020980D002070B50B4D06460FCDBA
:1046E0008EB001AC0FC40FCD0FC40FCD0FC40C2E74
:1046F0002B6823609BBF0EAB03EB8606034856F87E
:10470000340C0EB070BD00BF0C7C02009C92020005
:104710000549064A83680648521AD2089201197858
:1047200042F002021CF01EB948790200387A0200F9
:10473000A492020038B583681A7872B9B3F80140C0
:10474000204602F0D9FD054640B9084B1A8822B927
:104750006FEA04506FEA1050188038BD012102F052
:10476000D3FD2846BDE838401EF057BACE320020AF
:10477000F8B585682E78EEB9B5F80170384602F0C4
:10478000BBFD044660B90C4B0C4A0D48D21AD20846
:104790009201394642F00102BDE8F8401CF0E2B84F
:1047A000EB784372314602F0AFFD2046BDE8F84099
:1047B0001EF033BAF8BD00BF48790200387A020013
:1047C000CC92020008B50121083021F0A0FE064B72
:1047D000064A01780648D21AD2089201BDE808407C
:1047E00042F001021CF0BEB848790200387A02009B
:1047F000F292020010B50A4A0A4C81898068A41A14
:10480000FFF74EFCFEF724F8E408A40144F002048C
:10481000014622460448BDE810401CF0A3B800BF82
:1048200048790200387A02001493020013B50D4C47
:104830000146052294F8670002F060FF78B90A4B40
:10484000586B1A8F009093F83A30ADF8042094F822
:1048500067008DF806300422694602F04FFF02B06F
:1048600010BD00BF800000200C7C020073B502EB7D
:10487000C303054608461178A9421AD008329A4265
:10488000F9D18689164B174C80683146E41AFFF738
:1048900007FCFDF7DDFFE408A40144F00204034631
:1048A000ADF800401048324629461CF088F802B0A6
:1048B00070BD818953788B420DD9094A094B0B4849
:1048C0009B1ADB089B0143F001032A4602B0BDE8B6
:1048D00070401CF05BB8536802B0BDE870401847E8
:1048E00048790200387A02005A9302003893020095
:1048F00010B501210446083021F009FE2146034A83
:104900000078BDE810400823FFF7B0BFB87F020071
:104910002DE9FF4107469079DFF824810E461446C1
:1049200018F062F9804516D0464B474DA0790097A4
:10493000ED1AED08019018F057F9AD0145F00205A8
:10494000CDE902082B464148042269461CF053F881
:1049500004B0BDE8F081204618F04EF93C4D4FF010
:104960000C0808FB00504388BB4214D0354B364E30
:104970002046F61A18F040F9F60808FB0055B60173
:1049800046F002066A8833483346394604B0BDE82B
:10499000F0411BF0FBBF304FD7F8300120B118F0C9
:1049A000E1F90023C7F83031204618F025F90C272B
:1049B00007FB00504368E3B1DEB9204618F01CF94C
:1049C00007FB005001224068D0E90031007A01F075
:1049D0001F07BA40490928B3BFF35B8F03EB81037C
:1049E00053E8001F114343E800100028F8D1BFF33B
:1049F0005B8F204618F000F90C2707FB00508368F6
:104A0000002BA5D0204618F0F7F878432E54204606
:104A100018F0F2F807FB0055A86804B0BDE8F041B3
:104A20001AF0C8BAD24303EB8103BFF35B8F53E89C
:104A3000001F114043E800100028D8D0F7E700BF5E
:104A4000100E002048790200387A02007C930200A0
:104A5000401F0020B19302008000002038B50421DF
:104A60000446083021F053FD4578017840882246FD
:104A7000FFF74EFF25B10348BDE838401AF09ABA57
:104A800038BD00BF9801002038B503210446083026
:104A900021F03DFDA36805781978B0F801002246A1
:104AA000FFF736FF25B10348BDE838401AF082BA57
:104AB00038BD00BF980100202DE9F84F514D524BF1
:104AC000DFF84891DFF848A1ED1AED08D9F80C306D
:104AD00050486FF35233C9F80C3002F0CFFB471C3B
:104AE0004A484FF0FF324FF0FF3339461BF0DEF9F2
:104AF00060B14949494840F6891352461BF0E0FA33
:104B0000404080F311884FF0030002DF444EDFF88D
:104B1000FC8006F58C7B17B91AF0A8FED6E7D8F80A
:104B20000C10C1F34531012959D9042963D198F8F2
:104B30000C30002B57D13B480022002321F0A3FB6F
:104B4000044660B9384935484FF4126352461BF0A9
:104B5000B7FA404080F311884FF0030002DF4FF0B6
:104B6000FF334FF0FF3258461AF04AFAD6F8303188
:104B700063B1A9012D4841F001011BF0E6FED6F812
:104B8000300118F0EFF80023C6F83031204621F04C
:104B9000F3FBC6F830012046FFF724FC0146F0B1D4
:104BA000AA01234842F001021BF0DCFE21481AF062
:104BB00001FA204618F020F81F4B0C2202FB0030AF
:104BC0001F2140882246FFF7A3FED6F8300118F0D7
:104BD000C9F800232046C6F8303118F0C3F808F1B0
:104BE0001408013F97E7012BF9D1D8F810003838A5
:104BF00002F0B0FEF3E7AA01104842F002021BF0F7
:104C0000B1FEECE7387A0200487902003803002050
:104C1000E49302004C030020189402002194020047
:104C200080000020B4010020A99102003E940200FF
:104C30005994020098010020401F00207B9402003C
:104C40002DE9F84F394D3A4BD0F80880DFF8E4A051
:104C5000ED1A0026ED08B14698F800309E4201DBBF
:104C6000BDE8F88F08EB8603B3F801B0B3F8037022
:104C7000584602F041FB0446D8B100F1280B002F42
:104C800033D04FF02003EFF3118283F31288BFF388
:104C90006F8FE369B3B1013BE36182F31188BFF326
:104CA0006F8F204602F0C8F9013F1AF083F9BFB2B6
:104CB000E5E7AA01204842F0010259461BF052FEE6
:104CC0000136C9E763692BB1A169186860618B423D
:104CD00008BFA06182F31188BFF36F8F4BB9A901A0
:104CE00041F0010150461BF030FE20461DF095FFBB
:104CF000E6E74FF02002EFF3118182F31288BFF351
:104D00006F8FDA68E261626AC3F80C90C3F80090B2
:104D10004AB9C4E9083381F31188BFF36F8F58464D
:104D20001AF0B4FABDE713606362F4E7387A020060
:104D300048790200B89402009C94020073B585681B
:104D4000B5F80160304602F0D7FA044668B9294B3D
:104D5000294A2A48D21AD208920142F00102314669
:104D600002B0BDE870401BF0FDBD2B78CBB92A79AD
:104D7000EB7843EA0223A0F89E30AA796B7943EAE4
:104D80000223A0F8A430EB792A7A43EA0223A0F8A0
:104D9000A63002F0CFFB204602B0BDE870401DF007
:104DA0003CBF1A2BF7D1C378012BF4D1BFF35B8F33
:104DB000031D53E8002F42F4806143E80015002DE5
:104DC000F7D1BFF35B8F5305E5D4B4F8A030ADF84D
:104DD0000030B4F8A230ADF80230B4F8A830ADF825
:104DE00004306946B4F8AA30ADF8063002F0A8FFE6
:104DF000D1E700BF48790200387A0200CF94020060
:104E000010B5C1E900239DF808300B720C4617F06D
:104E1000F3FE034B0C2202FB00335C6010BD00BFAD
:104E2000401F00202DE9F0474FF0FF324FF0FF33D5
:104E300006461748174D0F4621F020FA044600F1A8
:104E4000080A00214FF00008504621F03CFA84F88F
:104E50001480204617F0D0FE4FF00C0909FB0050DB
:104E60004680204617F0C8FE09FB0050C0F80880B5
:104E7000204617F0C1FE09FB00550321C5F8048048
:104E8000504621F0B1FA877006802046BDE8F087D1
:104E9000100E0020401F002038B505460C4619B9F9
:104EA000FFF7C0FF0446F0B140F635439D4214D1F0
:104EB0002046FFF797FA054668B10C4B0C4AD21A08
:104EC000D2089201014642F001020A481BF04AFD55
:104ED000204617F047FF284638BD0748214621F0F5
:104EE0003EFA0025F7E76FF06805F4E7487902001D
:104EF000387A020059940200B401002070B50646C9
:104F00000D4642F221000321FFF78CFF044658B9F9
:104F10000C490D4B0D48C91AC9088901BDE87040FC
:104F200041F001011BF011BD0321083021F05CFAB2
:104F300085700680214642F22100BDE87040FFF7EF
:104F4000ABBF00BF387A020048790200F394020038
:104F5000F7B58368D9789A781F8842EA0122ADF8BC
:104F6000002059791A7942EA0122ADF802209A7993
:104F7000D97942EA0122ADF804201A7A5B7ABCB2F0
:104F800042EA03232046ADF8063002F0B5F90646A2
:104F900080B9204B204A2148D21AD20892012146DA
:104FA00042F001021BF0DEFC02212046FFF7A6FFC3
:104FB00003B0F0BD694602F009FB38B91E21204656
:104FC000FFF79CFF30461DF028FEF1E70E2142F26C
:104FD0002000FFF727FF05460028F3D00E210830F8
:104FE00021F002FA0E22044600211DF03EF9BDF820
:104FF00000306380BDF80230A380BDF80430E38048
:10500000BDF8063027802381294642F22000FFF7B1
:1050100043FFD7E748790200387A0200CF940200B4
:1050200038B5837A072B044621D1BFF35B8F4368E1
:10503000BFF35B8F9A041AD4C37823B10C4B93F857
:10504000D0301B0713D5022142F21600FFF7EAFE0B
:10505000054660B10221083021F0C6F9238803809B
:10506000294642F21600BDE83840FFF715BF38BDAB
:105070008000002070B58568B5F80160304602F008
:105080003BF9044660B9144A144B1548D21AD208A9
:105090009201314642F00102BDE870401BF062BC53
:1050A0002B7823B90822E91CAC301DF0D3F8BFF3EC
:1050B0005B8F231D53E8002F42F4005243E8002188
:1050C0000029F7D1BFF35B8F2046FFF7A9FF2046E9
:1050D000BDE870401DF0A1BD387A02004879020099
:1050E000CF9402002DE9F041074686B015460C46E4
:1050F00021B9FFF797FE0446002857D0012200216E
:10510000684621F05AFE204617F076FDDFF8A480AD
:105110000C2303FB0080C0F808D0204621F02CF9B6
:105120000146254821F01BF94FF4A02200236846D0
:1051300019F066FF064680B1204A214921484FF404
:1051400099731AF0BDFF204831461AF0B9FF40406C
:1051500080F311884FF0030002DF204617F04CFD6A
:105160000C23584318F80060BEB1184A184B194870
:105170009B1ADB089B0143F00203324639461BF0C1
:1051800005FC204617F0EEFD092E0CBF6FF06E00F7
:105190006FF0040006B0BDE8F08115B12C60304618
:1051A000F8E7204617F0DEFD2846F3E76FF06800C9
:1051B000F0E700BF401F0020B4010020E49302008C
:1051C00018940200219402000D9502004879020013
:1051D000387A02002D9502002DE9F043B0F80190D5
:1051E000804A047811886FEA09536FEA13539BB21F
:1051F00099424FF0000808BFA2F8008085B005462C
:105200001FFA89F708BF4FF00108002C3AD03C2C58
:105210002AD101F0D7F8BFF35B8F103050E8003F80
:1052200023F0400340E80032002AF7D1BFF35B8F40
:105230000020FFF7FBFA054660B96B4B6B496C48E1
:10524000C91AC908890141F0010105B0BDE8F04360
:105250001BF07BBB4472002102F056F8284605B0D3
:10526000BDE8F0431DF0D9BC5F4B604A6148D21ADB
:10527000D208920142F00202214605B0BDE8F04397
:105280001BF070BB0379023B012B00F1040648D8E8
:105290000722314602A81CF0DDFF9DF808300622E7
:1052A000023B05F111010DF101008DF808301CF0F1
:1052B000D1FF01238DF80030EB78012B19D102A822
:1052C000FFF7B4FAEB78012B044611D101F07AF81C
:1052D000BFF35B8F00F1100353E8002F22F0400270
:1052E00043E800210029F7D1BFF35B8F1DF019FCC3
:1052F00064BB3D4A3D4C3046A41AFEF7F3FEFDF771
:10530000A7FAE408A40144F00104014622463A4801
:105310001BF028FB1F2138461DF02AFA05B0BDE816
:10532000F083C378012B04BF344B93F867403146B8
:1053300020461DF0E0FA0722014602A81CF08AFF71
:105340000722314668461CF085FFB5E72046072254
:1053500020F8889B02A91CF07DFF2A7EEB7D43EAA2
:105360000223A4F89E30AA7E6B7E43EA0223A4F8AF
:10537000A4302A7FEB7E43EA0223A4F8A630EB7820
:10538000E3700022012B627217D10722694604F1F3
:105390008F001CF05FFF01F015F8217A174DC1EB6B
:1053A000C1010722294404F196001CF053FFD5F8EF
:1053B000DC305B0601D501F0E9F90721204601F058
:1053C000A3FFB8F1000F03D00121204601F09CFF9C
:1053D00020461DF05EFC2046FFF722FE20461DF011
:1053E0001CFC9BE7CE32002048790200387A02008C
:1053F000499502006A950200839502008000002012
:105400002DE9F041044600F10806304621F0AAF8E3
:10541000B4F80C80B8F1010F05460CD81C4A1D49A0
:105420001D4840F615531AF04BFE404080F311889A
:105430004FF0030002DF3046022121F068F80746F2
:1054400000781DF083F9C20706460CD4104A1349B0
:10545000114840F619531AF033FE404080F311888A
:105460004FF0030002DF05230D4A38782146FFF78D
:10547000FDF9B30707D52069A4F80C8010FA85F56B
:10548000A560BDE8F0812046BDE8F04117F06ABC98
:10549000E49302009F95020021940200B895020057
:1054A0004880020070B5017D012904464BD00329D4
:1054B00078D18389032B0CD8424A434943484FF49F
:1054C000DB731AF0FDFD404080F311884FF00300BC
:1054D00002DF042104F1080021F019F8A1894288B3
:1054E0000688FF23C6F30B008A42E08263750DD065
:1054F0003748384B1B1ADB089B01374843F0010340
:105500001BF044FA204617F02DFC1AE001F0F4FEDF
:10551000054658B92E4B2F4AE18A3048D21AD20894
:10552000920142F001021BF01DFAEBE701F0D2FFFD
:10553000320B60752146284601F0B6FD28461DF065
:105540006CFB002070BD8389012B0CD81D4A1E49BD
:105550001E4840F60D131AF0B3FD404080F3118849
:105560004FF0030002DF022104F1080020F0CFFF1A
:10557000054600781DF0EAF883070CD4114A184953
:10558000124840F611131AF09BFD404080F3118839
:105590004FF0030002DF134A287804232146FFF767
:1055A00065F9AFE70A4B0B4A0F48D21AD2089201AD
:1055B00042F001021BF0D6F9204617F0D3FB6FF042
:1055C0001500BFE7E49302009F95020021940200BA
:1055D00048790200387A0200D1950200F595020060
:1055E00017960200188002004596020010B5037D50
:1055F000012B04460CD0094A09490A4840F65C537D
:105600001AF05EFD404080F311884FF0030002DF86
:105610002046FFF7F5FE002010BD00BFE493020016
:105620005996020021940200084A0346D2F84C0120
:1056300030B9D96839B1196929B1C2F84C3170470C
:105640006FF0770070476FF0150070478000002002
:105650002DE9F043334DBFF35B8F87B005F1CC03E9
:1056600053E8002F42F0020243E800210029F7D15D
:10567000BFF35B8F002001F003F92B4C2B4B2C491F
:105680002C4EDFF8B490E41AEB792846012B88BF42
:105690000E46FEF727FDFDF7DBF8E408A40144F011
:1056A000030802463146254843461BF06FF92F4652
:1056B0000126EB799E4207F1070725DB95F8686024
:1056C0003046FFF709F8B5F86A30049344F0030454
:1056D000B5F86E300593CDE90206234602A90422EF
:1056E00017481BF088F995F869603046FEF7F4FF1B
:1056F000B5F86C30ADF800400146324611481BF059
:105700005EF907B0BDE8F0833846FEF7EBFCFDF725
:105710009FF831460246434648461BF037F90136AA
:10572000C7E700BF80000020387A020048790200F5
:105730007C96020045AD02008F9602008096020022
:10574000A0960200DE96020070B5B94DD5F84C3136
:10575000996811F0010186B023D101AA40F60340F7
:10576000FFF7C0FC0446002878D1019B9B681B789A
:10577000A3B901F07FF8BFF35B8F2B4653F8CC2F12
:10578000BFF35B8F02F00502BFF35B8F53E8001F8E
:1057900043E800200028F9D1BFF35B8F019817F090
:1057A000E1FA01AA002141F20300FFF79BFC044645
:1057B000002853D1019B9F489968082201311CF0B1
:1057C00049FD019817F0CEFA214601AA41F20100E5
:1057D000FFF788FC0446002840D1019883685A7876
:1057E00085F86820D9789A7842EA0122A5F86A20DB
:1057F0001A7985F86920197ADA7942EA0122A5F83E
:105800006C205A799B7942EA0323A5F86E3017F091
:10581000A9FA214601AA41F20200FFF763FC0446FF
:10582000E0B9019B84489968402201311CF012FDC7
:1058300081481CF072FD019817F094FA95F87430C5
:1058400058060ED47D4B7E497E48C91AC908890185
:1058500041F001011BF079F86FF01204204606B008
:1058600070BD214601AA42F20300FFF73BFC04464B
:105870000028F3D1019B74489968082201311CF07B
:10588000E9FC019817F06EFA214601AA42F20200E3
:10589000FFF728FC04460028E0D1019B9B68B3F881
:1058A0000120A5F8FC2091B221B1DA7867481146B1
:1058B00021F083FA019817F055FA95F8746016F004
:1058C000200600F0988095F89430190700F1C28006
:1058D000082142F20100FFF7A5FA0446002800F073
:1058E00091800821084420F07FFD95F8D03095F88C
:1058F0009A2013F0020F02F006020CBF0F232F2391
:10590000062A08BF43F4C073002203701B0A4370C9
:105910008270C270027142718271C271214642F27C
:105920000100FFF7DFFB0446002897D195F874309B
:105930009A061DD4B5F8FC10D1B901AA41F20500B0
:10594000FFF7D0FB0446002888D1B5F8FC3063B9D6
:10595000019B9B685A78997842EA0122A5F8FC20BD
:105960009A883A48114621F028FA019817F0FAF976
:10597000082140F60140FFF755FA0446002841D0BF
:105980000821084420F030FD102303708823437061
:1059900002230022C370202382700271427182713F
:1059A000C371214640F60140FFF79CFB04460028E6
:1059B0007FF454AF01466A464FF60140FFF792FB71
:1059C0001F4C1E4BE41AE408A401002857D02048BD
:1059D00044F002011AF0B9FF00F0C2FB04460028AF
:1059E0007FF43CAF02F01CF8044600287FF436AF89
:1059F000FFF72EFE32E7022140F66D40FFF712FA64
:105A0000044610B96FF0680428E70221083020F03E
:105A1000EBFC0123037046702146324640F66D4090
:105A2000FFF760FB044600283FF44DAF16E700BFC8
:105A300080000020F0000020F800002048790200DB
:105A4000387A0200059702005001002080010020F2
:105A50002997020001AA002142F21C00FFF742FB35
:105A6000044600287FF4FAAE01988368D3F8012039
:105A7000D3F80530C5E9362317F074F928E7009B01
:105A800035489E68B6F80120032A96BF3349344949
:105A900051F8221044F003031AF078FFB6F8011011
:105AA000B6F80320022944F003032ED1032A2CD890
:105AB0002C4951F822102C481AF068FF72792B48B3
:105AC000032A96BF2A49264951F82210CDE901122E
:105AD000B2790392B6F807200492D6F8092005920D
