:1000000020550020013E0000B7210200D53D000030
:10001000D53D0000D53D0000D53D000000000000AA
:100020000000000000000000000000005138000047
:10003000D53D000000000000FD3700005D690200B2
:1000400001390000BD5B02000139000001390000E8
:1000500001390000013900000139000001390000B8
:1000600001390000013900000139000001390000A8
:100070000139000001390000013900000139000098
:100080000139000001390000013900000139000088
:100090000139000001390000013900000139000078
:1000A0000139000001390000013900000139000068
:1000B0000139000001390000013900000139000058
:1000C0000139000001390000013900000139000048
:1000D0000139000001390000013900000139000038
:1000E0000139000001390000013900000139000028
:1000F0000139000001390000013900000139000018
:1001000053B94AB9002908BF00281CBF4FF0FF317E
:100110004FF0FF3000F088B9ADF1080C6DE904CE66
:1001200000F01AF8DDF804E0DDE9022304B07047BE
:10013000430803F05533C01A830803F0333300F04B
:100140003330184400EB101000F00F3000EB0020AB
:1001500000EB0040000E70472DE9F047089E0D4669
:1001600004468846002B4DD18A42944668D9B2FA9B
:1001700082F252B101FA02F3C2F1200120FA01F138
:100180000CFA02FC41EA030894404FEA1C45210C9A
:10019000B8FBF5FE1FFA8CF705FB1E8341EA03430B
:1001A0000EFB07F199420BD91CEB03030EF1FF3054
:1001B00080F01E81994240F21B81AEF1020E634431
:1001C0005B1AA4B2B3FBF5F005FB103344EA034419
:1001D00000FB07F7A7420AD91CEB040400F1FF3328
:1001E00080F00881A74240F2058164440238E41B94
:1001F00040EA0E4000211EB1D4400023C6E900436E
:10020000BDE8F0878B4208D9002E00F0EE80002177
:10021000C6E900050846BDE8F087B3FA83F1002976
:100220004AD1AB4202D3824200F2F980841A65EBD4
:10023000030301209846002EE2D0C6E90048DFE71C
:1002400002B9FFDEB2FA82F2002A40F09180A1EBFF
:100250000C054FEA1C471FFA8CFE0121B5FBF7F392
:1002600007FB1350250C45EA00450EFB03F0A8429E
:1002700008D91CEB050503F1FF3802D2A84200F2B1
:10028000CB8043462D1AA4B2B5FBF7F007FB1055FF
:1002900044EA05440EFB00FEA64508D91CEB040405
:1002A00000F1FF3502D2A64500F2BB802846A4EB40
:1002B0000E0440EA03409EE7C1F120078B4022FA7A
:1002C00007FC4CEA030C20FA07F405FA01F31C437F
:1002D000FD404FEA1C4900FA01F3B5FBF9F8200C88
:1002E0001FFA8CFE09FB185540EA054508FB0EF085
:1002F000A84202FA01F20BD91CEB050508F1FF3AFE
:1003000080F08880A84240F28580A8F10208654408
:100310002D1AA4B2B5FBF9F009FB105544EA0545C6
:1003200000FB0EFEAE4508D91CEB050500F1FF34BD
:100330006CD2AE456AD90238654440EA0840A0FB59
:100340000294A5EB0E05A542C846A64656D353D047
:100350005EB1B3EB080265EB0E0505FA07F722FA6A
:1003600001F3CD401F43C6E900750021BDE8F087C9
:10037000C2F1200320FA03F10CFA02FC25FA03F380
:1003800095400D434FEA1C471FFA8CFEB3FBF7F173
:1003900007FB11302B0C43EA004301FB0EF098429F
:1003A00004FA02F408D91CEB030301F1FF382FD241
:1003B00098422DD9023963441B1AADB2B3FBF7F052
:1003C00007FB103345EA034500FB0EF3AB4208D9A7
:1003D0001CEB050500F1FF3816D2AB4214D90238E8
:1003E0006544ED1A40EA014138E73146304607E7F7
:1003F0008646E5E61846FAE64B45A9D2B9EB02086F
:1004000064EB0C0E0138A3E74046EAE7204694E788
:100410004146D1E7D0467BE7023B654432E70846D8
:1004200009E76444023842E7704700BF000000005B
:100430002DE9F8430346D0E90A801E6B184D841954
:100440003034A0451746894613A3D3E9002315D8B5
:10045000A0FB0501FFF754FE20F07F40C9F8000023
:10046000A4EB08000CA3D3E90023A0FB0501FFF7D0
:1004700047FE20F07F403860BDE8F883A8FB050107
:10048000FFF73EFE20F07F40C9F8000006F1300083
:10049000E8E700BFAFF300808D49FD1A07000000B8
:1004A00000CA9A3B000000002DE9F04F8FB020B940
:1004B0000FB0BDE8F04F18F057BBBF4D95F86A700C
:1004C00017F0010740F06F8195F8293005EB8303A1
:1004D000D3F82C9095F8353005EB8303D3F838B07A
:1004E000B9F1000F13D04C4614F8020BC0F3801082
:1004F00016F09CF806220146204621F0ACFE99F841
:1005000000305A060DD4AC48594625F0E1F899F868
:10051000003013F00E0F40F0A2802B6A4BB10C2775
:1005200099E00621204624F016FD0028EBD1122781
:1005300091E017F0FBFC804630B117F003FD8246D6
:1005400020B9404617F0F8FC072784E018F0C2FDF8
:10055000044618B9504617F0FBFCF2E74FF6FF725D
:100560000285826E00F11C0312B900F160028266FE
:1005700004F15C0204F15801A06E0B9324F0F6FC28
:1005800094F86E2022F0070284F86E2094F8392047
:1005900002F03F0262F07F0284F8392094F83C2098
:1005A00022F0070284F83C200622A4F8702094F878
:1005B0007C20002622F0070284F87C20C4E9126621
:1005C000A666A4F86C60E685266384F83B60266521
:1005D000A4F87460A4F87860A4F8886084F88A604D
:1005E000C4F89860A4F89C60A4F8B06024F0F4FF0C
:1005F00094F8CA200B9B2B6222F0030284F8CA20D5
:1006000094F8F620A4F8C860C4E92E0166F34512F8
:1006100000200021C5E9188AC4E93001C4E94A660E
:10062000C4E94866C4E90566A4F8D06084F8D360DC
:10063000C4F8D480A4F8F46084F8F620C4F8846088
:10064000C4F81C612670E4611AF070FB38B15A4896
:1006500018F032F8032738460FB0BDE8F08F95F850
:1006600024300121C3F342030DF133008DF8333000
:1006700024F0A8FC0246002800F08D809BF80110B1
:10068000484624F0DBFF4D49ED6100243123C5E9E4
:100690000234A0FB010146A3D3E90023C5E90544C8
:1006A0002C706C60FFF72CFDB5F86880286124F091
:1006B00033FF0646B8F1000F06D199F8004004F068
:1006C0000F04631E5C425C4195F824902B69DFF8AF
:1006D000F0B03C4A64F3000985F824904FF0020A18
:1006E00019F001090DACCDF834A031D00020CDE9CE
:1006F0000525CDE9000304930321CDE907B4CDE935
:1007000002003346524624F0D4FE214617F034FD51
:10071000002840D12C4A06954AF2D833CDE904028C
:100720000093CDE907B4CDE90200019033460122E0
:100730000321CDF834A024F0BCFE214617F01CFDA7
:1007400048BB95F86A3043F0010385F86A3082E7C8
:100750001E4903F2471008601D48CDE90432CDE977
:1007600008414FF0910CA8FB00014FF6FF73CDE953
:1007700002930CFB08110EA3D3E90023CDE9065B1D
:10078000FFF7BEFC3346CDE90090524603214846B0
:1007900015F058FED1E72B6A002B3FF4C0AE064897
:1007A00017F08AFFBBE6002755E700BFAFF30080D4
:1007B0008D49FD1A07000000942B002000CA9A3BC7
:1007C000C179010081880100B9850100002C002059
:1007D000002AE7840000000070B590F824308AB049
:1007E000C3F342030D46044601210DF123001646D2
:1007F0008DF8233024F0E6FB71780246284624F079
:100800001DFF1D491AA3D3E90023A0FB0101FFF737
:1008100077FC216905468D421FD2481B0021174AEB
:1008200002230993A21A6C23B2FBF3F2144B059333
:1008300009AE00230232CDE90110CDE903330321D3
:1008400006960093D2B2184624F04EFE314617F0B9
:1008500093FC40B925610AB070BD02D9691A002025
:10086000DDE70020F7E70C20F5E700BFAFF30080DD
:100870008D49FD1A0700000000CA9A3B942B002006
:10088000C1790100000000002DE9F047044690F80E
:10089000300094F820303E4FC0F3400060F38613E0
:1008A0008CB084F8203004F1210124F03BFE268D29
:1008B00094F82030E4610025A6FB07014FF0910C6D
:1008C00003F079030CFB0611C4E9055584F82030C8
:1008D00025702DA3D3E90023FFF712FC3123C4E9CF
:1008E0000235E36A65600933A0F13102934232BFF9
:1008F00023612561E562274D064624F00DFE0223A3
:100900000B93651B3423B5FBF3F5234BB4F828C0D8
:10091000CDE90643B846214B059307462369049366
:10092000ACFB080891214FF0000901FB0C810DF18F
:100930002C0A15A3D3E90023CDF820A0CDF80C9004
:10094000FFF7DEFB104619464FF47A720023FFF7DB
:10095000D7FB0435EDB2CDE901600321CDF800905D
:100960003B462A46484624F0A4FD514617F004FCB5
:1009700040B994F8303043F0010384F830300CB0C3
:10098000BDE8F0870C20FAE78D49FD1A070000004A
:10099000002AE784242C0020C1790100C98C0100C1
:1009A000F8B50446002016461F4618F009FA054619
:1009B00020B390F83030018567F3420380F830307F
:1009C0009DF818306401DB0003F0180304F02004E4
:1009D0001C4390F8203023F038031C4380F820405B
:1009E00009489124A6FB000105A3D3E9002304FBD9
:1009F0000611FFF785FBE8620020F8BD0C20FCE73C
:100A00008D49FD1A07000000002AE784000000005D
:100A10002DE9F04F914690F8883090F88920934264
:100A20008DB004460F460BD190F89D1090F89C2095
:100A30008A4225D00122023B80F88A2080F8893042
:100A400094F8883094F889209A1A02F00302022A56
:100A500040F06E8294F88A00012800F01482022887
:100A600000F03084CC4ACD49CD4840F252431FF0CB
:100A700028FB404080F311884FF0030002DF57E26B
:100A800090F8B13090F8B02093425BD09B1ADA070F
:100A9000D6D590F87C1011F0010826D017F00AFB8B
:100AA00005460028CCD094F8B03084F8B130238DBE
:100AB000C38003230371037F43F00303037700F133
:100AC000200609234377C37708220021304621F00E
:100AD000CDFBD4E93001324624F0F7FE2946086800
:100AE00017F03CFA17F044FAAAE7AE4824F0EEF902
:100AF00005460028A4D094F8B130013B84F8B13009
:100B0000037943F0030303710923437194F93930E6
:100B1000002BACBF08230E2300F10806C371082286
:100B20004146304621F0A2FBD4E92E01324624F0A2
:100B3000CCFE2946204624F0D9FEB4F87630A4F83D
:100B400078307DE790F8C93090F8C82093425FD0A4
:100B50009B1ADB077FF574AF90F8CA30DE0724D408
:100B6000904824F0B3F9014600283FF469AF94F8A7
:100B7000C930013B84F8C93094F8CA3043F001030E
:100B800084F8CA30037943F00303037106234371E9
:100B90000C23C37103726FF00E034372052383723B
:100BA0004FF0FF33C3720373C4E79D0722D517F0DC
:100BB00081FA014600283FF443AF94F8C83084F826
:100BC000C930238DC38003230371037F43F00303E4
:100BD0000377062343770C23C37794F8CB3080F850
:100BE0002030B4F8CC30A0F82130B4F8CE30A0F8E2
:100BF000233074E740F62D53674A684968481FF070
:100C000060FA404080F311884FF0030002DF17E7DD
:100C100090F8F52090F8F4309A423FF411AF624D0D
:100C20002B6813B198427FF40BAF94F8F63003F0C1
:100C30000F03062B00F2248101A252F823F000BF1B
:100C40005D0C0000E10C0000370E0000410A0000BE
:100C5000410A0000410A0000410A00005148668E26
:100C6000B4F82E8024F032F9014600283FF4E8AEB3
:100C700003792C6043F003030371182343710F239E
:100C8000C371B4F8F8300381B4F8FA304381B4F892
:100C9000FC308381B4F8FE30C38100230374C37435
:100CA000037546444FF0FF3343758375C375037670
:100CB00043768376C3760377437783774E44B4F8DD
:100CC0007630A4F87830A0F8116094F8F630042259
:100CD00062F3030384F8F630204624F007FEAFE603
:100CE00094F8F730EBB12F4824F0F0F801460028D3
:100CF0003FF4A6AE037943F0030303711123C371DC
:100D0000032343710F23037294F8F7304372204694
:100D100024F0ECFD94F8F43084F8F53000232B60D7
:100D20008EE694F93920002A40DB94F8F620C4F8C6
:100D3000A830062060F3030294F8000184F8F6203E
:100D4000012284F8AC20B4F8FA2048B1B2FBF0F3E9
:100D500013FB00F3B4F8F8009BB2984298BF1A4610
:100D6000B4F8FC30A4F8A230B4F8FE30A4F8A430F3
:100D700094F8F630A4F8A020C3F3001394F89E2052
:100D8000DB0043F0020322F00F021343013984F821
:100D90009E3084F89D1053E6C6D60200D6DD0200D0
:100DA000F5930200002D00206C2C0020674824F0F1
:100DB0008DF8014600283FF443AE037943F0030366
:100DC0000371182343711023C371B4F8F830038101
:100DD000B4F8FA304381B4F8FC308381B4F8FE30C3
:100DE000C38194F800310374B4F80231A0F81130D3
:100DF000B4F80431A0F81330B4F80631A0F8153077
:100E0000B4F80831A0F81730B4F80A31A0F8193056
:100E1000B4F80C31A0F81B30B4F80E31A0F81D3036
:100E2000204624F063FD94F8F630052262F30303B4
:100E300084F8F63004E617F03DF9014600283FF447
:100E4000FFAD94F8F620032363F3030284F8F62041
:100E5000228D0371037FC28043F0030303771823BD
:100E600043770F23C377B4F8F8300384B4F8FA302B
:100E70004384B4F8FC308384B4F8FE30C3842EE697
:100E800040F65E63B8E6E28DB4F83280904494F8A0
:100E90009E20C84412F007011FFA88F858D017F0B6
:100EA000F1F80646002843D0284824F00FF80546FC
:100EB00000283DD0204617F08FFF17F0FBF833686D
:100EC000D4F898205A602B79C4F8986043F0030353
:100ED0002B7100220C236B71EA7194F8AC302B72E9
:100EE00040F2E241D4F8A830B3FBF1F3A5F80930A1
:100EF000B4F8A030A5F80B30B4F8A230A5F80D3046
:100F0000B4F8A430A5F80F3094F89E3062F30203D1
:100F100084F89E30A38D984408F106081FFA88F8DB
:100F2000A4F88C80A5F811802946204624F0DEFC28
:100F300094F8D03094F8D1209B1ADBB2012B00F04A
:100F4000118200200DB0BDE8F08F00BF002D002001
:100F5000B4F88CA0A8EB0A0210041FFA82FBE7D4B5
:100F600084F8893094F89C3094F8F42084F89D300B
:100F700094F8F530934209D094F8F63003F00F035B
:100F8000062B04BF84F8F520A4F87810C04BD4F8E1
:100F900098501A68944204BF00221A600DB12B6861
:100FA00063B9BC4ABC49BD4840F6B4231FF089F878
:100FB000404080F311884FF0030002DF2868B4F846
:100FC000A0204368C4F89830638DB4F8A260B4F8E8
:100FD000A4109A4213D1A38DB34210D140F2E24340
:100FE00003FB02FC42F2107303FB01C3013BB3FBA2
:100FF000FCF3B4F872C09BB29C4500F02181238DB4
:10100000EB8018232B7100232B77EA832E846984CD
:10101000294616F0A3FF16F0ABFFA368002B09DAF0
:10102000E068626823F0004390422CBF3F18BF186D
:10103000A360FF1A608DB4F8A060994D10FB0BF00F
:1010400080B2B0FBF6F293B20B9316FB02F39BB2A5
:10105000984240F2E24180F0F680181A48438AA391
:10106000D3E90023A0FB0501FFF74AF820F07F40F9
:1010700007440B9BE28DAAEB080A9A4494F9393095
:101080009144CA4440F2E248002BA4F82EA008FB89
:1010900006F980F2E580226CA36C02FB1B33A3648B
:1010A00024F0EDFD064694F87C00C0F3C20019F070
:1010B0008BFE94F8AC20064409FB06F608FB02F20E
:1010C00006F574267748226506F23F260022B6FB15
:1010D000F0F60B98C4F88420A26C266470434FEAA3
:1010E0005903963B024463649A4294BFA264A3648A
:1010F000A0FB050164A3D3E90023FFF701F83F1A21
:10110000D4F8A800B0FBF8F008FB00F05EA3D3E928
:101110000023A0FB0501FEF7F3FFA9EB060620F074
:101120007F48B4F8A0306385B4F8A230A385B4F842
:10113000A43042F2107202FB0393013BB3FBF9F3BC
:10114000A4F87230584B4B44B3FBF9F3A4F8763053
:1011500094F89E30190744BF0023A4F8743002218C
:1011600001201BF055FC002202218246012014F0D0
:101170000FFC204617F0BAFF00F105095FFA89F964
:101180004A4B00944A460121002015F0F5F930F051
:1011900002030CD03F4A4649404840F65F331EF0F8
:1011A00090FF404080F311884FF0030002DFA6FB60
:1011B000056535A3D3E9002330462946FEF7A0FF95
:1011C0003C4B0894CDE906433B4B059323690493BC
:1011D00020F07F4439484FF6FE730393A4FB0001CF
:1011E0000723301A03FB041165EB01014FF47A72F7
:1011F0000023FEF785FF3B46CDE90140CDF8008096
:101200004A460121002024F054F930F002030CD0AA
:10121000204A2749214840F679331EF052FF4040CA
:1012200080F311884FF0030002DFBAF1000F04D001
:1012300001220221104614F0ABFB6FF08B0081E617
:1012400001232B71E4E606FB120080B248430EA393
:10125000D3E90023A0FB0501FEF752FF3F1A08E780
:101260000C4A17490D484FF433631EF02AFF4040E3
:1012700080F311884FF0030002DF4FF000084E4664
:101280004FE700BFAFF300808D49FD1A0700000053
:101290006C2C0020C6D6020090D70200F593020005
:1012A00000CA9A3B40420F00FF5962022990010098
:1012B000A3D70200D18F010031A201008D49FD1A90
:1012C000D6DD0200628EE18D0A44914494F88C20B0
:1012D000D2071FFA89F925D5364823F0F7FD0546D0
:1012E00000283FF425AE94F88C306FF3000384F8A7
:1012F0008C30A38D9944037909F1060943F0030367
:10130000A4F892900371082343710123C37105224D
:1013100004F18D01083020F09EFFB4F89230A5F85A
:101320000D3001E6B4F89220A9EB020919F4004F40
:101330007FF4FEAD04F1340584F88930052204F110
:101340008D01284620F087FF0521284623F03AFE2C
:1013500094F8393060F3050384F83930012384F8B8
:101360003031E5E5134823F0B1FD014688B194F82A
:10137000D130013B84F8D130037943F0030303718A
:1013800002234371C37194F8D2300372204624F0D3
:10139000ADFAB4F8780000287FF4D3ADB4F8723019
:1013A000012B02D9A4F87830CBE50133A4F87830CA
:1013B000C8E500BF002D00202DE9F04F0B68D3F8E1
:1013C00000A0037F93B0174615460446C3F380136D
:1013D0000622894600F11E0110A80C9357F8086BED
:1013E00020F039FF062210A90EA820F034FF214674
:1013F000032251F82EBB384620F02DFF2B1D184636
:1014000005F11807042204F12A010A9320F023FFB2
:10141000052204F13A01384620F01DFF0521384627
:1014200023F0D0FD6A7F00F03F0060F305026A7789
:1014300094F83F20C2F30401A977A18EE981012825
:1014400002F01F028FB206D91B3202F01F020B2AD4
:1014500001D80A9B9FB995F82030002262F300035F
:10146000CAF8142085F820300123237121465846FC
:1014700016F074FD16F07CFD13B0BDE8F08FD9F8BE
:1014800000200D934FF00008C2F8048094F8371044
:1014900094F8362042EA01222A8294F83F2096F8F6
:1014A0007C10638E0B93520962F3C50140F2E24354
:1014B00086F87C105F4324F0E2FB0A9096F87C00EB
:1014C000C0F3C20019F080FC0A9A1044784300F57A
:1014D0007420774A00F23F20B0FBF2F07A08963A87
:1014E000AA6294F83120686240F2E2435A43AA6348
:1014F000228F0A92BDF828200D9B42F2107101FB49
:101500000272013AB2FBF7F2A6F87220694A194654
:101510003A4406F18000B2FBF7F2A6F876200422E6
:1015200020F099FE9DF83020A2774FF48073A383BA
:101530000EA9062204F11F0020F08DFEEB89E38442
:101540002B8A238596F87C30BDF828206285C3F36A
:10155000C20384F82C30304617F0C8FD2146A8811C
:10156000E080584616F0FAFC16F002FD414640466F
:1015700024F059FB504CC6F804808346312300F216
:101580005240C6E90238A0FB040147A3D3E9002377
:10159000FEF7B6FD0B9AD9F80C3020F07F4040F2F0
:1015A000E24101FB02333061686A03F2B241424614
:1015B0003F1AA1EB0B0B0120022114F0E9F9504670
:1015C00017F0B0FA821C3D4BCDF800A0D2B2012139
:1015D000404614F0D1FF514618F00EFE9AF8243020
:1015E000DB0707D50122CDF800804346114640466F
:1015F00014F0C2FF304617F079FDA7FB04782AA348
:10160000D3E90023054641463846FEF779FDD9F86F
:101610000830A3F13A0940F2AB130893284BCDE907
:101620000663284B05933369049320F07F462648D0
:101630000723A6FB0001381A03FB061168EB010122
:101640004FF0000A4FF47A720023CDF80CA0FEF799
:1016500057FD15A3D3E90023CDE90160ABFB0401DD
:10166000FEF74EFD053520F07F40EDB200904B4671
:101670002A460121504623F01CFF30F002030CD013
:10168000124A134913484FF4D6731EF01AFD404016
:1016900080F311884FF0030002DF0122022110467F
:1016A00014F076F9E8E600BF8D49FD1A0700000046
:1016B00040420F00FF59620200CA9A3BF9A10100A3
:1016C000CDA1010031A201008D49FD1A52D80200BE
:1016D000A3D70200F59302002DE9F04F8FB0DFF899
:1016E000D8800A900DF137010DF1360023F097FFF5
:1016F000324F9DF836A09DF837B023F00DFFD8F893
:101700000040A4FB07542AA3D3E9002381462146C5
:101710002846FEF7F5FC0A9B0B90D8F804000693C8
:10172000274B0593002622A3D3E90023A0FB070142
:10173000CDE90766FEF7E4FC0B9B20F07F40CDE986
:101740000360204823F07F47A7FB00010723281AE6
:1017500003FB071164EB01014FF47A720023FEF7DB
:10176000CFFC0096CDE901704B465A460321504606
:1017700023F09FFE30F0020416D1134A13480023D1
:101780001DF024FC68B19DF837209DF836000094C8
:101790002346032114F0F0FE6FF073000FB0BDE894
:1017A000F08FD8F80C00F9E76FF08B00F6E700BF78
:1017B0008D49FD1A07000000FC30002000CA9A3B4A
:1017C000C1D901008D49FD1A447B0B000C3100206A
:1017D00038B50F4D044623F09FFEA96823F09EFE06
:1017E0006968B0FBF4F404440A4807A3D3E9002372
:1017F000A1FB0001FEF784FC20F07F40844294BFEF
:101800000020012038BD00BF8D49FD1A07000000EF
:10181000FC30002000CA9A3BF8B51046144624F06C
:101820006FFEA388124E0546E3B1204624F068FE01
:101830000746204624F064FE00F03F033F2BC0F330
:1018400087111CBF0B4A52F8210056F8272056F882
:10185000251014BF43434FF0FF3307481EF031FCFF
:101860000020F8BD56F8201004481EF02AFCF7E7C7
:10187000F87C02004C7D02001C8802003D880200BA
:10188000F8B5104614460F4624F03AFE05462046A9
:10189000114C24F03DFE63888342064603D1BA888A
:1018A000A3889A4215D02378AB4212D00B48314618
:1018B0001EF007FCBB88A380003D4FF0000318BF5B
:1018C0000125A360064866800022002325701DF0D4
:1018D0005FFD0020F8BD00BFF80E00204F88020019
:1018E000080F002008B504481EF0EBFBBDE80840D7
:1018F000002000F0C7B900BF5888020008B50448AE
:101900001EF0DFFBBDE80840012000F0BBB900BFBE
:101910005E88020038B504460D4604481EF0D1FB2F
:10192000204629461EF089FB002038BD638802004E
:10193000F8B5104CA368C3B1012000F0A3F900254D
:10194000A7684FF4004640F2E73029464FF47A7218
:101950000023E7FB0601FEF7D3FB02460B4604F12A
:1019600010001DF015FDA560F8BD2078BDE8F84019
:1019700000F088B9F80E002008B5014620B10D48E6
:10198000BDE808401EF09DBB0B481EF09AFB0B49BA
:101990000B4822F053F9014608B10A48F0E71FF05E
:1019A000C5FA032012F02CF9BDE8084006481EF0E5
:1019B00088BB00BF7388020093880200887C020005
:1019C000007D0200AA880200CD8802002DE9F041C6
:1019D0008EB002AF08F06EF9B8B1284E284BB6F8B9
:1019E00078201D784FF6FF7300249A42C7E901441E
:1019F00085F00105E846C7F80B40FA803B81FB7390
:101A000007D120481EF05DFBC5463037BD46BDE816
:101A1000F08107F11C034FF4881207F1100048F21F
:101A20000321C7E905233B6122F03AFF294607F16C
:101A3000100024F0E9FC144B198807F110004A1C2F
:101A40001A8024F0E9FC214607F1100024F005FD7E
:101A5000214607F1100024F000FD0C4B0C4853F810
:101A600025101EF02EFB0094234607F11002391DAD
:101A700006F16C000CF0FAF9C6E700BF94020020F2
:101A8000F80E0020DF880200DC320020F87C020023
:101A9000208902002DE9F041DFF8B48088B002AB64
:101AA0004FF4102205460E4605A848F20421CDE960
:101AB0000623059322F0F4FE08F1200025F09FFB99
:101AC0004FF47A77A0FB0704C00B40EA4440D8F8F3
:101AD000084098F80010241822D081F0010105A8D0
:101AE00024F092FC98F8001005A824F08DFC631CEB
:101AF0002CD041F69B039C421FD94FF217639C42A6
:101B00001ED9144B9C421DD9134B9C421ED8134F17
:101B10000323013C3C44B4FBF7F444EA8314E1B2F0
:101B200005A824F071FC0023009305AA314628463D
:101B30000CF09CF908B0BDE8F08100236427E8E7C9
:101B40000123E6E7022342F21077E2E73F21E7E7CD
:101B5000F80E0020EF9C09003FC84002C027090092
:101B6000F7B533481EF0ADFA324C324E324F1021E9
:101B7000204624F00EFE0028B8BFDD232F48BCBF4E
:101B8000237063701EF09DFA002516F8011B38467D
:101B900001351EF096FA102DF7D129481EF091FA62
:101BA0002849294825F0A0F9284803F0DDFF01461F
:101BB00010B127481EF085FA24882648C4F30E0485
:101BC00021461EF07EFA244B2448CDE90043002331
:101BD00019461A4608F0C0F80146C8B120481EF060
:101BE00070FA204913481EF00DFA78B11E481EF015
:101BF00068FA1E491E48002225F070FB4FF480420F
:101C000000231B48CDE900231EF0E6F803B0F0BD29
:101C1000184A22F010FA014608B11748DFE7174BBF
:101C2000A3F85400A3F8780015481EF04AFAD8E744
:101C30003789020096330020648902004889020037
:101C4000758A020031190000080F00207919000080
:101C5000738802006C89020086330020A6330020BE
:101C600093890200BC0B0020ED890200CD19000011
:101C7000C00E002076330020B289020094020020BA
:101C8000D0890200084B1A691268920448BF80F09C
:101C9000010028B19B68DB6803484FF400511847E6
:101CA0009B681B69F8E700BFE07602000B68013310
:101CB0000B60014B1B68184724030020014B186080
:101CC000704700BF2403002007B50B4600210246E1
:101CD0000191034801A900F0F9F803B05DF804FB95
:101CE000AD1C000030B585B0CDE9010104460025EA
:101CF00001A90548039500F0E9F8DDE902309842B2
:101D0000B8BF255405B030BD9D0002002DE9F84F45
:101D1000B0F8189019F00808044693460DD0012930
:101D20000CBF49F0100949F02009A0F818908BF376
:101D30001188BFF36F8FBDE8F88F09F007090229FA
:101D400007D120461EF0D7F90028F0D00128238BB8
:101D50004ED16769218B002F15DA256821F0070124
:101D6000C4E9008841F0010121830026218B01F0A4
:101D7000070ACA4502D0A368002B5AD10DB9002E1C
:101D800071D0002356E001F007035A1F012A1ED824
:101D900021F00701062B256889B2C4E900880AD121
:101DA0003DB1638B2A46126801339BB2002AFAD1F7
:101DB000638341F00201218320461EF09CF9064610
:101DC0000028D3D0238B43F020032383CDE7042BBB
:101DD0000CD121F0070189B2218320461EF08BF936
:101DE00005460028C1D041F0200121830025BCE731
:101DF000032809D1226923F00703166843F006037C
:101E0000238300252F46B1E7042806D1226923F059
:101E10000703566843F00403F2E7052806D1226958
:101E200023F00703966843F00503E9E700252E46F3
:101E3000E8E7012341F0080121838BF31188BFF308
:101E40006F8FFBB985BB16B11F492046B0474FF0D5
:101E50002003EFF3118B83F31288BFF36F8F238B73
:101E600023F008032383238BDA0625D523F0100300
:101E700023830121B4F8189009F0070900297FF4A1
:101E80005EAF54E7A1680029DCD0D1F80090D1F80A
:101E900004B03B4652462046D847B9F1000FD1D096
:101EA0004946D9F80090F2E729463B46524620467B
:101EB0002D681EF03CF9C5E713F020011EBF23F08A
:101EC000200323830221D5E75B0102002DE9F04FB7
:101ED00091B08B46029092461C4600259AF800006D
:101EE00008B928465FE325280AF1010707D0029BBD
:101EF000594698470028C0F25683013512E218224D
:101F000000210AA820F0B2F99AF80130252B78D0E8
:101F100000221046964694461646394617F8013B6D
:101F20002B2B00F09D8000F29480202B00F09B80F2
:101F3000232B00F09B802EB19DF8306046F0040604
:101F40008DF83060BCF1000F05D09DF8306046F090
:101F500008068DF83060BEF1000F05D09DF83060A6
:101F600046F010068DF8306028B19DF8300040F042
:101F700020008DF830002AB19DF8302042F0400258
:101F80008DF830209DF8302002F04400442803D121
:101F90006FF386128DF830209DF830202A2B42F006
:101FA00080028DF830207BD19DF8312042F0010273
:101FB0004B1C8DF831201A782E2A9DF831200CBF49
:101FC0000121002161F341028DF8312074D15A784A
:101FD0002A2A6AD0013300210A26184610F8012B5C
:101FE000A2F13007092F40F28E809DF830200E912B
:101FF000C2F3400040EAD17161F341028DF8302014
:102000005AE00AF102078DF833309DF83130D907D4
:1020100040F1498154F8049BB9F1000F07DA9DF8AB
:10202000302042F004028DF83020C9F100095A072F
:1020300040F1428154F8048BB8F1000F80F24181E5
:102040009DF831306FF341038DF831304FF0FF3898
:1020500037E12D2B0CD0302B7FF46DAF01225CE7E4
:102060004FF0010C59E74FF0010E56E7012054E7FD
:10207000012652E70CFB0202303A33461E4616F8A0
:10208000010BA0F13007092FF4D9994293D09DF8A4
:1020900030100D92D20F62F341018DF830108AE7B3
:1020A0000B4600224FF00A0CE8E79DF8312042F081
:1020B00004028DF8312002331F4617F8012B6C2AD9
:1020C00041D025D8682A2BD06A2A46D04C2A4CD039
:1020D0001F4617F8012B9DF831308DF83320782AF0
:1020E00000F2D980572A4DD8412A03D0453A022A16
:1020F00000F2D1809DF83230042262F302038DF8A1
:10210000323001239EE006FB01213039034664E7AB
:10211000742A26D07A2ADBD19DF8313006220DE0D0
:102120005A78682A9DF8312006D1012161F3C60250
:102130008DF831209F1CCCE71346022262F3C603C0
:102140008DF83130C5E75A786C2A9DF8312001D1DD
:102150000421EBE713460322F0E79DF83130052216
:10216000ECE79DF831300722E8E7BDF8303023F482
:10217000F04323F0020343F4804343F00203ADF83D
:102180003030A6E7A2F15801202900F2848001A096
:1021900050F821F0592200009722000097220000F9
:1021A000972200009722000097220000972200004B
:1021B0009722000097220000F520000097220000DF
:1021C0005922000019220000F5200000F52000002F
:1021D000F52000009722000019220000972200003D
:1021E0009722000097220000972200006122000041
:1021F000592200007D220000972200009722000053
:102200007D22000097220000592200009722000042
:1022100097220000592200009DF83210012003F09F
:10222000780360F30201402B8DF8321002BF9DF855
:10223000301041F001018DF83010632A31D1003B9C
:1022400018BF01239DF83020C2F340010B4363F314
:1022500041028DF83020D8E69DF832100220DEE7EA
:102260009DF8322003F07803A3F14000032161F3CD
:10227000020243428DF832204341E3E79DF83220C9
:10228000032113F0780F61F302028DF8322014BF9E
:1022900001230023D6E79DF8303043F001038DF889
:1022A00030300023CEE79DF93020002AB4BFDDF89E
:1022B00034904FF0FF39BAE69B077FF5C7AEDDF8E3
:1022C00038809DF831100023CDE90D339DF8323070
:1022D00003F00703012BC1F3C30138D1CB1E042B3C
:1022E00022D8DFE803F003090921210054F8043B58
:1022F000DA17CDE90A3206E0073424F00704F4E8DF
:102300000223CDE90A239DF8303013F0030656D09E
:1023100002983B46524659461EF0BEFA0028C0F2CB
:1023200042810544BA46D9E554F8043B01294FEAF5
:10233000E372CDE90A3205D19DF828300A930023D3
:102340000B93E0E70229DED1BDF92830D0E7022B5C
:1023500023D1CB1E042B13D8DFE803F0030A0A12A3
:10236000120022680A920023201D0B930446CAE73C
:10237000E01D20F00700F0E80223CDE90A23F5E78D
:1023800054F8043B0A9301294FF000030B93D3D078
:102390000229B8D1BDF82830D0E7042B09D1E31DBC
:1023A00023F0070303F10804D3E90023CDE90A234E
:1023B000A9E7032B04BF54F8043B0A93A3E79DF855
:1023C00033007828AED8622822D825283FF48FAD74
:1023D0005828A7D10DF126030093DDE90A0104ABCB
:1023E0000CAA1EF013FA8246B8F1000F0DF1260078
:1023F0000CDB9DF83020A0EB0A036FF386129845A2
:102400008DF8302002D9A8EB03030D9380463DE000
:102410006338152886D801A252F820F09D240000C8
:1024200001250000252300002523000025230000AE
:10243000252300000125000025230000252300009E
:1024400025230000252300005B250000292500002E
:102450002D25000025230000252300007524000001
:102460002523000029250000252300002523000046
:1024700029250000B8F1000FDDF828A00ADB41464D
:1024800050461FF0C2FE0AEB00080026BAF1000F0A
:102490000CD147E750461FF0B1FEF4E70A9B8DF8D8
:1024A000103000260DF1100A0DF11108A8EB0A03F7
:1024B00006B101339DF83220D00668D502335206AA
:1024C0000D9948BF0E9A0B4448BF9B18B9F1000FF5
:1024D00076DD9DF83020A9EB0309C2F38003039356
:1024E00053076DD4500661D546B1029B594630461C
:1024F0009847002857DB039B01351E46302356E0E2
:102500001E070FD413F0100618BF2026DDE90A239A
:10251000002BBFF65FAF524263EB4303CDE90A23C2
:102520002D2657E72B26F1E7002653E70A9840B3FC
:102530000DF1260300930CAA04AB00211EF066F9EE
:10254000BDF8323003F0EF0343F4F04343F01003DF
:102550008246ADF83230002646E70A9B07293FF64F
:10256000E1AEDFE801F00C04060C08080C0C1D704D
:10257000D8E61D80D6E6EA17C3E90052D2E61D6010
:10258000D0E6DFF8C8A006460AF105088EE7110775
:1025900048BF013393E7184603935946029B984777
:1025A0000028039B04DA11B0BDE8F08F20234D44CE
:1025B0004A46002AA5EB090109F1FF39EBDC0D467B
:1025C00036B1029B5946304698470028EBDB01356F
:1025D0009DF83230D90601D41A0706D5029B594618
:1025E000302098470028DEDB01359DF83230DB06CD
:1025F00007D59DF83300029B594698470028D2DB47
:1026000001350D9E2E44731B002B16DC02984346A9
:10261000524659461EF040F90028C4DB0544A9443F
:10262000A9EB0503002B7FF77DAE029B59462020C6
:1026300098470028B7DB0135F2E7029B5946302066
:1026400098470028AFDB0135DDE700BF088A0200AC
:1026500030B51049104889B0002224F03FFE0F4DDC
:102660000F4900220023CDE9062300240E23CDE9E3
:102670000334CDE901440B4B00944FF440722846DB
:102680001CF0F2FA0849284624F085FA204609B0E1
:1026900030BD00BFAD260000380F0020700F0020B5
:1026A000A0390020ED2900000E8A020001481CF02C
:1026B00067BC00BFDC0C00200C4A002310B513706F
:1026C0000B4A13600B4B0C4A1A604FF4004000F0A9
:1026D000B9FC00F06BFA09481EF0F5F8BDE81040AF
:1026E000074908480823482224F00BBAB7330020D2
:1026F0009C1E00202803002005090200A41E0020C3
:1027000028680020AC1E002070B5124BBFF35B8F11
:1027100053E8005F6A1C43E800210029F8D1BFF3A9
:102720005B8F2DB90C4C0D4E361B3611B54200DBBC
:1027300070BD237B53B123689B690BB1204698473A
:10274000636804221968204600F022FA013510342B
:10275000ECE700BFA01E0020647B0200847B020027
:1027600010B54FF02003EFF3118483F31288BFF309
:102770006F8F04481EF0B7F884F31188BFF36F8F92
:1027800010BD00BFA41E002010B5044C237813B95F
:1027900003481CF0F5FB0123237010BDB633002065
:1027A000DC0C0020064BBFF35B8F53E8002F013297
:1027B00043E800210029F8D1BFF35B8F704700BFC9
:1027C0009C1E00200020064BBFF35B8F024653E89F
:1027D000000F43E800210029F9D1BFF35B8F704758
:1027E0009C1E0020F8B5FFF7EDFF0A4C0A4D2D1B8B
:1027F00007462D110026AE4200DBF8BD63685B7909
:102800002BB123681B6913B139462046984701361E
:102810001034F0E7647B0200847B0200164B984280
:1028200037B5044602D3154B984220D314480022F2
:10283000002301A91CF0B8F90546D8B90122019B73
:10284000BFF35B8F53E8001F43E800200028F9D155
:10285000BFF35B8F01982146412204301FF0BCFC7E
:10286000019C7E2384F8453084F846500434204689
:1028700003B030BD034CFAE7E875020018E002002F
:10288000AC1E0020168A020050B1064B984206D3B7
:1028900003F5107398422CBF0020012070470020E0
:1028A000704700BF28680020434B1B782DE9F74F85
:1028B000044603B900B3FFF753FF054678B1BFF3F1
:1028C0005B8F3E4B53E8002F013A43E8002100297B
:1028D000F8D1BFF35B8F9CB128461EF01DF92CB9CF
:1028E000374B1B68002B01DDFFF77CFF35481DF0DF
:1028F000F8FF041E18BF0124204603B0BDE8F08F86
:10290000314B1B78BBB92B7ADB0714D41EF017F9B7
:10291000804628461EF0DEF8014640461DF0F6FFD0
:102920002A4B2B4ADFF8ACA0DFF8ACB09B1A064666
:102930004FEAD30936B9294E294FBF1B3F114FF03B
:10294000000836E0B6FA86F7C7F11F073946284671
:102950001EF0C3F8234B9842024602D3224B984202
:1029600016D31046FFF790FF90B9524510D06989F1
:10297000C1F3891100F0FEF84FEA891343F0010317
:102980000246ADF800303946434658461EF018F866
:10299000012303FA07F726EA0706CBE773685B799A
:1029A00023B1336829465B683046984708F101082F
:1029B0001036B845F2DB8FE7B6330020981E0020B2
:1029C0009C1E0020A41E0020B7330020247B0200A0
:1029D0002C790200168A0200308A0200647B020011
:1029E000847B0200E875020018E0020010B5FFF7D2
:1029F0008BFE1CF0C3FF0C4B186030B10B4B1B68F7
:102A0000092B02DD0A481CF0BBFA094C0020FFF735
:102A10004BFF0028FAD14FF0FF324FF0FF33204632
:102A20001CF0D4FAF2E700BFC81E0020981E002058
:102A3000DC0C0020294B37B51B68418104469847C0
:102A4000E0604FF02003EFF3118583F31288BFF3AA
:102A50006F8F234821461DF03AFF85F31188BFF39D
:102A60006F8FBFF35B8F1F4B53E8002F013243E89A
:102A700000210029F8D1BFF35B8F1B4A127882B185
:102A80004FF02003EFF3118483F31288BFF36F8FAD
:102A90000020FFF709FF84F31188BFF36F8F03B0A5
:102AA00030BD124A1B681268002AF8D0012B0AD1E7
:102AB00000220023CDE900230D484FF400420023FB
:102AC0001DF08AF9EBE70A2BE9D1094824F012FC42
:102AD000084803B0BDE830401CF052BA280300207B
:102AE000A41E0020981E0020B7330020C81E00201E
:102AF000380F0020DC0C0020F8B50E4F3D7875B97A
:102B00000D4C0E4EFFF700FE361B3611B54207DBAB
:102B10000020FFF7C9FE0028FAD101233B70F8BD61
:102B200063685B791BB1236820465B699847013570
:102B30001034EBE7B7330020647B0200847B020093
:102B400007B504380190BFF35B8F50E8003F5A1E71
:102B500040E800210029F8D1BFF35B8F012B03D19E
:102B6000034801A923F0E8FF03B05DF804FB00BFB0
:102B7000AC1E0020044A054B9B1AB1EBD30F34BFA7
:102B800052F83100002070472C790200647B02006B
:102B9000054A4368801A001101300122187119603A
:102BA0005A71FFF7F1BD00BF647B02002023024988
:102BB00002481A4623F0A5BF686A0020CC1E0020F8
:102BC00037B50023094D01930120FFF76DFE044640
:102BD000FFF7E8FD0022002301A928461BF0E4FFCF
:102BE00008B1002CF0D1019803B030BDCC1E0020FC
:102BF00007B50023019307480022002301A91BF019
:102C0000D3FF10B1FFF7DCFF0190019803B05DF82E
:102C100004FB00BFCC1E0020F0B5037A85B0DC07B2
:102C200001901ED4457A2D091BD000242646019818
:102C300031461DF052FF0746FFF726FE70B134B94A
:102C4000019B294618691DF061FE044648B124FA2B
:102C500006F3D90702D53846FFF772FF0136AE42B8
:102C6000E5D3019B1A7A920704D55B69084C03935C
:102C7000039B2BB9064801A923F05EFF05B0F0BD08
:102C80001D6803A9204623F057FF0395F0E700BF16
:102C9000CC1E00200EB403B503AB014653F8042B41
:102CA00004480193FFF712F902B05DF804EB03B09A
:102CB000704700BFF70E02002DE9F0471D46089B44
:102CC0001746DA0604460E4605D499064CBF2A4933
:102CD0002A49FFF7DFFFDFF8A8904FF00008A8456A
:102CE0002ADBDFF8A080DFF8A090DFF894A00025B1
:102CF000BD422FD2725D49462046FFF7CBFF01351A
:102D0000102D20D12149DFF87880DFF8849020460B
:102D1000FFF7C0FF0025AF4228D9725DA2F1200362
:102D20005F2B28BF2E2249462046FFF7B3FF01350F
:102D3000102D14D1BDE8F08749462046FFF7AAFFC1
:102D400008F10108CBE76A07D2D151462046FFF7C8
:102D5000A1FFCDE741462046FFF79CFFCFE76B0779
:102D6000D9D141462046FFF795FFD4E7414620469A
:102D7000FFF790FFDBE700BF758A0200748A02004C
:102D8000798A0200778A0200668902007B8A020043
:102D90007D8A02002DE9F04F87B011F002060592FE
:102DA0009DF84080BDF9489007461A4601F0010A97
:102DB00001F0080506D011F0440F38D13349FFF770
:102DC00069FF0646BAF1000F0AD0314B314953F87A
:102DD0002820314B3846002A08BF1A46FFF75AFF11
:102DE0003DB12E4B2E4953F828203846FFF752FFAD
:102DF0000546B9F1000F16DB059B002B43D00123DC
:102E000003FA08F8274B284C18F0100F18BF1C467F
:102E100049469DF84400FFF7ADFE2146024638467C
:102E2000FFF738FF0544A81907B0BDE8F08F1F4B26
:102E3000196831B31E4B4FF461661B68B2FBF3F3A4
:102E40004FF47A7BB3FBF1F4B4FBF6F206FB1246C7
:102E500001FB14340BFB04F44FF03C0CB4FBF1FE0B
:102E6000B6FBFCF301FB1E440CFB13660BFB04F4E6
:102E70000096B4FBF1F1CDE901E10E49FFF70AFF3D
:102E80009FE708469DE7084CC2E700BF8E8A020014
:102E90005C7D020011CB0200808A0200707D02007E
:102EA000B38A02008A8A0200858A0200E81E002096
:102EB000EC1E0020978A020038B50C46E107054653
:102EC00003D5084A0849FFF7E5FEE20608D4A30641
:102ED00028464CBF05490649BDE83840FFF7DABE31
:102EE00038BD00BF808A020011CB0200758A020043
:102EF000748A02002DE9F0478B7A13F007088AB034
:102F000005460E46174622D00A7A4989C3F3C20302
:102F1000C1F38911D243CDE900830291F36802F035
:102F200001023946FFF736FF8146347AE44314F054
:102F300001040ED0294630461DF073FEB8F1000F93
:102F40002BD0424639462846FFF7B6FF25E0C1465A
:102F5000EBE7B8F1000F26D12746EB68069306AAE7
:102F60003B46A96830461DF048FE069A6B681A6019
:102F70003AB1AB68134413F8014CA4F10A035C4264
:102F80005C4128461DF0AAFF069B1F44002BE4D19C
:102F90001CB114492846FFF77DFE28460AB0BDE85B
:102FA000F0471DF09BBF30461DF0C9FD0E4902469B
:102FB0002846FFF76FFE4FF0100A05AA234606A920
:102FC0003046CDF814A01DF018FE059A002AB8D09E
:102FD0004B46009706A92846FFF76EFE059B1C444A
:102FE000EBE700BFB98A020011CB020073B542F2D1
:102FF0000F738B4228BF0B4605680F4A0446052114
:1030000068461DF06BF863680C495B6806460B2246
:1030100028461DF0F9FD63683246694628465B681C
:103020001DF0F2FD636806495B681B2228461DF00F
:10303000EBFD02B070BD00BFABC10200F38A02001D
:10304000D78A0200084A10B50123084C13600021FA
:10305000A04204D801B11360054B186010BD4008B0
:103060005B000121F4E700BFEC1E002040420F008E
:10307000E81E0020F8B5074F0D4604464618B44236
:1030800001D12846F8BD386814F8011B83685B68D5
:103090009847F4E7041F0020014B024A1A6070476A
:1030A000041F00209876020001481DF017BF00BFE2
:1030B000A07D02000148FFF799BF00BFA07D02007C
:1030C00010B508460C461DF0F8FC054821460F22B5
:1030D000FFF710FF2046BDE810401DF01DBD00BFEA
:1030E000A07D0200014B01221A707047C9330020F5
:1030F000024B034801221A701DF0F0BECA330020B3
:10310000CC7D02000148FFF771BF00BFCC7D0200FB
:1031100010B508460C461DF0D0FC054821460F228C
:10312000FFF7E8FE2046BDE810401DF0F5BC00BFEB
:10313000CC7D0200054B1B781BB141F2883024F096
:103140009EB8A42000211CF0FFBB00BFCA330020A2
:103150002DE9F047DFF88C90DFF88CA080460F4611
:10316000042499F80050CDB94FF0FF334FF0FF32EF
:1031700050461BF017FE3A46414628461BF006FB18
:10318000064650461BF086FE184DFEB101232B70FB
:1031900099F800306BB93846BDE8F0873A464146A9
:1031A00000201BF0F3FA0646EEE75CB92C704FF0F6
:1031B000FF3400201BF036FB0028ECD02B78002BCE
:1031C000F3D1E8E7013CFFF7B5FFF2E72B7813B145
:1031D000013C04D12C702B78002BC2D1DBE7FFF728
:1031E000A9FFF8E7CA3300209C0C0020C933002057
:1031F00030B585B000230546CDE9023301904FF08C
:10320000FF330C484FF0FF321BF0CCFD0A4B1C681B
:1032100034B1636820461B6801A998472468F7E722
:10322000284600F00BF8044602481BF033FE204607
:1032300005B030BDB00C00201C1F0020F8B51A4CA2
:103240001A4F06460025BC4206D3194B1C680CB128
:10325000143C9CB92846F8BD1EB9E3684BB9143438
:10326000F1E72068002231461DF063FE0028F4D10A
:10327000F5E79847002D08BF0546F0E736B9E36843
:1032800063B914F1140FE5D06469E0E72068002207
:1032900031461DF04EFE0028F1D1F2E79847002D8F
:1032A00008BF0546EDE700BF187902002C7902003F
:1032B000241F0020F8B505464FF02003EFF31186D8
:1032C00083F31288BFF36F8F094B1C685CB1094F01
:1032D000D4E90132002D08BF13460BB13878984766
:1032E0002468002CF4D186F31188BFF36F8FF8BDEA
:1032F0002C1F0020341F00201FB50F4B1A68BAB9CD
:1033000001221A600D4A07CA01AB83E807000C4A84
:103310004AB193E807001EF0C8FF002005B05DF831
:1033200004EBFFF7C7BF82F31188BFF36F8FF4E799
:1033300005B05DF804FB00BF2C030020341F002003
:10334000AB220200F0B589B06E4601460546304614
:103350001DF012FE96E80700174C84E8070020785D
:10336000274638B3154B002119606B1C0DD014484B
:1033700016464FF4004C134A0023E6FB0C01FCF701
:10338000BFFE0121281A23F05AFF1CF05FF801202C
:10339000FFF790FF97E8070005AB83E807000A4AAC
:1033A0001AB193E807001EF06DFFFFF7A5FF1CF0B0
:1033B0001BFA207809B0F0BD341F00202C03002038
:1033C0003F420F0040420F0085220200014B186867
:1033D000704700BF30030020F0B5082289B01DF00F
:1033E00087FFCB6A03930B6B04934B6B05938B6B3B
:1033F0000693CB6B079313466A460C460646002796
:1034000011461046CDE9017700971DF07EFE31464A
:10341000054630461DF079FE216B0391616B0491E6
:10342000A16B0591E16B0544CDE9061710461146E5
:103430001DF06BFE3146054430461DF066FE054426
:10344000206A0090606A0190A06A0290A06B0690CA
:10345000E06B07903046CDE9047703971DF055FEE9
:103460000544606A0090A06AD4F838C00190E06A10
:103470000290CDF810C0606BD4F83CC00390CDE949
:1034800005C0206A079030461DF03FFE0544E06A03
:103490000090206B0190606B0290206A0690A06AF9
:1034A00007903046CDE9047703971DF057FF236B53
:1034B0000093636B0193A36B0293E36B0393636AC3
:1034C0000693E36A07932D1A08233046CDE9047763
:1034D0001DF044FF636B0093A36B0193E36B0293B6
:1034E000236A0393636A0493A36ACDE90537236BC8
:1034F00007932D1A082330461DF030FFA36B00936D
:10350000E36BCDE90137636A0393A36A0493E36A2B
:10351000CDE90537636B07932D1A082330461DF05C
:103520001DFF2D1A10D40D4C35B908223146204606
:103530001DF0EAFE01280FD008232246314630460E
:103540001DF00CFF2D1AEFE7044A082331463046E0
:103550001DF0DBFD2D18F8D409B0F0BDE07D0200B0
:103560000449431E0F3013F8012F8A5C1A708342FE
:10357000F9D17047368B0200F0B5264E07460C464F
:103580000FCE8DB001AD0FC50FCE0FC596E8070069
:1035900085E807003846002F38D0002C38D0381F77
:1035A0002146024610344B780D781B0443EA05632C
:1035B000CD782B438D78043143EA05238C4242F8C1
:1035C000043FF0D1144C04218A07036916D1C3F3D8
:1035D0000742A55C1A0EA25C42EA0562C3F3072506
:1035E000DBB2655DE35C42EA054242EA032221F078
:1035F000030330336B4453F82C3C534050F8042FF2
:10360000013153402C290361DED101200DB0F0BD02
:103610002046FBE7C07B0200368B020001491022E6
:103620000A60704710ED00E072B6404080F31188E8
:10363000BFF36F8FBFF34F8F30BF62B6BFF36F8F93
:10364000704700BF72B6494081F3118820BF80F3F4
:10365000118862B6704700BF73B506460C4601B3C9
:10366000134B144D1448ED1AED08AD0145F001055A
:10367000ADF80050D1E9012309681DF0A1F9ADF8BA
:103680000050D4E90423E1680C481DF099F9E16980
:103690000B482A461DF067F9A1690A482A461DF021
:1036A00062F92146304602B0BDE870401BF026B9F1
:1036B0002C7902003C7B0200368C0200658C0200F3
:1036C000948C0200A38C020043B2002B08DB012281
:1036D00000F01F0002FA00F05B09024A42F82300E2
:1036E000704700BF00E100E043B2002B0DDB012278
:1036F0005B0900F01F0002FA00F02033034A42F891
:103700002300BFF34F8FBFF36F8F704700E100E0DE
:10371000054B420900F01F0053F82220012303FA51
:1037200000F01040704700BF00E100E043B2002B02
:10373000A8BF03F1604301F10101B8BF064B4FEA96
:103740004111ACBF03F5614300F00F00C9B2B4BF33
:10375000195483F80013704714ED00E008B572B6F1
:10376000044B986918B100229A6123F01BFA62B6E3
:1037700008BD00BF9C32002030BFFFF7FDBF00BF77
:103780000F4A08B50F4B22F07F029A60BFF34F8FAC
:10379000BFF36F8FD3F8882022F47002C3F888201B
:1037A000EFF3148323F0040383F31488BFF36F8FC4
:1037B0001BF048F91CF05CF900F016FB1BF04CF90B
:1037C0000000000000ED00E0094A0A49936809681A
:1037D000D967094998674B6843F080534B600023D1
:1037E00083F31188BFF36F8F9368D86F704700BF62
:1037F0009C320020F487020000ED00E012498A6844
:103800004FF030001044EFF3098C80E8F01F2020C7
:1038100080F31288BFF36F8F0C4F4FF00066CA69B8
:103820008A603E60906F0023936780F3118804B52F
:10383000104600F01BFBBDE8044002F1300090E8A8
:10384000F01F8CF3098870479C32002004ED00E0E3
:103850001EF0040F0CBFEFF30880EFF309808169BD
:1038600011F8021C0229FFD001B51EF09CFC01BD1D
:1038700042F8203C009B42F81C3C0A49019B42F85C
:10388000183C029B42F8143C21F001014FF0807378
:1038900042F8043C42F8081C0023203A0265836782
:1038A000704700BF97020200094A0346906870B152
:1038B00013F1160F806E05D0A0F120029A4205D8B0
:1038C000834203D2814228BF002070470020704706
:1038D0009C32002008B5094B98600D46144600F054
:1038E000C5FA204685F30988002163B681F3118863
:1038F000BFF36F8F002200231CF0CDFC9C32002010
:1039000001B572B60B4A906900281EBF0021916173
:1039100023F048F962B6EFF30580A0F110004FEAFA
:10392000C0000549014409C99847BDE80140034961
:10393000084700009C32002028770200413900002F
:10394000044B9968D869884203D003494FF08052EC
:103950000A6070479C32002004ED00E02DE9F0473A
:10396000354B364C364DE41AE408A40144F0010905
:10397000074688463348494616461CF0E7FFAB6ABF
:10398000DB0603D5304849461CF0E0FFAB6A180758
:1039900004D52E4844F001011CF0D8FF284DAB6A35
:1039A000990723D46FF01509254DAB6ADB0704D5C1
:1039B000274844F001011CF0C9FFAB6A980604D502
:1039C000244844F001011CF0C1FF1D4B9A6AD10646
:1039D00024D49A6A920721D40020194A936A43F0AA
:1039E000FF03936200233370BDE8F08744F0010ABF
:1039F000194851461CF0AAFFD5F83490AB6A1A0654
:103A0000D0D51648524649461CF0ADFFB8F1000F1C
:103A1000CAD0AB6A23F08003AB62C5E75B681B05C5
:103A2000DAD539464846FFF73FFF0028D4D080F367
:103A300009880220D1E700BF2C7902003C7B0200FC
:103A400000ED00E0D18C0200E78C02001A8D02002C
:103A50005B8D02007A8D02002D8D0200458D0200E3
:103A600070B5234B234C244D2448E41AE408A401E8
:103A700044F0010631461CF069FFAB6A9B0103D597
:103A80001F4831461CF062FFAB6ADD0104D51D48BA
:103A900044F001011CF05AFF174DAB6A180304D51E
:103AA000194844F001011CF051FFAB6A590304D5D9
:103AB000164844F001011CF049FF0F4DAB6A9A0310
:103AC00004D5134844F001011CF040FFAB6ADB034E
:103AD00004D5104844F001011CF038FF064A936AEF
:103AE0006FEA03436FEA13439362002070BD00BF87
:103AF0002C7902003C7B020000ED00E0A98D020061
:103B0000C18D0200D48D0200EE8D02000C8E0200E9
:103B1000318E02004B8E02002DE9F0412A4B2B4CD6
:103B20002B4DE41AE408A40144F0010807460E46B0
:103B3000284841461CF00AFFAB6AD90403D5264841
:103B400041461CF003FFAB6A1A0504D5234844F034
:103B500001011CF0FBFE1E4DAB6A9B0512D544F023
:103B600001081F4841461CF0F1FEA96BAB6A18041E
:103B700008D51C4842461CF0F6FE1FB1AB6A23F480
:103B80000043AB62124DAB6A590504D5164844F0A8
:103B900001011CF0DBFEAB6ADA050DD5134844F0D9
:103BA00001011CF0D3FE0A4A936A002043F47F43CC
:103BB00093623070BDE8F081AB6A9B04F3D50C488A
:103BC00044F00101EDE700BF2C7902003C7B0200CC
:103BD00000ED00E0768E02008C8E02001A8D02004D
:103BE0009D8E0200B68E0200CB8E0200E68E020091
:103BF0007A8D02002DE9F043654B5E688BB00D466F
:103C0000C6F30804002787F31188BFF36F8F02F013
:103C10007F43B3F17F4F0DD102F00C03082B0BD182
:103C20005C495D4B5D48C91AC908890141F0010131
:103C30001CF08CFE3D4603E0120701D40546012727
:103C400000238DF80730E31E092B00F28880DFE89F
:103C500003F00575797286868686867D4E4A4D4EBE
:103C6000DFF82C814E48B61AF608B60146F0010678
:103C700031461CF06BFED8F82C404FF0000914F0D0
:103C800002048DF8079005D0464831461CF05EFED0
:103C9000002407E0D8F82C30002B1DDA42483146CA
:103CA0001CF054FE9DF807309BB92022294602A83B
:103CB0001EF0D1FA099B002F65D0C3F3080222B988
:103CC0006FEA53236FEA4323099302A92046FFF7C3
:103CD000C3FC0BB0BDE8F083D8F82C305B00E1D515
:103CE000324831461CF032FEAB6933F8022C4DF6F7
:103CF00002739A420AD098F8283073B10DF1070286
:103D000001212846FFF72AFE0446CBE72968284808
:103D100032461CF028FE2C68C4E798F829302BB1F5
:103D20000DF107010120FFF7F7FEEDE7B8F82A30A3
:103D30009BB2002BB6D0FFF793FEE5E70DF107022B
:103D40000021DEE70DF107010020ECE71149124BDD
:103D50001848C91AC908890141F0010196E70E4ABD
:103D60000C4B154815499B1ADB0816F4F87F4FEAEF
:103D7000831318BF014643F001031148A4F1100258
:103D80001CF005FE84E723F4FF7323F001039BE797
:103D900000ED00E03C7B02002C790200FE8E020068
:103DA000298F0200408F0200618F02006F8F020096
:103DB0008E8F0200AA8F0200E38F0200CE8F0200D6
:103DC000FC8F0200024A536943F0100353617047AD
:103DD00000ED00E0EFF30880EFF3098101B57246D2
:103DE000FFF708FF01BD00BF044800232021C218CF
:103DF0000133302B82F80013F9D1704700E100E065
:103E000023F0ECFB202080F3118808484FF4026176
:103E1000401880F30988EFF314800221084380F3EF
:103E20001488BFF36F8FFFF7ABFC0000A056002093
:103E3000064B9B68834207D1EFF3058323B1044A05
:103E4000536843F0805353601BF0AEBD9C3200209A
:103E500000ED00E0024B034A0348012100F08CB85A
:103E600000000420000000208C7E0200826E054BC2
:103E7000203A1A60044A2021C3E9011218460121A0
:103E800000F084B8401F002000000B15F8B52A4F41
:103E90000E460021B14214DA4468002C48D0C3B168
:103EA00004F1FF3C14EA0C0F0DD0244A244B2548A2
:103EB000D21AD208920142F001021CF054FD6FF0B8
:103EC00015021046F8BD1F2CEFD905681CEA050F36
:103ED000EBD1202CD5B2D0F808C0026816D9B4F1C5
:103EE000004F15D8013CB4FA84F4C4F11F046400F7
:103EF000072D4CEA04040DD9104A114B1248D21A6E
:103F0000D208920142F001022946D6E70824EFE7E1
:103F10003E24EDE722F01F022A4342F0100244F053
:103F20000104C7F89850C7F89C20C7F8A0406A1C45
:103F300001310C30AEE700BF00ED00E02C7B020049
:103F40002C7902001390020036900200044B0522E7
:103F5000C3F89420BFF34F8FBFF36F8F704700BF3C
:103F600000ED00E0BFF35F8F024B0022C3F8942006
:103F7000704700BF00ED00E010B5034C012322782C
:103F8000FFF784FF207010BDCB33002008B5094A2D
:103F900000231278FFF77AFF10F1160F03D0064BBB
:103FA0000022072800DD08BDC3F89800C3F8A02050
:103FB0000130F6E7CB33002000ED00E0144908683B
:103FC000082810B521D8FFF7CDFF124C4968002210
:103FD000904201F10C0105D10F4B1870FFF7B6FFAD
:103FE000002010BDC4F8982051F80C3C23F01F03AA
:103FF000134343F01003C4F89C3051F8043C43F0E1
:104000000103C4F8A0300132E2E74FF0FF30E8E7E7
:10401000987E020000ED00E0CB330020014B1860D9
:10402000704700BF340300204FF02003EFF31182EC
:1040300083F31288BFF36F8F06490123C1F840351F
:104040004FF08041C1F8783582F31188BFF36F8F4C
:104050000020704700E0014020B1034B800143F095
:1040600001031847704700BF807C02000E4B4029B7
:1040700070B528BF40210D4C46181D46B04203F1D3
:10408000020304D1002305F81130074870BD0278FF
:104090001209A25C03F8022C10F8012B02F00F02A7
:1040A000A25C03F8012CE9E70F340020B490020071
:1040B00030B503788BB0044607AD032B21D8DFE879
:1040C00003F0021A1C1E124928461EF07BF8637882
:1040D0000493A3780393E37802932379019363799C
:1040E00000930C4AA37905951E210B481BF0F6FF9F
:1040F00009480BB030BD0949E6E70949E4E7094939
:10410000E2E7094A0A2128461BF0E8FFDFE700BF83
:104110006F90020091900200F1330020769002002F
:104120007D9002008790020082CB020010B5034C04
:104130002522214600F004FA204610BDCC33002091
:1041400070B5214CBFF35B8F2368BFF35B8FDA0739
:1041500006460D4601D50C2070BD012931D8BFF3AC
:104160005B8F54E8003F43F0020244E8002100293D
:10417000F7D1BFF35B8F9B07EDD4144831461EF097
:10418000C3F8134806F120011EF0BEF8BFF35B8FA1
:1041900075B154E8003F43F0040344E80032002ABC
:1041A000F7D1BFF35B8F0B481AF0EAFE0020D3E78C
:1041B00054E8003F23F0040344E80032002AF0D022
:1041C000F6E71220C8E700BF4C1F0020B0340020E3
:1041D000D0340020C40C00202DE9F0476A4B6B4D11
:1041E000DFF8AC81DFF8AC91ED1AED0847464FF0EF
:1041F000FF324FF0FF3348461AF0E8FEBFF35B8F03
:10420000D8F80040BFF35B8F14F001045AD0DFF8F8
:1042100088A1624C624E6348524621461CF0C9FE9A
:10422000E8BBA901604841F001011CF08FFB4FF091
:104230001F0A4FF0FF324FF0FF33012000F0DEF98C
:1042400000F1080602210446304622F0CEF83E2353
:104250000370422343700121304622F0C6F8082340
:1042600003704121304622F0C0F8064600F801AB49
:10427000BAF1000F1DD0402200211DF0F7FFBFF35F
:104280005B8F57E8003F23F0010347E80032002A24
:10429000F7D1BFF35B8F204601F0EAF8A7E72022B1
:1042A000314620461DF0C6FF0028B4D04FF0000A6A
:1042B000BFE73C491EF028F8203106F121001EF02E
:1042C00023F8DCE7BFF35B8FD8F80030BFF35B8FD8
:1042D0009B078CD5304933481DF030FD011E38DA7C
:1042E000AA01324842F001021CF03DFB4FF0FF32C0
:1042F0004FF0FF33012000F081F900F1080A02219C
:104300000646504622F071F83E2303702223437084
:104310000121504622F069F80923037021215046FB
:1043200022F063F8034601303CBB1F221A70FF21C4
:1043300020221DF09BFFBFF35B8F57E8003F23F067
:10434000020347E80032002AF7D1BFF35B8F304603
:10435000A2E71249BFF35B8FD8F800301048BFF3D3
:104360005B8F13F0040F01F120020B4B18BF0146C5
:1043700010461CF06DFE0446B8E7002209491A7089
:104380001DF0C2FFD7E700BF2C790200247A02009B
:104390004C1F0020C40C0020B87E02009034002086
:1043A00021910200B0340020C5900200EE9002007E
:1043B00070B5067D044676B983681D8842F22602F0
:1043C000954245D00FD842F2010295424FD042F2B9
:1043D00025039D4213D02A4BD3F84C3120461B694C
:1043E000BDE87040184742F25E039D42F3D10321BD
:1043F000083022F075F8A06890F840102EE00321F4
:10440000083022F06DF8204618F092FCBFF35B8F65
:104410001C4B1A68BFF35B8F920707D50C263146F9
:1044200042F225001DF04CFF002070BDBFF35B8FF2
:1044300053E8002F42F0010143E800100028F7D1B3
:10444000BFF35B8FD307E9D40F481AF099FDE6E775
:104450000321083022F044F8A0683146FFF770FECF
:104460000646204618F064FC31462846DAE7DA783A
:1044700002F07F02DA701A7922F001021A71AAE7BB
:10448000800000204C1F0020C40C002010B588B014
:104490000C4C0D4900220023CDE9062300230A22FB
:1044A000CDE90323CDE9013300934FF48F62074B2D
:1044B00020461AF0D9FB0649204608B0BDE8104056
:1044C00022F069BBF00F0020C03C0020D941000061
:1044D0000F91020030B4034608461A78012A13D01F
:1044E000022A26D072B9154A02F1100452F8045B70
:1044F00041F8045BA242F9D15B8812780A704373D9
:104500001B0A837330BC70470C4A02F1100452F846
:10451000045B41F8045BA242F9D15B6812780A702F
:10452000C3F3072243731B0CC3731B0A8273037408
:10453000E8E730BC112219461DF08DBE69910200DA
:10454000F0B50578012D8BB004460E4617460CD009
:10455000022D0DD0002D44D14388254A39463046DE
:104560000BB0BDE8F0401BF0B9BD4368214AF5E748
:104570002A46411C06A81DF06EFEE11C042208A874
:104580001DF069FE2A46E11D0DF11A001DF063FEC3
:104590002A4604F1090107A81DF05DFE2A4604F130
:1045A0000B010DF11E001DF056FE04F10D01042259
:1045B00009A81DF050FEBDF818300493089B039322
:1045C000BDF81A300293BDF81C300193BDF81E30BF
:1045D0000093094A099B394630461BF07FFD0BB01A
:1045E000F0BD002130460BB0BDE8F0401DF03EBEEE
:1045F00079A10200608C02004C91020038B505469A
:10460000054821F03CFE044620B10021083021F08D
:104610005BFE2575204638BD440E00200B460B4935
:104620000246D1F8300110B520B9BDE81040012094
:10463000FFF7E4BF21F0A1FE012300210375818172
:104640000446083021F040FE204610BD80000020C6
:1046500070B504460F2C0D461046194605D80D2C92
:1046600012D9BDE87040FFF7D9BF132C0CD10B480D
:1046700021F005FE044628B10021083021F024FE77
:1046800001232375204670BD02460B460DB1044838
:10469000EEE7BDE870400120FFF7B0BF940E0020A8
:1046A000A40D002070B50B4D06460FCD8EB001ACA9
:1046B0000FC40FCD0FC40FCD0FC40C2E2B68236079
:1046C0009BBF0EAB03EB8606034856F8340C0EB0C6
:1046D00070BD00BFEC7B0200709202000549064AE3
:1046E00083680648521AD2089201197842F00202F1
:1046F0001CF039B92C7902001C7A02007892020071
:1047000038B583681A7872B9B3F80140204602F0D0
:10471000D9FD054640B9084B1A8822B96FEA045002
:104720006FEA1050188038BD012102F0D3FD2846F1
:10473000BDE838401EF072BADE320020F8B5856858
:104740002E78EEB9B5F80170384602F0BBFD04468C
:1047500060B90C4B0C4A0D48D21AD2089201394666
:1047600042F00102BDE8F8401CF0FDB8EB7843725E
:10477000314602F0AFFD2046BDE8F8401EF04EBACB
:10478000F8BD00BF2C7902001C7A0200A092020042
:1047900008B50121083021F0ABFE064B064A01782E
:1047A0000648D21AD2089201BDE8084042F0010240
:1047B0001CF0D9B82C7902001C7A0200C6920200C3
:1047C00010B50A4A0A4C81898068A41AFFF74EFC8A
:1047D000FEF724F8E408A40144F00204014622464E
:1047E0000448BDE810401CF0BEB800BF2C790200A0
:1047F0001C7A0200E892020013B50D4C0146052216
:1048000094F8670002F060FF78B90A4B586B1A8F72
:10481000009093F83A30ADF8042094F867008DF8D2
:1048200006300422694602F04FFF02B010BD00BFFF
:1048300080000020EC7B020073B502EBC303054649
:1048400008461178A9421AD008329A42F9D18689CD
:10485000164B174C80683146E41AFFF707FCFDF74A
:10486000DDFFE408A40144F002040346ADF8004073
:104870001048324629461CF0A3F802B070BD818969
:1048800053788B420DD9094A094B0B489B1ADB0818
:104890009B0143F001032A4602B0BDE870401CF0C2
:1048A00076B8536802B0BDE8704018472C79020012
:1048B0001C7A02002E9302000C93020010B5012115
:1048C0000446083021F014FE2146034A0078BDE872
:1048D00010400823FFF7B0BF987F02002DE9FF4189
:1048E00007469079DFF824810E46144618F062F9E5
:1048F000804516D0464B474DA0790097ED1AED083C
:10490000019018F057F9AD0145F00205CDE9020814
:104910002B464148042269461CF06EF804B0BDE8FD
:10492000F081204618F04EF93C4D4FF00C0808FB82
:1049300000504388BB4214D0354B364E2046F61A01
:1049400018F040F9F60808FB0055B60146F00206DB
:104950006A8833483346394604B0BDE8F0411CF05C
:1049600016B8304FD7F8300120B118F0E1F9002324
:10497000C7F83031204618F025F90C2707FB005006
:104980004368E3B1DEB9204618F01CF907FB00507C
:1049900001224068D0E90031007A01F01F07BA40D7
:1049A000490928B3BFF35B8F03EB810353E8001F72
:1049B000114343E800100028F8D1BFF35B8F204675
:1049C00018F000F90C2707FB00508368002BA5D0D6
:1049D000204618F0F7F878432E54204618F0F2F8E5
:1049E00007FB0055A86804B0BDE8F0411AF0C8BA4A
:1049F000D24303EB8103BFF35B8F53E8001F1140E9
:104A000043E800100028D8D0F7E700BF1C0E0020B4
:104A10002C7902001C7A020050930200501F0020E3
:104A2000859302008000002038B504210446083038
:104A300021F05EFD4578017840882246FFF74EFF61
:104A400025B10348BDE838401AF09ABA38BD00BF16
:104A50009801002038B503210446083021F048FDB4
:104A6000A36805781978B0F801002246FFF736FFF1
:104A700025B10348BDE838401AF082BA38BD00BFFE
:104A8000980100202DE9F84F514D524BDFF8489125
:104A9000DFF848A1ED1AED08D9F80C3050486FF353
:104AA0005233C9F80C3002F0CFFB471C4A484FF094
:104AB000FF324FF0FF3339461BF0DEF960B1494950
:104AC000494840F6891352461BF0FBFA404080F3F8
:104AD00011884FF0030002DF444EDFF8FC8006F53A
:104AE0008C7B17B91AF0A8FED6E7D8F80C10C1F3E2
:104AF0004531012959D9042963D198F80C30002B8C
:104B000057D13B480022002321F0BEFB044660B988
:104B1000384935484FF4126352461BF0D2FA4040F0
:104B200080F311884FF0030002DF4FF0FF334FF0A6
:104B3000FF3258461AF04AFAD6F8303163B1A9016B
:104B40002D4841F001011BF001FFD6F8300118F0AB
:104B5000EFF80023C6F83031204621F00EFCC6F8ED
:104B600030012046FFF724FC0146F0B1AA0123489A
:104B700042F001021BF0F7FE21481AF001FA20462C
:104B800018F020F81F4B0C2202FB00301F21408838
:104B90002246FFF7A3FED6F8300118F0C9F800232B
:104BA0002046C6F8303118F0C3F808F11408013F68
:104BB00097E7012BF9D1D8F81000383802F0B0FE91
:104BC000F3E7AA01104842F002021BF0CCFEECE72A
:104BD0001C7A02002C79020038030020B8930200EE
:104BE0004C030020EC930200F593020080000020AB
:104BF000B40100207D910200129402002D94020065
:104C000098010020501F00204F9402002DE9F84F1A
:104C1000394D3A4BD0F80880DFF8E4A0ED1A0026B1
:104C2000ED08B14698F800309E4201DBBDE8F88FF0
:104C300008EB8603B3F801B0B3F80370584602F0EE
:104C400041FB0446D8B100F1280B002F33D04FF0C0
:104C50002003EFF3118283F31288BFF36F8FE369B0
:104C6000B3B1013BE36182F31188BFF36F8F20463C
:104C700002F0C8F9013F1AF083F9BFB2E5E7AA01D3
:104C8000204842F0010259461BF06DFE0136C9E78B
:104C900063692BB1A169186860618B4208BFA0618C
:104CA00082F31188BFF36F8F4BB9A90141F0010165
:104CB00050461BF04BFE20461DF0B0FFE6E74FF0DC
:104CC0002002EFF3118182F31288BFF36F8FDA684D
:104CD000E261626AC3F80C90C3F800904AB9C4E973
:104CE000083381F31188BFF36F8F58461AF0B4FA76
:104CF000BDE713606362F4E71C7A02002C790200BE
:104D00008C9402007094020073B58568B5F8016058
:104D1000304602F0D7FA044668B9294B294A2A4896
:104D2000D21AD208920142F00102314602B0BDE827
:104D300070401BF018BE2B78CBB92A79EB7843EA88
:104D40000223A0F89E30AA796B7943EA0223A0F8E7
:104D5000A430EB792A7A43EA0223A0F8A63002F0C5
:104D6000CFFB204602B0BDE870401DF057BF1A2BA4
:104D7000F7D1C378012BF4D1BFF35B8F031D53E848
:104D8000002F42F4806143E80015002DF7D1BFF3F6
:104D90005B8F5305E5D4B4F8A030ADF80030B4F81B
:104DA000A230ADF80230B4F8A830ADF8043069464E
:104DB000B4F8AA30ADF8063002F0A8FFD1E700BF82
:104DC0002C7902001C7A0200A394020010B5C1E9FC
:104DD00000239DF808300B720C4617F0F3FE034BCE
:104DE0000C2202FB00335C6010BD00BF501F00208E
:104DF0002DE9F0474FF0FF324FF0FF3306461748DA
:104E0000174D0F4621F03BFA044600F1080A002135
:104E10004FF00008504621F057FA84F814802046DD
:104E200017F0D0FE4FF00C0909FB005046802046D9
:104E300017F0C8FE09FB0050C0F80880204617F0A4
:104E4000C1FE09FB00550321C5F80480504621F03E
:104E5000CCFA877006802046BDE8F0871C0E002043
:104E6000501F002038B505460C4619B9FFF7C0FFA2
:104E70000446F0B140F635439D4214D12046FFF779
:104E800097FA054668B10C4B0C4AD21AD208920127
:104E9000014642F001020A481BF065FD204617F06A
:104EA00047FF284638BD0748214621F059FA00251A
:104EB000F7E76FF06805F4E72C7902001C7A02002E
:104EC0002D940200B401002070B506460D4642F252
:104ED00021000321FFF78CFF044658B90C490D4B04
:104EE0000D48C91AC9088901BDE8704041F00101A7
:104EF0001BF02CBD0321083021F077FA8570068065
:104F0000214642F22100BDE87040FFF7ABBF00BF71
:104F10001C7A02002C790200C7940200F7B583685E
:104F2000D9789A781F8842EA0122ADF80020597991
:104F30001A7942EA0122ADF802209A79D97942EA37
:104F40000122ADF804201A7A5B7ABCB242EA03234C
:104F50002046ADF8063002F0B5F9064680B9204B80
:104F6000204A2148D21AD2089201214642F0010279
:104F70001BF0F9FC02212046FFF7A6FF03B0F0BDAD
:104F8000694602F009FB38B91E212046FFF79CFF55
:104F900030461DF043FEF1E70E2142F22000FFF7FC
:104FA00027FF05460028F3D00E21083021F01DFA16
:104FB0000E22044600211DF059F9BDF8003063802F
:104FC000BDF80230A380BDF80430E380BDF80630A0
:104FD00027802381294642F22000FFF743FFD7E7CD
:104FE0002C7902001C7A0200A394020038B5837A5F
:104FF000072B044621D1BFF35B8F4368BFF35B8F60
:105000009A041AD4C37823B10C4B93F8D0301B0701
:1050100013D5022142F21600FFF7EAFE054660B101
:105020000221083021F0E1F923880380294642F269
:105030001600BDE83840FFF715BF38BD80000020DE
:1050400070B58568B5F80160304602F03BF904465A
:1050500060B9144A144B1548D21AD208920131464D
:1050600042F00102BDE870401BF07DBC2B7823B9F3
:105070000822E91CAC301DF0EEF8BFF35B8F231D56
:1050800053E8002F42F4005243E800210029F7D1F1
:10509000BFF35B8F2046FFF7A9FF2046BDE87040B5
:1050A0001DF0BCBD1C7A02002C790200A394020002
:1050B0002DE9F041074686B015460C4621B9FFF7A9
:1050C00097FE0446002857D001220021684621F0AF
:1050D00065FE204617F076FDDFF8A4800C2303FB65
:1050E0000080C0F808D0204621F047F90146254845
:1050F00021F036F94FF4A0220023684619F066FF2C
:10510000064680B1204A214921484FF499731AF08C
:10511000D8FF204831461AF0D4FF404080F3118870
:105120004FF0030002DF204617F04CFD0C235843DC
:1051300018F80060BEB1184A184B19489B1ADB08D2
:105140009B0143F00203324639461BF020FC204607
:1051500017F0EEFD092E0CBF6FF06E006FF004002B
:1051600006B0BDE8F08115B12C603046F8E7204666
:1051700017F0DEFD2846F3E76FF06800F0E700BFA8
:10518000501F0020B4010020B8930200EC930200ED
:10519000F5930200E19402002C7902001C7A0200CF
:1051A000019502002DE9F043B0F80190804A04789F
:1051B00011886FEA09536FEA13539BB299424FF07B
:1051C000000808BFA2F8008085B005461FFA89F7DD
:1051D00008BF4FF00108002C3AD03C2C2AD101F036
:1051E000D7F8BFF35B8F103050E8003F23F0400347
:1051F00040E80032002AF7D1BFF35B8F0020FFF7B1
:10520000FBFA054660B96B4B6B496C48C91AC90873
:10521000890141F0010105B0BDE8F0431BF096BBE8
:105220004472002102F056F8284605B0BDE8F0436C
:105230001DF0F4BC5F4B604A6148D21AD20892015B
:1052400042F00202214605B0BDE8F0431BF08BBBE3
:105250000379023B012B00F1040648D807223146AE
:1052600002A81CF0F8FF9DF808300622023B05F169
:1052700011010DF101008DF808301CF0ECFF012345
:105280008DF80030EB78012B19D102A8FFF7B4FAA2
:10529000EB78012B044611D101F07AF8BFF35B8F54
:1052A00000F1100353E8002F22F0400243E80021F0
:1052B0000029F7D1BFF35B8F1DF034FC64BB3D4A7E
:1052C0003D4C3046A41AFEF7F3FEFDF7A7FAE408BA
:1052D000A40144F00104014622463A481BF043FB76
:1052E0001F2138461DF045FA05B0BDE8F083C378AC
:1052F000012B04BF344B93F86740314620461DF024
:10530000FBFA0722014602A81CF0A5FF072231463E
:1053100068461CF0A0FFB5E72046072220F8889BCE
:1053200002A91CF098FF2A7EEB7D43EA0223A4F831
:105330009E30AA7E6B7E43EA0223A4F8A4302A7F23
:10534000EB7E43EA0223A4F8A630EB78E370002258
:10535000012B627217D10722694604F18F001CF0FD
:105360007AFF01F015F8217A174DC1EBC101072230
:10537000294404F196001CF06EFFD5F8DC305B0682
:1053800001D501F0E9F90721204601F0A3FFB8F1AA
:10539000000F03D00121204601F09CFF20461DF0A4
:1053A00079FC2046FFF722FE20461DF037FC9BE7E4
:1053B000DE3200202C7902001C7A02001D950200CA
:1053C0003E95020057950200800000202DE9F04133
:1053D000044600F10806304621F0B5F8B4F80C8018
:1053E000B8F1010F05460CD81C4A1D491D4840F66E
:1053F00015531AF066FE404080F311884FF0030009
:1054000002DF3046022121F073F8074600781DF0D4
:105410009EF9C20706460CD4104A1349114840F6BB
:1054200019531AF04EFE404080F311884FF00300EC
:1054300002DF05230D4A38782146FFF7FDF9B3074F
:1054400007D52069A4F80C8010FA85F5A560BDE8A1
:10545000F0812046BDE8F04117F06ABCB893020025
:1054600073950200F59302008C95020028800200DB
:1054700070B5017D012904464BD0032978D1838979
:10548000032B0CD8424A434943484FF4DB731AF0CC
:1054900018FE404080F311884FF0030002DF042122
:1054A00004F1080021F024F8A18942880688FF232E
:1054B000C6F30B008A42E08263750DD03748384B43
:1054C0001B1ADB089B01374843F001031BF05FFA0E
:1054D000204617F02DFC1AE001F0F4FE054658B9FD
:1054E0002E4B2F4AE18A3048D21AD208920142F05C
:1054F00001021BF038FAEBE701F0D2FF320B6075C6
:105500002146284601F0B6FD28461DF087FB002005
:1055100070BD8389012B0CD81D4A1E491E4840F6D8
:105520000D131AF0CEFD404080F311884FF00300B8
:1055300002DF022104F1080020F0DAFF05460078BE
:105540001DF005F983070CD4114A1849124840F69A
:1055500011131AF0B6FD404080F311884FF003009C
:1055600002DF134A287804232146FFF765F9AFE7E5
:105570000A4B0B4A0F48D21AD208920142F001029C
:105580001BF0F1F9204617F0D3FB6FF01500BFE7D1
:10559000B893020073950200F59302002C79020083
:1055A0001C7A0200A5950200C9950200EB95020045
:1055B000F87F02001996020010B5037D012B044606
:1055C0000CD0094A09490A4840F65C531AF079FDA3
:1055D000404080F311884FF0030002DF2046FFF7C0
:1055E000F5FE002010BD00BFB89302002D9602000A
:1055F000F5930200084A0346D2F84C0130B9D96845
:1056000039B1196929B1C2F84C3170476FF0770090
:1056100070476FF015007047800000202DE9F043BF
:10562000334DBFF35B8F87B005F1CC0353E8002FF8
:1056300042F0020243E800210029F7D1BFF35B8F5B
:10564000002001F003F92B4C2B4B2C492C4EDFF89A
:10565000B490E41AEB792846012B88BF0E46FEF77A
:1056600027FDFDF7DBF8E408A40144F00308024637
:105670003146254843461BF08AF92F460126EB792F
:105680009E4207F1070725DB95F868603046FFF773
:1056900009F8B5F86A30049344F00304B5F86E30A5
:1056A0000593CDE90206234602A9042217481BF000
:1056B000A3F995F869603046FEF7F4FFB5F86C3051
:1056C000ADF800400146324611481BF079F907B0A9
:1056D000BDE8F0833846FEF7EBFCFDF79FF8314656
:1056E0000246434648461BF052F90136C7E700BF61
:1056F000800000201C7A02002C79020050960200E3
:1057000019AD0200639602005496020074960200DE
:10571000B296020070B5B94DD5F84C31996811F0C8
:10572000010186B023D101AA40F60340FFF7C0FC77
:105730000446002878D1019B9B681B78A3B901F02F
:105740007FF8BFF35B8F2B4653F8CC2FBFF35B8FF3
:1057500002F00502BFF35B8F53E8001F43E800200F
:105760000028F9D1BFF35B8F019817F0E1FA01AA85
:10577000002141F20300FFF79BFC0446002853D1AF
:10578000019B9F489968082201311CF064FD019833
:1057900017F0CEFA214601AA41F20100FFF788FC7A
:1057A0000446002840D1019883685A7885F868201B
:1057B000D9789A7842EA0122A5F86A201A7985F800
:1057C0006920197ADA7942EA0122A5F86C205A791F
:1057D0009B7942EA0323A5F86E3017F0A9FA214617
:1057E00001AA41F20200FFF763FC0446E0B9019B05
:1057F00084489968402201311CF02DFD81481CF03D
:105800008DFD019817F094FA95F8743058060ED46F
:105810007D4B7E497E48C91AC908890141F00101C2
:105820001BF094F86FF01204204606B070BD2146BC
:1058300001AA42F20300FFF73BFC04460028F3D123
:10584000019B74489968082201311CF004FD0198FD
:1058500017F06EFA214601AA42F20200FFF728FC77
:1058600004460028E0D1019B9B68B3F80120A5F80D
:10587000FC2091B221B1DA786748114621F08EFA06
:10588000019817F055FA95F8746016F0200600F0AC
:10589000988095F89430190700F1C280082142F2EF
:1058A0000100FFF7A5FA0446002800F091800821C6
:1058B000084420F09AFD95F8D03095F89A2013F01E
:1058C000020F02F006020CBF0F232F23062A08BF87
:1058D00043F4C073002203701B0A43708270C270CD
:1058E000027142718271C271214642F20100FFF7DA
:1058F000DFFB0446002897D195F874309A061DD432
:10590000B5F8FC10D1B901AA41F20500FFF7D0FBB0
:105910000446002888D1B5F8FC3063B9019B9B6828
:105920005A78997842EA0122A5F8FC209A883A48E8
:10593000114621F033FA019817F0FAF9082140F6E0
:105940000140FFF755FA0446002841D008210844D9
:1059500020F04BFD102303708823437002230022A4
:10596000C37020238270027142718271C37121461B
:1059700040F60140FFF79CFB044600287FF454AF3B
:1059800001466A464FF60140FFF792FB1F4C1E4B43
:10599000E41AE408A401002857D0204844F002018A
:1059A0001AF0D4FF00F0C2FB044600287FF43CAF9D
:1059B00002F01CF8044600287FF436AFFFF72EFEF5
:1059C00032E7022140F66D40FFF712FA044610B9A3
:1059D0006FF0680428E70221083020F006FD01235B
:1059E000037046702146324640F66D40FFF760FB7B
:1059F000044600283FF44DAF16E700BF80000020AA
:105A0000F0000020F80000202C7902001C7A02002F
:105A1000D99602005001002080010020FD9602006E
:105A200001AA002142F21C00FFF742FB04460028B5
:105A30007FF4FAAE01988368D3F80120D3F80530DB
:105A4000C5E9362317F074F928E7009B35489E68AE
:105A5000B6F80120032A96BF3349344951F8221081
:105A600044F003031AF093FFB6F80110B6F80320D0
:105A7000022944F003032ED1032A2CD82C4951F8D3
:105A800022102C481AF083FF72792B48032A96BF04
:105A90002A49264951F82210CDE90112B279039220
:105AA000B6F807200492D6F80920059244F00303C3
:105AB000052201A91AF0A0FF009817F039F96A46EB
:105AC00000214FF60240FFF7F3FA064628B11C48C2
:105AD00044F0020164E71549D3E7009B194899682F
