:1000000060550020213F0000C1220200F53E0000A3
:10001000F53E0000F53E0000F53E00000000000047
:100020000000000000000000000000007139000026
:10003000F53E0000000000001D3900003F6A02008C
:10004000213A0000C75C0200213A0000213A00007A
:10005000213A0000213A0000213A0000213A000034
:10006000213A0000213A0000213A0000213A000024
:10007000213A0000213A0000213A0000213A000014
:10008000213A0000213A0000213A0000213A000004
:10009000213A0000213A0000213A0000213A0000F4
:1000A000213A0000213A0000213A0000213A0000E4
:1000B000213A0000213A0000213A0000213A0000D4
:1000C000213A0000213A0000213A0000213A0000C4
:1000D000213A0000213A0000213A0000213A0000B4
:1000E000213A0000213A0000213A0000213A0000A4
:1000F000213A0000213A0000213A0000213A000094
:1001000053B94AB9002908BF00281CBF4FF0FF317E
:100110004FF0FF3000F088B9ADF1080C6DE904CE66
:1001200000F01AF8DDF804E0DDE9022304B07047BE
:10013000430803F05533C01A830803F0333300F04B
:100140003330184400EB101000F00F3000EB0020AB
:1001500000EB0040000E70472DE9F047089E0D4669
:1001600004468846002B4DD18A42944668D9B2FA9B
:1001700082F252B101FA02F3C2F1200120FA01F138
:100180000CFA02FC41EA030894404FEA1C45210C9A
:10019000B8FBF5FE1FFA8CF705FB1E8341EA03430B
:1001A0000EFB07F199420BD91CEB03030EF1FF3054
:1001B00080F01E81994240F21B81AEF1020E634431
:1001C0005B1AA4B2B3FBF5F005FB103344EA034419
:1001D00000FB07F7A7420AD91CEB040400F1FF3328
:1001E00080F00881A74240F2058164440238E41B94
:1001F00040EA0E4000211EB1D4400023C6E900436E
:10020000BDE8F0878B4208D9002E00F0EE80002177
:10021000C6E900050846BDE8F087B3FA83F1002976
:100220004AD1AB4202D3824200F2F980841A65EBD4
:10023000030301209846002EE2D0C6E90048DFE71C
:1002400002B9FFDEB2FA82F2002A40F09180A1EBFF
:100250000C054FEA1C471FFA8CFE0121B5FBF7F392
:1002600007FB1350250C45EA00450EFB03F0A8429E
:1002700008D91CEB050503F1FF3802D2A84200F2B1
:10028000CB8043462D1AA4B2B5FBF7F007FB1055FF
:1002900044EA05440EFB00FEA64508D91CEB040405
:1002A00000F1FF3502D2A64500F2BB802846A4EB40
:1002B0000E0440EA03409EE7C1F120078B4022FA7A
:1002C00007FC4CEA030C20FA07F405FA01F31C437F
:1002D000FD404FEA1C4900FA01F3B5FBF9F8200C88
:1002E0001FFA8CFE09FB185540EA054508FB0EF085
:1002F000A84202FA01F20BD91CEB050508F1FF3AFE
:1003000080F08880A84240F28580A8F10208654408
:100310002D1AA4B2B5FBF9F009FB105544EA0545C6
:1003200000FB0EFEAE4508D91CEB050500F1FF34BD
:100330006CD2AE456AD90238654440EA0840A0FB59
:100340000294A5EB0E05A542C846A64656D353D047
:100350005EB1B3EB080265EB0E0505FA07F722FA6A
:1003600001F3CD401F43C6E900750021BDE8F087C9
:10037000C2F1200320FA03F10CFA02FC25FA03F380
:1003800095400D434FEA1C471FFA8CFEB3FBF7F173
:1003900007FB11302B0C43EA004301FB0EF098429F
:1003A00004FA02F408D91CEB030301F1FF382FD241
:1003B00098422DD9023963441B1AADB2B3FBF7F052
:1003C00007FB103345EA034500FB0EF3AB4208D9A7
:1003D0001CEB050500F1FF3816D2AB4214D90238E8
:1003E0006544ED1A40EA014138E73146304607E7F7
:1003F0008646E5E61846FAE64B45A9D2B9EB02086F
:1004000064EB0C0E0138A3E74046EAE7204694E788
:100410004146D1E7D0467BE7023B654432E70846D8
:1004200009E76444023842E7704700BF000000005B
:100430002DE9F8430346D0E90A801E6B184D841954
:100440003034A0451746894613A3D3E9002315D8B5
:10045000A0FB0501FFF754FE20F07F40C9F8000023
:10046000A4EB08000CA3D3E90023A0FB0501FFF7D0
:1004700047FE20F07F403860BDE8F883A8FB050107
:10048000FFF73EFE20F07F40C9F8000006F1300083
:10049000E8E700BFAFF300808D49FD1A07000000B8
:1004A00000CA9A3B000000002DE9F04F8FB020B940
:1004B0000FB0BDE8F04F18F0E7BBBF4D95F86A707C
:1004C00017F0010740F06F8195F8293005EB8303A1
:1004D000D3F82C9095F8353005EB8303D3F838B07A
:1004E000B9F1000F13D04C4614F8020BC0F3801082
:1004F00016F02CF906220146204621F031FF99F82A
:1005000000305A060DD4AC48594625F066F999F8E2
:10051000003013F00E0F40F0A2802B6A4BB10C2775
:1005200099E00621204624F09BFD0028EBD11227FC
:1005300091E017F08BFD804630B117F093FD8246B5
:1005400020B9404617F088FD072784E018F052FED6
:10055000044618B9504617F08BFDF2E74FF6FF72CC
:100560000285826E00F11C0312B900F160028266FE
:1005700004F15C0204F15801A06E0B9324F07BFDA2
:1005800094F86E2022F0070284F86E2094F8392047
:1005900002F03F0262F07F0284F8392094F83C2098
:1005A00022F0070284F83C200622A4F8702094F878
:1005B0007C20002622F0070284F87C20C4E9126621
:1005C000A666A4F86C60E685266384F83B60266521
:1005D000A4F87460A4F87860A4F8886084F88A604D
:1005E000C4F89860A4F89C60A4F8B06025F079F88D
:1005F00094F8CA200B9B2B6222F0030284F8CA20D5
:1006000094F8F620A4F8C860C4E92E0166F34512F8
:1006100000200021C5E9188AC4E93001C4E94A660E
:10062000C4E94866C4E90566A4F8D06084F8D360DC
:10063000C4F8D480A4F8F46084F8F620C4F8846088
:10064000C4F81C612670E4611AF000FC38B15A4805
:1006500018F0C2F8032738460FB0BDE8F08F95F8C0
:1006600024300121C3F342030DF133008DF8333000
:1006700024F02DFD0246002800F08D809BF801102B
:10068000484625F060F84D49ED6100243123C5E965
:100690000234A0FB010146A3D3E90023C5E90544C8
:1006A0002C706C60FFF72CFDB5F86880286124F091
:1006B000B8FF0646B8F1000F06D199F8004004F0E3
:1006C0000F04631E5C425C4195F824902B69DFF8AF
:1006D000F0B03C4A64F3000985F824904FF0020A18
:1006E00019F001090DACCDF834A031D00020CDE9CE
:1006F0000525CDE9000304930321CDE907B4CDE935
:1007000002003346524624F059FF214617F0C4FD3B
:10071000002840D12C4A06954AF2D833CDE904028C
:100720000093CDE907B4CDE90200019033460122E0
:100730000321CDF834A024F041FF214617F0ACFD91
:1007400048BB95F86A3043F0010385F86A3082E7C8
:100750001E4903F2471008601D48CDE90432CDE977
:1007600008414FF0910CA8FB00014FF6FF73CDE953
:1007700002930CFB08110EA3D3E90023CDE9065B1D
:10078000FFF7BEFC3346CDE90090524603214846B0
:1007900015F0E8FED1E72B6A002B3FF4C0AE064807
:1007A00018F01AF8BBE6002755E700BFAFF300804A
:1007B0008D49FD1A07000000C02B002000CA9A3B9B
:1007C000E17A0100A1890100D98601002C2C0020CA
:1007D000002AE7840000000070B590F824308AB049
:1007E000C3F342030D46044601210DF123001646D2
:1007F0008DF8233024F06BFC71780246284624F0F3
:10080000A2FF1D491AA3D3E90023A0FB0101FFF7B2
:1008100077FC216905468D421FD2481B0021174AEB
:1008200002230993A21A6C23B2FBF3F2144B059333
:1008300009AE00230232CDE90110CDE903330321D3
:1008400006960093D2B2184624F0D3FE314617F034
:1008500023FD40B925610AB070BD02D9691A002094
:10086000DDE70020F7E70C20F5E700BFAFF30080DD
:100870008D49FD1A0700000000CA9A3BC02B0020DA
:10088000E17A0100000000002DE9F047044690F8ED
:10089000300094F820303E4FC0F3400060F38613E0
:1008A0008CB084F8203004F1210124F0C0FE268DA4
:1008B00094F82030E4610025A6FB07014FF0910C6D
:1008C00003F079030CFB0611C4E9055584F82030C8
:1008D00025702DA3D3E90023FFF712FC3123C4E9CF
:1008E0000235E36A65600933A0F13102934232BFF9
:1008F00023612561E562274D064624F092FE02231E
:100900000B93651B3423B5FBF3F5234BB4F828C0D8
:10091000CDE90643B846214B059307462369049366
:10092000ACFB080891214FF0000901FB0C810DF18F
:100930002C0A15A3D3E90023CDF820A0CDF80C9004
:10094000FFF7DEFB104619464FF47A720023FFF7DB
:10095000D7FB0435EDB2CDE901600321CDF800905D
:100960003B462A46484624F029FE514617F094FC9F
:1009700040B994F8303043F0010384F830300CB0C3
:10098000BDE8F0870C20FAE78D49FD1A070000004A
:10099000002AE784502C0020E17A0100E98D010053
:1009A000F8B50446002016461F4618F099FA054689
:1009B00020B390F83030018567F3420380F830307F
:1009C0009DF818306401DB0003F0180304F02004E4
:1009D0001C4390F8203023F038031C4380F820405B
:1009E00009489124A6FB000105A3D3E9002304FBD9
:1009F0000611FFF785FBE8620020F8BD0C20FCE73C
:100A00008D49FD1A07000000002AE784000000005D
:100A10002DE9F04F914690F8883090F88920934264
:100A20008DB004460F460BD190F89D1090F89C2095
:100A30008A4225D00122023B80F88A2080F8893042
:100A400094F8883094F889209A1A02F00302022A56
:100A500040F06E8294F88A00012800F01482022887
:100A600000F03084CC4ACD49CD4840F252431FF0CB
:100A7000ADFB404080F311884FF0030002DF57E2E6
:100A800090F8B13090F8B02093425BD09B1ADA070F
:100A9000D6D590F87C1011F0010826D017F09AFBFB
:100AA00005460028CCD094F8B03084F8B130238DBE
:100AB000C38003230371037F43F00303037700F133
:100AC000200609234377C37708220021304621F00E
:100AD00052FCD4E93001324624F07CFF29460868F4
:100AE00017F0CCFA17F0D4FAAAE7AE4824F073FA5C
:100AF00005460028A4D094F8B130013B84F8B13009
:100B0000037943F0030303710923437194F93930E6
:100B1000002BACBF08230E2300F10806C371082286
:100B20004146304621F027FCD4E92E01324624F01C
:100B300051FF2946204624F05EFFB4F87630A4F831
:100B400078307DE790F8C93090F8C82093425FD0A4
:100B50009B1ADB077FF574AF90F8CA30DE0724D408
:100B6000904824F038FA014600283FF469AF94F821
:100B7000C930013B84F8C93094F8CA3043F001030E
:100B800084F8CA30037943F00303037106234371E9
:100B90000C23C37103726FF00E034372052383723B
:100BA0004FF0FF33C3720373C4E79D0722D517F0DC
:100BB00011FB014600283FF443AF94F8C83084F895
:100BC000C930238DC38003230371037F43F00303E4
:100BD0000377062343770C23C37794F8CB3080F850
:100BE0002030B4F8CC30A0F82130B4F8CE30A0F8E2
:100BF000233074E740F62D53674A684968481FF070
:100C0000E5FA404080F311884FF0030002DF17E758
:100C100090F8F52090F8F4309A423FF411AF624D0D
:100C20002B6813B198427FF40BAF94F8F63003F0C1
:100C30000F03062B00F2248101A252F823F000BF1B
:100C40005D0C0000E10C0000370E0000410A0000BE
:100C5000410A0000410A0000410A00005148668E26
:100C6000B4F82E8024F0B7F9014600283FF4E8AE2E
:100C700003792C6043F003030371182343710F239E
:100C8000C371B4F8F8300381B4F8FA304381B4F892
:100C9000FC308381B4F8FE30C38100230374C37435
:100CA000037546444FF0FF3343758375C375037670
:100CB00043768376C3760377437783774E44B4F8DD
:100CC0007630A4F87830A0F8116094F8F630042259
:100CD00062F3030384F8F630204624F08CFEAFE67E
:100CE00094F8F730EBB12F4824F075F9014600284D
:100CF0003FF4A6AE037943F0030303711123C371DC
:100D0000032343710F23037294F8F7304372204694
:100D100024F071FE94F8F43084F8F53000232B6051
:100D20008EE694F93920002A40DB94F8F620C4F8C6
:100D3000A830062060F3030294F8000184F8F6203E
:100D4000012284F8AC20B4F8FA2048B1B2FBF0F3E9
:100D500013FB00F3B4F8F8009BB2984298BF1A4610
:100D6000B4F8FC30A4F8A230B4F8FE30A4F8A430F3
:100D700094F8F630A4F8A020C3F3001394F89E2052
:100D8000DB0043F0020322F00F021343013984F821
:100D90009E3084F89D1053E628D8020038DF020008
:100DA000579502002C2D0020982C0020674824F035
:100DB00012F9014600283FF443AE037943F00303E0
:100DC0000371182343711023C371B4F8F830038101
:100DD000B4F8FA304381B4F8FC308381B4F8FE30C3
:100DE000C38194F800310374B4F80231A0F81130D3
:100DF000B4F80431A0F81330B4F80631A0F8153077
:100E0000B4F80831A0F81730B4F80A31A0F8193056
:100E1000B4F80C31A0F81B30B4F80E31A0F81D3036
:100E2000204624F0E8FD94F8F630052262F303032F
:100E300084F8F63004E617F0CDF9014600283FF4B7
:100E4000FFAD94F8F620032363F3030284F8F62041
:100E5000228D0371037FC28043F0030303771823BD
:100E600043770F23C377B4F8F8300384B4F8FA302B
:100E70004384B4F8FC308384B4F8FE30C3842EE697
:100E800040F65E63B8E6E28DB4F83280904494F8A0
:100E90009E20C84412F007011FFA88F858D017F0B6
:100EA00081F90646002843D0284824F094F80546E6
:100EB00000283DD0204618F01FF817F08BF9336852
:100EC000D4F898205A602B79C4F8986043F0030353
:100ED0002B7100220C236B71EA7194F8AC302B72E9
:100EE00040F2E241D4F8A830B3FBF1F3A5F80930A1
:100EF000B4F8A030A5F80B30B4F8A230A5F80D3046
:100F0000B4F8A430A5F80F3094F89E3062F30203D1
:100F100084F89E30A38D984408F106081FFA88F8DB
:100F2000A4F88C80A5F811802946204624F063FDA2
:100F300094F8D03094F8D1209B1ADBB2012B00F04A
:100F4000118200200DB0BDE8F08F00BF2C2D0020D5
:100F5000B4F88CA0A8EB0A0210041FFA82FBE7D4B5
:100F600084F8893094F89C3094F8F42084F89D300B
:100F700094F8F530934209D094F8F63003F00F035B
:100F8000062B04BF84F8F520A4F87810C04BD4F8E1
:100F900098501A68944204BF00221A600DB12B6861
:100FA00063B9BC4ABC49BD4840F6B4231FF00EF9F2
:100FB000404080F311884FF0030002DF2868B4F846
:100FC000A0204368C4F89830638DB4F8A260B4F8E8
:100FD000A4109A4213D1A38DB34210D140F2E24340
:100FE00003FB02FC42F2107303FB01C3013BB3FBA2
:100FF000FCF3B4F872C09BB29C4500F02181238DB4
:10100000EB8018232B7100232B77EA832E846984CD
:10101000294617F033F817F03BF8A368002B09DADC
:10102000E068626823F0004390422CBF3F18BF186D
:10103000A360FF1A608DB4F8A060994D10FB0BF00F
:1010400080B2B0FBF6F293B20B9316FB02F39BB2A5
:10105000984240F2E24180F0F680181A48438AA391
:10106000D3E90023A0FB0501FFF74AF820F07F40F9
:1010700007440B9BE28DAAEB080A9A4494F9393095
:101080009144CA4440F2E248002BA4F82EA008FB89
:1010900006F980F2E580226CA36C02FB1B33A3648B
:1010A00024F072FE064694F87C00C0F3C20019F0EA
:1010B0001BFF94F8AC20064409FB06F608FB02F27D
:1010C00006F574267748226506F23F260022B6FB15
:1010D000F0F60B98C4F88420A26C266470434FEAA3
:1010E0005903963B024463649A4294BFA264A3648A
:1010F000A0FB050164A3D3E90023FFF701F83F1A21
:10110000D4F8A800B0FBF8F008FB00F05EA3D3E928
:101110000023A0FB0501FEF7F3FFA9EB060620F074
:101120007F48B4F8A0306385B4F8A230A385B4F842
:10113000A43042F2107202FB0393013BB3FBF9F3BC
:10114000A4F87230584B4B44B3FBF9F3A4F8763053
:1011500094F89E30190744BF0023A4F8743002218C
:1011600001201BF0E5FC002202218246012014F040
:101170009FFC204618F04AF800F105095FFA89F94A
:101180004A4B00944A460121002015F085FA30F0C0
:1011900002030CD03F4A4649404840F65F331FF0F7
:1011A00015F8404080F311884FF0030002DFA6FBE2
:1011B000056535A3D3E9002330462946FEF7A0FF95
:1011C0003C4B0894CDE906433B4B059323690493BC
:1011D00020F07F4439484FF6FE730393A4FB0001CF
:1011E0000723301A03FB041165EB01014FF47A72F7
:1011F0000023FEF785FF3B46CDE90140CDF8008096
:101200004A460121002024F0D9F930F002030CD025
:10121000204A2749214840F679331EF0D7FF404045
:1012200080F311884FF0030002DFBAF1000F04D001
:1012300001220221104614F03BFC6FF08B0081E686
:1012400001232B71E4E606FB120080B248430EA393
:10125000D3E90023A0FB0501FEF752FF3F1A08E780
:101260000C4A17490D484FF433631EF0AFFF40405E
:1012700080F311884FF0030002DF4FF000084E4664
:101280004FE700BFAFF300808D49FD1A0700000053
:10129000982C002028D80200F2D8020057950200AE
:1012A00000CA9A3B40420F00FF5962024991010077
:1012B00005D90200F190010051A301008D49FD1AEA
:1012C00038DF0200628EE18D0A44914494F88C204C
:1012D000D2071FFA89F925D5364823F07CFE05464A
:1012E00000283FF425AE94F88C306FF3000384F8A7
:1012F0008C30A38D9944037909F1060943F0030367
:10130000A4F892900371082343710123C37105224D
:1013100004F18D01083021F023F8B4F89230A5F8DB
:101320000D3001E6B4F89220A9EB020919F4004F40
:101330007FF4FEAD04F1340584F88930052204F110
:101340008D01284621F00CF80521284623F0BFFE28
:1013500094F8393060F3050384F83930012384F8B8
:101360003031E5E5134823F036FE014688B194F8A4
:10137000D130013B84F8D130037943F0030303718A
:1013800002234371C37194F8D2300372204624F0D3
:1013900032FBB4F8780000287FF4D3ADB4F8723093
:1013A000012B02D9A4F87830CBE50133A4F87830CA
:1013B000C8E500BF2C2D00202DE9F04F0B68D3F8B5
:1013C00000A0037F93B0174615460446C3F380136D
:1013D0000622894600F11E0110A80C9357F8086BED
:1013E00020F0BEFF062210A90EA820F0B9FF21466A
:1013F000032251F82EBB384620F0B2FF2B1D1846B1
:1014000005F11807042204F12A010A9320F0A8FF2D
:10141000052204F13A01384620F0A2FF05213846A2
:1014200023F055FE6A7F00F03F0060F305026A7703
:1014300094F83F20C2F30401A977A18EE981012825
:1014400002F01F028FB206D91B3202F01F020B2AD4
:1014500001D80A9B9FB995F82030002262F300035F
:10146000CAF8142085F820300123237121465846FC
:1014700016F004FE16F00CFE13B0BDE8F08FD9F89C
:1014800000200D934FF00008C2F8048094F8371044
:1014900094F8362042EA01222A8294F83F2096F8F6
:1014A0007C10638E0B93520962F3C50140F2E24354
:1014B00086F87C105F4324F067FC0A9096F87C0065
:1014C000C0F3C20019F010FD0A9A1044784300F5E9
:1014D0007420774A00F23F20B0FBF2F07A08963A87
:1014E000AA6294F83120686240F2E2435A43AA6348
:1014F000228F0A92BDF828200D9B42F2107101FB49
:101500000272013AB2FBF7F2A6F87220694A194654
:101510003A4406F18000B2FBF7F2A6F876200422E6
:1015200020F01EFF9DF83020A2774FF48073A38334
:101530000EA9062204F11F0020F012FFEB89E384BC
:101540002B8A238596F87C30BDF828206285C3F36A
:10155000C20384F82C30304617F058FE2146A8818B
:10156000E080584616F08AFD16F092FD414640464E
:1015700024F0DEFB504CC6F804808346312300F291
:101580005240C6E90238A0FB040147A3D3E9002377
:10159000FEF7B6FD0B9AD9F80C3020F07F4040F2F0
:1015A000E24101FB02333061686A03F2B241424614
:1015B0003F1AA1EB0B0B0120022114F079FA5046DF
:1015C00017F040FB821C3D4BCDF800A0D2B20121A8
:1015D000404615F061F8514618F09EFE9AF8243006
:1015E000DB0707D50122CDF800804346114640466F
:1015F00015F052F8304617F009FEA7FB04782AA32D
:10160000D3E90023054641463846FEF779FDD9F86F
:101610000830A3F13A0940F2AB130893284BCDE907
:101620000663284B05933369049320F07F462648D0
:101630000723A6FB0001381A03FB061168EB010122
:101640004FF0000A4FF47A720023CDF80CA0FEF799
:1016500057FD15A3D3E90023CDE90160ABFB0401DD
:10166000FEF74EFD053520F07F40EDB200904B4671
:101670002A460121504623F0A1FF30F002030CD08E
:10168000124A134913484FF4D6731EF09FFD404091
:1016900080F311884FF0030002DF0122022110467F
:1016A00014F006FAE8E600BF8D49FD1A07000000B5
:1016B00040420F00FF59620200CA9A3B19A3010081
:1016C000EDA2010051A301008D49FD1AB4D9020019
:1016D00005D90200579502002DE9F04F8FB0DFF8D1
:1016E000D8800A900DF137010DF1360024F01CF876
:1016F000324F9DF836A09DF837B023F092FFD8F80E
:101700000040A4FB07542AA3D3E9002381462146C5
:101710002846FEF7F5FC0A9B0B90D8F804000693C8
:10172000274B0593002622A3D3E90023A0FB070142
:10173000CDE90766FEF7E4FC0B9B20F07F40CDE986
:101740000360204823F07F47A7FB00010723281AE6
:1017500003FB071164EB01014FF47A720023FEF7DB
:10176000CFFC0096CDE901704B465A460321504606
:1017700023F024FF30F0020416D1134A134800234B
:101780001DF0B4FC68B19DF837209DF83600009438
:101790002346032114F080FF6FF073000FB0BDE803
:1017A000F08FD8F80C00F9E76FF08B00F6E700BF78
:1017B0008D49FD1A070000002831002000CA9A3B1D
:1017C000E1DA01008D49FD1A447B0B00383100201D
:1017D00038B50F4D044623F024FFA96823F023FFFA
:1017E0006968B0FBF4F404440A4807A3D3E9002372
:1017F000A1FB0001FEF784FC20F07F40844294BFEF
:101800000020012038BD00BF8D49FD1A07000000EF
:101810002831002000CA9A3BF8B51046144624F03F
:10182000E0FEA388124E0546E3B1204624F0D9FE1F
:101830000746204624F0D5FE00F03F033F2BC0F3BF
:1018400087111CBF0B4A52F8210056F8272056F882
:10185000251014BF43434FF0FF3307481EF0B6FC7A
:101860000020F8BD56F8201004481EF0AFFCF7E742
:10187000D87D02002C7E0200FC8802001D89020037
:1018800008B504481EF0A2FCBDE80840002000F0A6
:1018900089BA00BF2F89020008B504481EF096FCE3
:1018A000BDE80840012000F07DBA00BF3589020084
:1018B00038B504460D4604481EF088FC20462946EB
:1018C0001EF040FC002038BD3A890200F8B5104CEB
:1018D000A368C3B1012000F065FA0025A7684FF4A2
:1018E000004640F2E73029464FF47A720023E7FBC6
:1018F0000601FEF705FC02460B4604F110001DF040
:10190000D7FDA560F8BD2078BDE8F84000F04ABAE0
:10191000200F002008B5014620B10D48BDE8084061
:101920001EF054BC0B481EF051FC0B490B4822F032
:101930000AFA014608B10A48F0E71FF07CFB0320D1
:1019400012F0EEF9BDE8084006481EF03FBC00BFAB
:101950004A8902006A890200687D0200E07D020077
:1019600081890200A48902002DE9F041DFF8B480EA
:1019700088B002AB4FF4102205460E4605A848F287
:101980000421CDE90623059323F00FF808F1200088
:1019900025F0A6FC4FF47A77A0FB0704C00B40EAC1
:1019A0004440D8F8084098F80010241822D081F05C
:1019B000010105A824F0A4FD98F8001005A824F062
:1019C0009FFD631C2CD041F69B039C421FD94FF214
:1019D00017639C421ED9144B9C421DD9134B9C4249
:1019E0001ED8134F0323013C3C44B4FBF7F444EAF4
:1019F0008314E1B205A824F083FD0023009305AA17
:101A0000314628460CF0C2FA08B0BDE8F081002348
:101A10006427E8E70123E6E7022342F21077E2E7D2
:101A20003F21E7E7200F0020EF9C09003FC840025C
:101A3000C02709002DE9F843104614460F4624F04C
:101A4000D0FD0546204624F0D4FD064620461B4C1A
:101A500024F0C7FD6388B342814603D1BA88A388C6
:101A60009A4228D02378AB4225D0154B1B789BB9DE
:101A7000144B18688368DFF850805B6980219847B1
:101A80004B46B8F80020114831461EF09FFBB8F8CD
:101A900000300133A8F80030BB88A380003D4FF030
:101AA000000318BF0125A3600948668000220023B7
:101AB00025701DF0FDFC0020BDE8F883200F0020FC
:101AC000E4330020C01E002008330020B689020045
:101AD000300F00202DE9F041314B8CB01C8802AF53
:101AE000002C5AD12F4A13884BB3013B138008F0C6
:101AF00071F920B32C4B186883682C4D5B692C4E10
:101B00008021984729882B481EF060FB2B88B6F867
:101B1000782001332B80284B1D784FF6FF739A42B3
:101B2000C7E9044485F00105E846C7F817407A8202
:101B3000BB82FB7607D121481EF048FBC5462837FB
:101B4000BD46BDE8F0813B1D4FF4202207F11C008B
:101B500048F20321C7E90823FB6122F026FF29464A
:101B600007F11C0024F0CCFC154B198807F11C0070
:101B70004A1C1A8024F0CCFC124B07F11C00197887
:101B800024F0BEFC0094234607F11C0207F110016B
:101B900006F16C000CF0FAF9D0E7013C1C80CEE7AE
:101BA000C80A0020CA0A0020C01E002008330020F6
:101BB00094020020D0890200200F0020EA89020050
:101BC0000A330020000C0020F7B556481EF0FEFA3C
:101BD000554D554E554F1021284624F04BFE0028F8
:101BE000B8BFDD235248BCBF2B706B701EF0EEFAFD
:101BF000002416F8011B384601341EF0E7FA102CB9
:101C0000F7D14C481EF0E2FA4B494C4825F0DDF97B
:101C10004B4804F039F8044630B10146494803B056
:101C2000BDE8F0401EF0D2BA4748484E1CF0B4FE62
:101C3000306028B9464803B0BDE8F0401EF0C6BA8F
:101C400044481EF0C3FA306802698168136823F0C3
:101C5000800313600B684FF4007207219847011E40
:101C600001DA3D48DBE73D481EF0B0FA2D883C48DC
:101C7000C5F30E0529461EF0A9FA3A4B3A48CDE9BC
:101C8000005321462346224608F0F6F80146F8B1F3
:101C900036481EF09BFA364923481EF043FA38B303
:101CA000344B052234481A701EF090FA334B3449F5
:101CB000344801221A70002225F081FB4FF40042C3
:101CC00000233048CDE900231EF016F903B0F0BD23
:101CD0002D4A22F035FA014608B12C48D9E72C4BA1
:101CE000A3F85400A3F878002A481EF06FFAD2E750
:101CF00029490D481EF016FA18B11E4B02221A701F
:101D0000E4E7264908481EF00DFA10B1194B0822E5
:101D1000C8E7234904481EF005FA0028D6D0154B21
:101D20001322ECE72B8A0200C4330020588A0200F9
:101D30003C8A0200D78B0200CD180000300F002033
:101D4000151900004A890200608A0200C01E0020A6
:101D5000678A02007A8A0200918A0200B28A02002F
:101D6000CE8A0200B4330020D4330020F58A02006A
:101D7000C00B0020000C00204F8B0200E433002039
:101D8000D51A0000E80E0020A4330020148B0200B6
:101D900094020020328B0200E00B0020F00B0020A8
:101DA000D00B0020084B1A691268920448BF80F0DB
:101DB000010028B19B68DB6803484FF400511847C5
:101DC0009B681B69F8E700BFC07702000B6801330E
:101DD0000B60014B1B68184724030020014B18605F
:101DE000704700BF2403002007B50B4600210246C0
:101DF0000191034801A900F0F9F803B05DF804FB74
:101E0000CD1D000030B585B0CDE9010104460025A7
:101E100001A90548039500F0E9F8DDE90230984290
:101E2000B8BF255405B030BDA70102002DE9F84F19
:101E3000B0F8189019F00808044693460DD001290F
:101E40000CBF49F0100949F02009A0F818908BF355
:101E50001188BFF36F8FBDE8F88F09F007090229D9
:101E600007D120461EF0CCF90028F0D00128238BA2
:101E70004ED16769218B002F15DA256821F0070103
:101E8000C4E9008841F0010121830026218B01F083
:101E9000070ACA4502D0A368002B5AD10DB9002EFB
:101EA00071D0002356E001F007035A1F012A1ED803
:101EB00021F00701062B256889B2C4E900880AD100
:101EC0003DB1638B2A46126801339BB2002AFAD1D6
:101ED000638341F00201218320461EF091F90646FA
:101EE0000028D3D0238B43F020032383CDE7042B9A
:101EF0000CD121F0070189B2218320461EF080F920
:101F000005460028C1D041F0200121830025BCE70F
:101F1000032809D1226923F00703166843F006035A
:101F2000238300252F46B1E7042806D1226923F038
:101F30000703566843F00403F2E7052806D1226937
:101F400023F00703966843F00503E9E700252E46D2
:101F5000E8E7012341F0080121838BF31188BFF3E7
:101F60006F8FFBB985BB16B11F492046B0474FF0B4
:101F70002003EFF3118B83F31288BFF36F8F238B52
:101F800023F008032383238BDA0625D523F01003DF
:101F900023830121B4F8189009F0070900297FF480
:101FA0005EAF54E7A1680029DCD0D1F80090D1F8E9
:101FB00004B03B4652462046D847B9F1000FD1D075
:101FC0004946D9F80090F2E729463B46524620465A
:101FD0002D681EF031F9C5E713F020011EBF23F074
:101FE000200323830221D5E7650202002DE9F04F8B
:101FF00091B08B46029092461C4600259AF800004C
:1020000008B928465FE325280AF1010707D0029B9B
:10201000594698470028C0F25683013512E218222B
:1020200000210AA820F0A7F99AF80130252B78D0D2
:1020300000221046964694461646394617F8013B4C
:102040002B2B00F09D8000F29480202B00F09B80D1
:10205000232B00F09B802EB19DF8306046F00406E3
:102060008DF83060BCF1000F05D09DF8306046F06F
:1020700008068DF83060BEF1000F05D09DF8306085
:1020800046F010068DF8306028B19DF8300040F021
:1020900020008DF830002AB19DF8302042F0400237
:1020A0008DF830209DF8302002F04400442803D100
:1020B0006FF386128DF830209DF830202A2B42F0E5
:1020C00080028DF830207BD19DF8312042F0010252
:1020D0004B1C8DF831201A782E2A9DF831200CBF28
:1020E0000121002161F341028DF8312074D15A7829
:1020F0002A2A6AD0013300210A26184610F8012B3B
:10210000A2F13007092F40F28E809DF830200E9109
:10211000C2F3400040EAD17161F341028DF83020F2
:102120005AE00AF102078DF833309DF83130D907B3
:1021300040F1498154F8049BB9F1000F07DA9DF88A
:10214000302042F004028DF83020C9F100095A070E
:1021500040F1428154F8048BB8F1000F80F24181C4
:102160009DF831306FF341038DF831304FF0FF3877
:1021700037E12D2B0CD0302B7FF46DAF01225CE7C3
:102180004FF0010C59E74FF0010E56E7012054E7DC
:10219000012652E70CFB0202303A33461E4616F87F
:1021A000010BA0F13007092FF4D9994293D09DF883
:1021B00030100D92D20F62F341018DF830108AE792
:1021C0000B4600224FF00A0CE8E79DF8312042F060
:1021D00004028DF8312002331F4617F8012B6C2AB8
:1021E00041D025D8682A2BD06A2A46D04C2A4CD018
:1021F0001F4617F8012B9DF831308DF83320782ACF
:1022000000F2D980572A4DD8412A03D0453A022AF4
:1022100000F2D1809DF83230042262F302038DF87F
:10222000323001239EE006FB01213039034664E78A
:10223000742A26D07A2ADBD19DF8313006220DE0AF
:102240005A78682A9DF8312006D1012161F3C6022F
:102250008DF831209F1CCCE71346022262F3C6039F
:102260008DF83130C5E75A786C2A9DF8312001D1BC
:102270000421EBE713460322F0E79DF831300522F5
:10228000ECE79DF831300722E8E7BDF8303023F461
:10229000F04323F0020343F4804343F00203ADF81C
:1022A0003030A6E7A2F15801202900F2848001A075
:1022B00050F821F079230000B7230000B723000075
:1022C000B7230000B7230000B7230000B7230000A6
:1022D000B7230000B723000015220000B723000039
:1022E0007923000039230000152200001522000088
:1022F00015220000B723000039230000B723000097
:10230000B7230000B7230000B7230000812300009B
:10231000792300009D230000B7230000B7230000AD
:102320009D230000B723000079230000B72300009D
:10233000B7230000792300009DF83210012003F03C
:10234000780360F30201402B8DF8321002BF9DF834
:10235000301041F001018DF83010632A31D1003B7B
:1023600018BF01239DF83020C2F340010B4363F3F3
:1023700041028DF83020D8E69DF832100220DEE7C9
:102380009DF8322003F07803A3F14000032161F3AC
:10239000020243428DF832204341E3E79DF83220A8
:1023A000032113F0780F61F302028DF8322014BF7D
:1023B00001230023D6E79DF8303043F001038DF868
:1023C00030300023CEE79DF93020002AB4BFDDF87D
:1023D00034904FF0FF39BAE69B077FF5C7AEDDF8C2
:1023E00038809DF831100023CDE90D339DF832304F
:1023F00003F00703012BC1F3C30138D1CB1E042B1B
:1024000022D8DFE803F003090921210054F8043B36
:10241000DA17CDE90A3206E0073424F00704F4E8BD
:102420000223CDE90A239DF8303013F0030656D07D
:1024300002983B46524659461EF0B3FA0028C0F2B5
:1024400042810544BA46D9E554F8043B01294FEAD4
:10245000E372CDE90A3205D19DF828300A930023B2
:102460000B93E0E70229DED1BDF92830D0E7022B3B
:1024700023D1CB1E042B13D8DFE803F0030A0A1282
:10248000120022680A920023201D0B930446CAE71B
:10249000E01D20F00700F0E80223CDE90A23F5E76C
:1024A00054F8043B0A9301294FF000030B93D3D057
:1024B0000229B8D1BDF82830D0E7042B09D1E31D9B
:1024C00023F0070303F10804D3E90023CDE90A232D
:1024D000A9E7032B04BF54F8043B0A93A3E79DF834
:1024E00033007828AED8622822D825283FF48FAD53
:1024F0005828A7D10DF126030093DDE90A0104ABAA
:102500000CAA1EF008FA8246B8F1000F0DF1260061
:102510000CDB9DF83020A0EB0A036FF38612984580
:102520008DF8302002D9A8EB03030D9380463DE0DF
:102530006338152886D801A252F820F0BD25000086
:102540002126000045240000452400004524000009
:1025500045240000212600004524000045240000F9
:1025600045240000452400007B2600004926000089
:102570004D2600004524000045240000952500005C
:1025800045240000492600004524000045240000A1
:1025900049260000B8F1000FDDF828A00ADB41460B
:1025A00050461FF0B7FE0AEB00080026BAF1000FF4
:1025B0000CD147E750461FF0A6FEF4E70A9B8DF8C2
:1025C000103000260DF1100A0DF11108A8EB0A03D6
:1025D00006B101339DF83220D00668D50233520689
:1025E0000D9948BF0E9A0B4448BF9B18B9F1000FD4
:1025F00076DD9DF83020A9EB0309C2F38003039335
:1026000053076DD4500661D546B1029B59463046FA
:102610009847002857DB039B01351E46302356E0C0
:102620001E070FD413F0100618BF2026DDE90A2379
:10263000002BBFF65FAF524263EB4303CDE90A23A1
:102640002D2657E72B26F1E7002653E70A9840B3DB
:102650000DF1260300930CAA04AB00211EF05BF9D8
:10266000BDF8323003F0EF0343F4F04343F01003BE
:102670008246ADF83230002646E70A9B07293FF62E
:10268000E1AEDFE801F00C04060C08080C0C1D702C
:10269000D8E61D80D6E6EA17C3E90052D2E61D60EF
:1026A000D0E6DFF8C8A006460AF105088EE7110754
:1026B00048BF013393E7184603935946029B984756
:1026C0000028039B04DA11B0BDE8F08F20234D44AD
:1026D0004A46002AA5EB090109F1FF39EBDC0D465A
:1026E00036B1029B5946304698470028EBDB01354E
:1026F0009DF83230D90601D41A0706D5029B5946F7
:10270000302098470028DEDB01359DF83230DB06AB
:1027100007D59DF83300029B594698470028D2DB25
:1027200001350D9E2E44731B002B16DC0298434688
:10273000524659461EF035F90028C4DB0544A94429
:10274000A9EB0503002B7FF77DAE029B59462020A5
:1027500098470028B7DB0135F2E7029B5946302045
:1027600098470028AFDB0135DDE700BF6A8B020028
:1027700030B51049104889B0002224F020FE0F4DDA
:102780000F4900220023CDE9062300240E23CDE9C2
:102790000334CDE901440B4B00944FF440722846BA
:1027A0001CF0F2FA0849284624F066FA204609B0DF
:1027B00030BD00BFCD270000600F0020980F002023
:1027C000E03900200D2B0000708B020001481CF046
:1027D00067BC00BF040D00200C4A002310B5137025
:1027E0000B4A13600B4B0C4A1A604FF4004000F088
:1027F000B9FC00F06BFA09481EF0EAF8BDE8104099
:10280000074908480823482224F0ECB9E6330020A1
:10281000C81E0020280300200F0A0200D01E00203E
:1028200068680020D81E002070B5124BBFF35B8F84
:1028300053E8005F6A1C43E800210029F8D1BFF388
:102840005B8F2DB90C4C0D4E361B3611B54200DB9B
:1028500070BD237B53B123689B690BB12046984719
:10286000636804221968204600F022FA013510340A
:10287000ECE700BFCC1E0020447C0200647C020018
:1028800010B54FF02003EFF3118483F31288BFF3E8
:102890006F8F04481EF0ACF884F31188BFF36F8F7C
:1028A00010BD00BFD01E002010B5044C237813B912
:1028B00003481CF0F5FB0123237010BDE533002015
:1028C000040D0020064BBFF35B8F53E8002F01324D
:1028D00043E800210029F8D1BFF35B8F704700BFA8
:1028E000C81E00200020064BBFF35B8F024653E852
:1028F000000F43E800210029F9D1BFF35B8F704737
:10290000C81E0020F8B5FFF7EDFF0A4C0A4D2D1B3D
:1029100007462D110026AE4200DBF8BD63685B79E7
:102920002BB123681B6913B13946204698470136FD
:102930001034F0E7447C0200647C0200164B98429D
:1029400037B5044602D3154B984220D314480022D1
:10295000002301A91CF0B8F90546D8B90122019B52
:10296000BFF35B8F53E8001F43E800200028F9D134
:10297000BFF35B8F01982146412204301FF0B1FC68
:10298000019C7E2384F8453084F846500434204668
:1029900003B030BD034CFAE7C876020074E10200D0
:1029A000D81E0020788B020050B1064B984206D307
:1029B00003F5107398422CBF0020012070470020BF
:1029C000704700BF68680020434B1B782DE9F74F24
:1029D000044603B900B3FFF753FF054678B1BFF3D0
:1029E0005B8F3E4B53E8002F013A43E8002100295A
:1029F000F8D1BFF35B8F9CB128461EF012F92CB9B9
:102A0000374B1B68002B01DDFFF77CFF35481DF0BD
:102A1000EDFF041E18BF0124204603B0BDE8F08F6F
:102A2000314B1B78BBB92B7ADB0714D41EF00CF9A1
:102A3000804628461EF0D3F8014640461DF0EBFFC5
:102A40002A4B2B4ADFF8ACA0DFF8ACB09B1A064645
:102A50004FEAD30936B9294E294FBF1B3F114FF01A
:102A6000000836E0B6FA86F7C7F11F073946284650
:102A70001EF0B8F8234B9842024602D3224B9842EC
:102A800016D31046FFF790FF90B9524510D06989D0
:102A9000C1F3891100F0FEF84FEA891343F00103F6
:102AA0000246ADF800303946434658461EF00DF850
:102AB000012303FA07F726EA0706CBE773685B7979
:102AC00023B1336829465B683046984708F101080E
:102AD0001036B845F2DB8FE7E5330020C41E002036
:102AE000C81E0020D01E0020E6330020047C020017
:102AF0000C7A0200788B0200928B0200447C020068
:102B0000647C0200C876020074E1020010B5FFF791
:102B10008BFE1CF0C3FF0C4B186030B10B4B1B68D5
:102B2000092B02DD0A481CF0BBFA094C0020FFF714
:102B30004BFF0028FAD14FF0FF324FF0FF33204611
:102B40001CF0D4FAF2E700BFF41E0020C41E0020DF
:102B5000040D0020294B37B51B6841810446984776
:102B6000E0604FF02003EFF3118583F31288BFF389
:102B70006F8F234821461DF02FFF85F31188BFF387
:102B80006F8FBFF35B8F1F4B53E8002F013243E879
:102B900000210029F8D1BFF35B8F1B4A127882B164
:102BA0004FF02003EFF3118483F31288BFF36F8F8C
:102BB0000020FFF709FF84F31188BFF36F8F03B084
:102BC00030BD124A1B681268002AF8D0012B0AD1C6
:102BD00000220023CDE900230D484FF400420023DA
:102BE0001DF08AF9EBE70A2BE9D1094824F0F3FB41
:102BF000084803B0BDE830401CF052BA280300205A
:102C0000D01E0020C41E0020E6330020F41E002049
:102C1000600F0020040D0020F8B50E4F3D7875B907
:102C20000D4C0E4EFFF700FE361B3611B54207DB8A
:102C30000020FFF7C9FE0028FAD101233B70F8BD40
:102C400063685B791BB1236820465B69984701354F
:102C50001034EBE7E6330020447C0200647C020081
:102C600007B504380190BFF35B8F50E8003F5A1E50
:102C700040E800210029F8D1BFF35B8F012B03D17D
:102C8000034801A923F0C9FF03B05DF804FB00BFAE
:102C9000D81E0020044A054B9B1AB1EBD30F34BF5A
:102CA00052F83100002070470C7A0200447C020088
:102CB000054A4368801A0011013001221871196019
:102CC0005A71FFF7F1BD00BF447C02002023024986
:102CD00002481A4623F086BFA86A0020F81E00208A
:102CE00037B50023094D01930120FFF76DFE04461F
:102CF000FFF7E8FD0022002301A928461BF0E4FFAE
:102D000008B1002CF0D1019803B030BDF81E0020AE
:102D100007B50023019307480022002301A91BF0F7
:102D2000D3FF10B1FFF7DCFF0190019803B05DF80D
:102D300004FB00BFF81E0020F0B5037A85B0DC0765
:102D400001901ED4457A2D091BD0002426460198F7
:102D500031461DF047FF0746FFF726FE70B134B934
:102D6000019B294618691DF056FE044648B124FA15
:102D700006F3D90702D53846FFF772FF0136AE4297
:102D8000E5D3019B1A7A920704D55B69084C03933B
:102D9000039B2BB9064801A923F03FFF05B0F0BD06
:102DA0001D6803A9204623F038FF0395F0E700BF14
:102DB000F81E00200EB403B503AB014653F8042BF4
:102DC00004480193FFF712F902B05DF804EB03B079
:102DD000704700BF011002002DE9F0471D46089B17
:102DE0001746DA0604460E4605D499064CBF2A4912
:102DF0002A49FFF7DFFFDFF8A8904FF00008A84549
:102E00002ADBDFF8A080DFF8A090DFF894A000258F
:102E1000BD422FD2725D49462046FFF7CBFF0135F8
:102E2000102D20D12149DFF87880DFF884902046EA
:102E3000FFF7C0FF0025AF4228D9725DA2F1200341
:102E40005F2B28BF2E2249462046FFF7B3FF0135EE
:102E5000102D14D1BDE8F08749462046FFF7AAFFA0
:102E600008F10108CBE76A07D2D151462046FFF7A7
:102E7000A1FFCDE741462046FFF79CFFCFE76B0758
:102E8000D9D141462046FFF795FFD4E74146204679
:102E9000FFF790FFDBE700BFD78B0200D68B020065
:102EA000DB8B0200D98B02005A8A0200DD8B020004
:102EB000DF8B02002DE9F04F87B011F0020605927A
:102EC0009DF84080BDF9489007461A4601F0010A76
:102ED00001F0080506D011F0440F38D13349FFF74F
:102EE00069FF0646BAF1000F0AD0314B314953F859
:102EF0002820314B3846002A08BF1A46FFF75AFFF0
:102F00003DB12E4B2E4953F828203846FFF752FF8B
:102F10000546B9F1000F16DB059B002B43D00123BA
:102F200003FA08F8274B284C18F0100F18BF1C465E
:102F300049469DF84400FFF7ADFE2146024638465B
:102F4000FFF738FF0544A81907B0BDE8F08F1F4B05
:102F5000196831B31E4B4FF461661B68B2FBF3F383
:102F60004FF47A7BB3FBF1F4B4FBF6F206FB1246A6
:102F700001FB14340BFB04F44FF03C0CB4FBF1FEEA
:102F8000B6FBFCF301FB1E440CFB13660BFB04F4C5
:102F90000096B4FBF1F1CDE901E10E49FFF70AFF1C
:102FA0009FE708469DE7084CC2E700BFF08B020090
:102FB0003C7E020073CC0200E28B0200507E0200D5
:102FC000158C0200EC8B0200E78B0200141F00201E
:102FD000181F0020F98B020038B50C46E1070546A2
:102FE00003D5084A0849FFF7E5FEE20608D4A30620
:102FF00028464CBF05490649BDE83840FFF7DABE10
:1030000038BD00BFE28B020073CC0200D78B0200F8
:10301000D68B02002DE9F0478B7A13F007088AB0AF
:1030200005460E46174622D00A7A4989C3F3C203E1
:10303000C1F38911D243CDE900830291F36802F014
:1030400001023946FFF736FF8146347AE44314F033
:1030500001040ED0294630461DF068FEB8F1000F7D
:103060002BD0424639462846FFF7B6FF25E0C14639
:10307000EBE7B8F1000F26D12746EB68069306AAC6
:103080003B46A96830461DF03DFE069A6B681A6003
:103090003AB1AB68134413F8014CA4F10A035C4243
:1030A0005C4128461DF09FFF069B1F44002BE4D186
:1030B0001CB114492846FFF77DFE28460AB0BDE83A
:1030C000F0471DF090BF30461DF0BEFD0E49024690
:1030D0002846FFF76FFE4FF0100A05AA234606A9FF
:1030E0003046CDF814A01DF00DFE059A002AB8D088
:1030F0004B46009706A92846FFF76EFE059B1C4429
:10310000EBE700BF1B8C020073CC020073B542F2E8
:103110000F738B4228BF0B4605680F4A04460521F2
:1031200068461DF060F863680C495B6806460B2230
:1031300028461DF0EEFD63683246694628465B6806
:103140001DF0E7FD636806495B681B2228461DF0F9
:10315000E0FD02B070BD00BF0DC30200558C02003F
:10316000398C0200084A10B50123084C1360002175
:10317000A04204D801B11360054B186010BD40088F
:103180005B000121F4E700BF181F002040420F0040
:10319000141F0020F8B5074F0D4604464618B442E8
:1031A00001D12846F8BD386814F8011B83685B68B4
:1031B0009847F4E7301F0020014B024A1A6070471D
:1031C000301F00207877020001481DF00CBF00BFBF
:1031D000807E02000148FFF799BF00BF807E020099
:1031E00010B508460C461DF0EDFC054821460F229F
:1031F000FFF710FF2046BDE810401DF012BD00BFD4
:10320000807E0200014B01221A707047F8330020C3
:10321000024B034801221A701DF0E5BEF93300206D
:10322000AC7E02000148FFF771BF00BFAC7E020018
:1032300010B508460C461DF0C5FC054821460F2276
:10324000FFF7E8FE2046BDE810401DF0EABC00BFD5
:10325000AC7E0200054B1B781BB141F2883024F094
:103260007FB8A42000211CF0FFBB00BFF933002071
:103270002DE9F047DFF88C90DFF88CA080460F46F0
:10328000042499F80050CDB94FF0FF334FF0FF32CE
:1032900050461BF017FE3A46414628461BF006FBF7
:1032A000064650461BF086FE184DFEB101232B70DA
:1032B00099F800306BB93846BDE8F0873A46414688
:1032C00000201BF0F3FA0646EEE75CB92C704FF0D5
:1032D000FF3400201BF036FB0028ECD02B78002BAD
:1032E000F3D1E8E7013CFFF7B5FFF2E72B7813B124
:1032F000013C04D12C702B78002BC2D1DBE7FFF707
:10330000A9FFF8E7F9330020C40C0020F8330020AF
:1033100030B585B000230546CDE9023301904FF06A
:10332000FF330C484FF0FF321BF0CCFD0A4B1C68FA
:1033300034B1636820461B6801A998472468F7E701
:10334000284600F00BF8044602481BF033FE2046E6
:1033500005B030BDD80C0020481F0020F8B51A4C2D
:103360001A4F06460025BC4206D3194B1C680CB107
:10337000143C9CB92846F8BD1EB9E3684BB9143417
:10338000F1E72068002231461DF058FE0028F4D1F4
:10339000F5E79847002D08BF0546F0E736B9E36822
:1033A00063B914F1140FE5D06469E0E720680022E6
:1033B00031461DF043FE0028F1D1F2E79847002D79
:1033C00008BF0546EDE700BFF87902000C7A02005D
:1033D000501F0020F8B505464FF02003EFF311868B
:1033E00083F31288BFF36F8F094B1C685CB1094FE0
:1033F000D4E90132002D08BF13460BB13878984745
:103400002468002CF4D186F31188BFF36F8FF8BDC8
:10341000581F0020601F00201FB50F4B1A68BAB953
:1034200001221A600D4A07CA01AB83E807000C4A63
:103430004AB193E807001EF0BDFF002005B05DF81B
:1034400004EBFFF7C7BF82F31188BFF36F8FF4E778
:1034500005B05DF804FB00BF2C030020601F0020B6
:10346000B5230200F0B589B06E46014605463046E8
:103470001DF007FE96E80700174C84E80700207847
:10348000274638B3154B002119606B1C0DD014482A
:1034900016464FF4004C134A0023E6FB0C01FCF7E0
:1034A0002FFE0121281A23F03BFF1CF05FF80120BA
:1034B000FFF790FF97E8070005AB83E807000A4A8B
:1034C0001AB193E807001EF062FFFFF7A5FF1CF09A
:1034D0001BFA207809B0F0BD601F00202C030020EB
:1034E0003F420F0040420F008F230200014B18683B
:1034F000704700BF30030020F0B5082289B01DF0EE
:103500007CFFCB6A03930B6B04934B6B05938B6B24
:103510000693CB6B079313466A460C460646002774
:1035200011461046CDE9017700971DF073FE314634
:10353000054630461DF06EFE216B0391616B0491D0
:10354000A16B0591E16B0544CDE9061710461146C4
:103550001DF060FE3146054430461DF05BFE05441B
:10356000206A0090606A0190A06A0290A06B0690A9
:10357000E06B07903046CDE9047703971DF04AFED3
:103580000544606A0090A06AD4F838C00190E06AEF
:103590000290CDF810C0606BD4F83CC00390CDE928
:1035A00005C0206A079030461DF034FE0544E06AED
:1035B0000090206B0190606B0290206A0690A06AD8
:1035C00007903046CDE9047703971DF04CFF236B3D
:1035D0000093636B0193A36B0293E36B0393636AA2
:1035E0000693E36A07932D1A08233046CDE9047742
:1035F0001DF039FF636B0093A36B0193E36B0293A0
:10360000236A0393636A0493A36ACDE90537236BA6
:1036100007932D1A082330461DF025FFA36B009356
:10362000E36BCDE90137636A0393A36A0493E36A0A
:10363000CDE90537636B07932D1A082330461DF03B
:1036400012FF2D1A10D40D4C35B9082231462046F0
:103650001DF0DFFE01280FD00823224631463046F8
:103660001DF001FF2D1AEFE7044A082331463046CA
:103670001DF0D0FD2D18F8D409B0F0BDC07E0200B9
:103680000449431E0F3013F8012F8A5C1A708342DD
:10369000F9D17047988C0200F0B5264E07460C46CB
:1036A0000FCE8DB001AD0FC50FCE0FC596E8070048
:1036B00085E807003846002F38D0002C38D0381F56
:1036C0002146024610344B780D781B0443EA05630B
:1036D000CD782B438D78043143EA05238C4242F8A0
:1036E000043FF0D1144C04218A07036916D1C3F3B7
:1036F0000742A55C1A0EA25C42EA0562C3F30725E5
:10370000DBB2655DE35C42EA054242EA032221F056
:10371000030330336B4453F82C3C534050F8042FD0
:10372000013153402C290361DED101200DB0F0BDE1
:103730002046FBE7A07C0200988C02000149102281
:103740000A60704710ED00E072B6404080F31188C7
:10375000BFF36F8FBFF34F8F30BF62B6BFF36F8F72
:10376000704700BF72B6494081F3118820BF80F3D3
:10377000118862B6704700BF73B506460C4601B3A8
:10378000134B144D1448ED1AED08AD0145F0010539
:10379000ADF80050D1E9012309681DF096F9ADF8A4
:1037A0000050D4E90423E1680C481DF08EF9E1696A
:1037B0000B482A461DF05CF9A1690A482A461DF00B
:1037C00057F92146304602B0BDE870401BF026B9DB
:1037D0000C7A02001C7C0200988D0200C78D02004A
:1037E000F68D0200058E020043B2002B08DB012299
:1037F00000F01F0002FA00F05B09024A42F82300C1
:10380000704700BF00E100E043B2002B0DDB012256
:103810005B0900F01F0002FA00F02033034A42F86F
:103820002300BFF34F8FBFF36F8F704700E100E0BD
:10383000054B420900F01F0053F82220012303FA30
:1038400000F01040704700BF00E100E043B2002BE1
:10385000A8BF03F1604301F10101B8BF064B4FEA75
:103860004111ACBF03F5614300F00F00C9B2B4BF12
:10387000195483F80013704714ED00E008B572B6D0
:10388000044B986918B100229A6123F0FCF962B6E2
:1038900008BD00BFC832002030BFFFF7FDBF00BF2A
:1038A0000F4A08B50F4B22F07F029A60BFF34F8F8B
:1038B000BFF36F8FD3F8882022F47002C3F88820FA
:1038C000EFF3148323F0040383F31488BFF36F8FA3
:1038D0001BF048F91CF05CF900F016FB1BF04CF9EA
:1038E0000000000000ED00E0094A0A4993680968F9
:1038F000D967094998674B6843F080534B600023B0
:1039000083F31188BFF36F8F9368D86F704700BF40
:10391000C8320020D488020000ED00E012498A6815
:103920004FF030001044EFF3098C80E8F01F2020A6
:1039300080F31288BFF36F8F0C4F4FF00066CA6997
:103940008A603E60906F0023936780F3118804B50E
:10395000104600F01BFBBDE8044002F1300090E887
:10396000F01F8CF309887047C832002004ED00E096
:103970001EF0040F0CBFEFF30880EFF3098081699C
:1039800011F8021C0229FFD001B51EF091FC01BD07
:1039900042F8203C009B42F81C3C0A49019B42F83B
:1039A000183C029B42F8143C21F001014FF0807357
:1039B00042F8043C42F8081C0023203A0265836761
:1039C000704700BFA1030200094A0346906870B126
:1039D00013F1160F806E05D0A0F120029A4205D88F
:1039E000834203D2814228BF0020704700207047E5
:1039F000C832002008B5094B98600D46144600F007
:103A0000C5FA204685F30988002163B681F3118841
:103A1000BFF36F8F002200231CF0C2FCC8320020CD
:103A200001B572B60B4A906900281EBF0021916152
:103A300023F029F962B6EFF30580A0F110004FEAF8
:103A4000C0000549014409C99847BDE80140034940
:103A500008470000C832002008780200613A0000E0
:103A6000044B9968D869884203D003494FF08052CB
:103A70000A607047C832002004ED00E02DE9F047ED
:103A8000354B364C364DE41AE408A40144F00109E4
:103A9000074688463348494616461CF0DCFFAB6AA9
:103AA000DB0603D5304849461CF0D5FFAB6A180742
:103AB00004D52E4844F001011CF0CDFF284DAB6A1F
:103AC000990723D46FF01509254DAB6ADB0704D5A0
:103AD000274844F001011CF0BEFFAB6A980604D5EC
:103AE000244844F001011CF0B6FF1D4B9A6AD10630
:103AF00024D49A6A920721D40020194A936A43F089
:103B0000FF03936200233370BDE8F08744F0010A9D
:103B1000194851461CF09FFFD5F83490AB6A1A063D
:103B2000D0D51648524649461CF0A2FFB8F1000F06
:103B3000CAD0AB6A23F08003AB62C5E75B681B05A4
:103B4000DAD539464846FFF73FFF0028D4D080F346
:103B500009880220D1E700BF0C7A02001C7C020019
:103B600000ED00E0338E0200498E02007C8E0200E0
:103B7000BD8E0200DC8E02008F8E0200A78E020036
:103B800070B5234B234C244D2448E41AE408A401C7
:103B900044F0010631461CF05EFFAB6A9B0103D581
:103BA0001F4831461CF057FFAB6ADD0104D51D48A4
:103BB00044F001011CF04FFF174DAB6A180304D508
:103BC000194844F001011CF046FFAB6A590304D5C3
:103BD000164844F001011CF03EFF0F4DAB6A9A03FA
:103BE00004D5134844F001011CF035FFAB6ADB0338
:103BF00004D5104844F001011CF02DFF064A936AD9
:103C00006FEA03436FEA13439362002070BD00BF65
:103C10000C7A02001C7C020000ED00E00B8F020019
:103C2000238F0200368F0200508F02006E8F020039
:103C3000938F0200AD8F02002DE9F0412A4B2B4CEF
:103C40002B4DE41AE408A40144F0010807460E468F
:103C5000284841461CF0FFFEAB6AD90403D526482C
:103C600041461CF0F8FEAB6A1A0504D5234844F01F
:103C700001011CF0F0FE1E4DAB6A9B0512D544F00D
:103C800001081F4841461CF0E6FEA96BAB6A180408
:103C900008D51C4842461CF0EBFE1FB1AB6A23F46A
:103CA0000043AB62124DAB6A590504D5164844F087
:103CB00001011CF0D0FEAB6ADA050DD5134844F0C3
:103CC00001011CF0C8FE0A4A936A002043F47F43B6
:103CD00093623070BDE8F081AB6A9B04F3D50C4869
:103CE00044F00101EDE700BF0C7A02001C7C0200E9
:103CF00000ED00E0D88F0200EE8F02007C8E020003
:103D0000FF8F0200189002002D90020048900200E0
:103D1000DC8E02002DE9F043654B5E688BB00D46EA
:103D2000C6F30804002787F31188BFF36F8F02F0F2
:103D30007F43B3F17F4F0DD102F00C03082B0BD161
:103D40005C495D4B5D48C91AC908890141F0010110
:103D50001CF081FE3D4603E0120701D40546012711
:103D600000238DF80730E31E092B00F28880DFE87E
:103D700003F00575797286868686867D4E4A4D4E9D
:103D8000DFF82C814E48B61AF608B60146F0010657
:103D900031461CF060FED8F82C404FF0000914F0BA
:103DA00002048DF8079005D0464831461CF053FEBA
:103DB000002407E0D8F82C30002B1DDA42483146A9
:103DC0001CF049FE9DF807309BB92022294602A825
:103DD0001EF0C6FA099B002F65D0C3F3080222B972
:103DE0006FEA53236FEA4323099302A92046FFF7A2
:103DF000C3FC0BB0BDE8F083D8F82C305B00E1D5F4
:103E0000324831461CF027FEAB6933F8022C4DF6E0
:103E100002739A420AD098F8283073B10DF1070264
:103E200001212846FFF72AFE0446CBE729682848E7
:103E300032461CF01DFE2C68C4E798F829302BB1DF
:103E40000DF107010120FFF7F7FEEDE7B8F82A3082
:103E50009BB2002BB6D0FFF793FEE5E70DF107020A
:103E60000021DEE70DF107010020ECE71149124BBC
:103E70001848C91AC908890141F0010196E70E4A9C
:103E80000C4B154815499B1ADB0816F4F87F4FEACE
:103E9000831318BF014643F001031148A4F1100237
:103EA0001CF0FAFD84E723F4FF7323F001039BE782
:103EB00000ED00E01C7C02000C7A02006090020021
:103EC0008B900200A2900200C3900200D1900200E9
:103ED000F09002000C910200459102003091020026
:103EE0005E910200024A536943F010035361704728
:103EF00000ED00E0EFF30880EFF3098101B57246B1
:103F0000FFF708FF01BD00BF044800232021C218AD
:103F10000133302B82F80013F9D1704700E100E043
:103F200023F0CCFB202080F3118808484FF4026175
:103F3000401880F30988EFF314800221084380F3CE
:103F40001488BFF36F8FFFF7ABFC0000E056002032
:103F5000064B9B68834207D1EFF3058323B1044AE4
:103F6000536843F0805353601BF0AEBDC83200204D
:103F700000ED00E0024B034A0348012100F08CB839
:103F800000000420000000206C7F0200826E054BC0
:103F9000203A1A60044A2021C3E90112184601217F
:103FA00000F084B86C1F002000000B15F8B52A4FF4
:103FB0000E460021B14214DA4468002C48D0C3B147
:103FC00004F1FF3C14EA0C0F0DD0244A244B254881
:103FD000D21AD208920142F001021CF049FD6FF0A2
:103FE00015021046F8BD1F2CEFD905681CEA050F15
:103FF000EBD1202CD5B2D0F808C0026816D9B4F1A4
:10400000004F15D8013CB4FA84F4C4F11F046400D5
:10401000072D4CEA04040DD9104A114B1248D21A4C
:10402000D208920142F001022946D6E70824EFE7C0
:104030003E24EDE722F01F022A4342F0100244F032
:104040000104C7F89850C7F89C20C7F8A0406A1C24
:1040500001310C30AEE700BF00ED00E00C7C020047
:104060000C7A02007591020098910200044B05221F
:10407000C3F89420BFF34F8FBFF36F8F704700BF1B
:1040800000ED00E0BFF35F8F024B0022C3F89420E5
:10409000704700BF00ED00E010B5034C012322780B
:1040A000FFF784FF207010BDFA33002008B5094ADD
:1040B00000231278FFF77AFF10F1160F03D0064B9A
:1040C0000022072800DD08BDC3F89800C3F8A0202F
:1040D0000130F6E7FA33002000ED00E014490868EB
:1040E000082810B521D8FFF7CDFF124C49680022EF
:1040F000904201F10C0105D10F4B1870FFF7B6FF8C
:10410000002010BDC4F8982051F80C3C23F01F0388
:10411000134343F01003C4F89C3051F8043C43F0BF
:104120000103C4F8A0300132E2E74FF0FF30E8E7C6
:10413000787F020000ED00E0FA330020014B1860A8
:10414000704700BF340300204FF02003EFF31182CB
:1041500083F31288BFF36F8F06490123C1F84035FE
:104160004FF08041C1F8783582F31188BFF36F8F2B
:104170000020704700E0014020B1034B800143F074
:1041800001031847704700BF607D02000E4B4029B5
:1041900070B528BF40210D4C46181D46B04203F1B2
:1041A000020304D1002305F81130074870BD0278DE
:1041B0001209A25C03F8022C10F8012B02F00F0286
:1041C000A25C03F8012CE9E73E34002016920200BD
:1041D00030B503788BB0044607AD032B21D8DFE858
:1041E00003F0021A1C1E124928461EF070F863786C
:1041F0000493A3780393E37802932379019363797B
:1042000000930C4AA37905951E210B481BF0EBFF88
:1042100009480BB030BD0949E6E70949E4E7094917
:10422000E2E7094A0A2128461BF0DDFFDFE700BF6D
:10423000D1910200F391020020340020D8910200B5
:10424000DF910200E9910200E4CC020010B5034CBA
:104250002522214600F004FA204610BDFB33002041
:1042600070B5214CBFF35B8F2368BFF35B8FDA0718
:1042700006460D4601D50C2070BD012931D8BFF38B
:104280005B8F54E8003F43F0020244E8002100291C
:10429000F7D1BFF35B8F9B07EDD4144831461EF076
:1042A000B8F8134806F120011EF0B3F8BFF35B8F96
:1042B00075B154E8003F43F0040344E80032002A9B
:1042C000F7D1BFF35B8F0B481AF0EAFE0020D3E76B
:1042D00054E8003F23F0040344E80032002AF0D001
:1042E000F6E71220C8E700BF781F0020DF34002067
:1042F000FF340020EC0C00202DE9F0476A4B6B4D99
:10430000DFF8AC81DFF8AC91ED1AED0847464FF0CD
:10431000FF324FF0FF3348461AF0E8FEBFF35B8FE1
:10432000D8F80040BFF35B8F14F001045AD0DFF8D7
:1043300088A1624C624E6348524621461CF0BEFE84
:10434000E8BBA901604841F001011CF084FB4FF07B
:104350001F0A4FF0FF324FF0FF33012000F0DEF96B
:1043600000F1080602210446304622F0BAF83E2346
:104370000370422343700121304622F0B2F8082333
:1043800003704121304622F0ACF8064600F801AB3C
:10439000BAF1000F1DD0402200211DF0ECFFBFF349
:1043A0005B8F57E8003F23F0010347E80032002A03
:1043B000F7D1BFF35B8F204601F0EAF8A7E7202290
:1043C000314620461DF0BBFF0028B4D04FF0000A54
:1043D000BFE73C491EF01DF8203106F121001EF018
:1043E00018F8DCE7BFF35B8FD8F80030BFF35B8FC2
:1043F0009B078CD5304933481DF025FD011E38DA66
:10440000AA01324842F001021CF032FB4FF0FF32A9
:104410004FF0FF33012000F081F900F1080A02217A
:104420000646504622F05DF83E2303702223437077
:104430000121504622F055F80923037021215046EE
:1044400022F04FF8034601303CBB1F221A70FF21B7
:1044500020221DF090FFBFF35B8F57E8003F23F051
:10446000020347E80032002AF7D1BFF35B8F3046E2
:10447000A2E71249BFF35B8FD8F800301048BFF3B2
:104480005B8F13F0040F01F120020B4B18BF0146A4
:1044900010461CF062FE0446B8E7002209491A7073
:1044A0001DF0B7FFD7E700BF0C7A0200047B0200C3
:1044B000781F0020EC0C0020987F0200BF34002001
:1044C00083920200DF340020279202005092020003
:1044D00070B5067D044676B983681D8842F22602CF
:1044E000954245D00FD842F2010295424FD042F298
:1044F00025039D4213D02A4BD3F84C3120461B692B
:10450000BDE87040184742F25E039D42F3D103219B
:10451000083022F056F8A06890F840102EE00321F1
:10452000083022F04EF8204618F092FCBFF35B8F63
:104530001C4B1A68BFF35B8F920707D50C263146D8
:1045400042F225001DF041FF002070BDBFF35B8FDC
:1045500053E8002F42F0010143E800100028F7D192
:10456000BFF35B8FD307E9D40F481AF099FDE6E754
:104570000321083022F025F8A0683146FFF770FECD
:104580000646204618F064FC31462846DAE7DA7819
:1045900002F07F02DA701A7922F001021A71AAE79A
:1045A00080000020781F0020EC0C002010B588B09F
:1045B0000C4C0D4900220023CDE9062300230A22DA
:1045C000CDE90323CDE9013300934FF48F62074B0C
:1045D00020461AF0D9FB0649204608B0BDE8104035
:1045E00022F04ABB18100020003D0020F9420000D4
:1045F0007192020030B4034608461A78012A13D09B
:10460000022A26D072B9154A02F1100452F8045B4E
:1046100041F8045BA242F9D15B8812780A704373B7
:104620001B0A837330BC70470C4A02F1100452F825
:10463000045B41F8045BA242F9D15B6812780A700E
:10464000C3F3072243731B0CC3731B0A82730374E7
:10465000E8E730BC112219461DF082BECB92020061
:10466000F0B50578012D8BB004460E4617460CD0E8
:10467000022D0DD0002D44D14388254A39463046BD
:104680000BB0BDE8F0401BF0AEBD4368214AF5E732
:104690002A46411C06A81DF063FEE11C042208A85E
:1046A0001DF05EFE2A46E11D0DF11A001DF058FEB8
:1046B0002A4604F1090107A81DF052FE2A4604F11A
:1046C0000B010DF11E001DF04BFE04F10D01042243
:1046D00009A81DF045FEBDF818300493089B03930C
:1046E000BDF81A300293BDF81C300193BDF81E309E
:1046F0000093094A099B394630461BF074FD0BB004
:10470000F0BD002130460BB0BDE8F0401DF033BED7
:10471000DBA20200C28D0200AE92020038B505464F
:10472000054821F028FE044620B10021083021F080
:1047300047FE2575204638BD6C0E00200B460B4900
:104740000246D1F8300110B520B9BDE81040012073
:10475000FFF7E4BF21F08DFE012300210375818165
:104760000446083021F02CFE204610BD80000020B9
:1047700070B504460F2C0D461046194605D80D2C71
:1047800012D9BDE87040FFF7D9BF132C0CD10B48EC
:1047900021F0F1FD044628B10021083021F010FE7F
:1047A00001232375204670BD02460B460DB1044817
:1047B000EEE7BDE870400120FFF7B0BFBC0E00205F
:1047C000CC0D002070B50B4D06460FCD8EB001AC60
:1047D0000FC40FCD0FC40FCD0FC40C2E2B68236058
:1047E0009BBF0EAB03EB8606034856F8340C0EB0A5
:1047F00070BD00BFCC7C0200D29302000549064A7E
:1048000083680648521AD2089201197842F00202CF
:104810001CF02EB90C7A0200FC7A0200DA93020036
:1048200038B583681A7872B9B3F80140204602F0AF
:10483000D9FD054640B9084B1A8822B96FEA0450E1
:104840006FEA1050188038BD012102F0D3FD2846D0
:10485000BDE838401EF067BA0C330020F8B5856813
:104860002E78EEB9B5F80170384602F0BBFD04466B
:1048700060B90C4B0C4A0D48D21AD2089201394645
:1048800042F00102BDE8F8401CF0F2B8EB78437248
:10489000314602F0AFFD2046BDE8F8401EF043BAB5
:1048A000F8BD00BF0C7A0200FC7A020002940200FC
:1048B00008B50121083021F08CFE064B064A01782C
:1048C0000648D21AD2089201BDE8084042F001021F
:1048D0001CF0CEB80C7A0200FC7A02002894020088
:1048E00010B50A4A0A4C81898068A41AFFF74EFC69
:1048F000FEF724F8E408A40144F00204014622462D
:104900000448BDE810401CF0B3B800BF0C7A0200A8
:10491000FC7A02004A94020013B50D4C01460522B0
:1049200094F8670002F060FF78B90A4B586B1A8F51
:10493000009093F83A30ADF8042094F867008DF8B1
:1049400006300422694602F04FFF02B010BD00BFDE
:1049500080000020CC7C020073B502EBC303054647
:1049600008461178A9421AD008329A42F9D18689AC
:10497000164B174C80683146E41AFFF707FCFDF729
:10498000DDFFE408A40144F002040346ADF8004052
:104990001048324629461CF098F802B070BD818953
:1049A00053788B420DD9094A094B0B489B1ADB08F7
:1049B0009B0143F001032A4602B0BDE870401CF0A1
:1049C0006BB8536802B0BDE8704018470C7A02001B
:1049D000FC7A0200909402006E94020010B501214E
:1049E0000446083021F0F5FD2146034A0078BDE871
:1049F00010400823FFF7B0BF788002002DE9FF4187
:104A000007469079DFF824810E46144618F062F9C3
:104A1000804516D0464B474DA0790097ED1AED081A
:104A2000019018F057F9AD0145F00205CDE90208F3
:104A30002B464148042269461CF063F804B0BDE8E7
:104A4000F081204618F04EF93C4D4FF00C0808FB61
:104A500000504388BB4214D0354B364E2046F61AE0
:104A600018F040F9F60808FB0055B60146F00206BA
:104A70006A8833483346394604B0BDE8F0411CF03B
:104A80000BB8304FD7F8300120B118F0E1F900230E
:104A9000C7F83031204618F025F90C2707FB0050E5
:104AA0004368E3B1DEB9204618F01CF907FB00505B
:104AB00001224068D0E90031007A01F01F07BA40B6
:104AC000490928B3BFF35B8F03EB810353E8001F51
:104AD000114343E800100028F8D1BFF35B8F204654
:104AE00018F000F90C2707FB00508368002BA5D0B5
:104AF000204618F0F7F878432E54204618F0F2F8C4
:104B000007FB0055A86804B0BDE8F0411AF0C8BA28
:104B1000D24303EB8103BFF35B8F53E8001F1140C7
:104B200043E800100028D8D0F7E700BF440E00206B
:104B30000C7A0200FC7A0200B29402007C1F002072
:104B4000E79402008000002038B5042104460830B4
:104B500021F03FFD4578017840882246FFF74EFF5F
:104B600025B10348BDE838401AF09ABA38BD00BFF5
:104B70009801002038B503210446083021F029FDB2
:104B8000A36805781978B0F801002246FFF736FFD0
:104B900025B10348BDE838401AF082BA38BD00BFDD
:104BA000980100202DE9F84F514D524BDFF8489104
:104BB000DFF848A1ED1AED08D9F80C3050486FF332
:104BC0005233C9F80C3002F0CFFB471C4A484FF073
:104BD000FF324FF0FF3339461BF0DEF960B149492F
:104BE000494840F6891352461BF0F0FA404080F3E2
:104BF00011884FF0030002DF444EDFF8FC8006F519
:104C00008C7B17B91AF0A8FED6E7D8F80C10C1F3C0
:104C10004531012959D9042963D198F80C30002B6A
:104C200057D13B480022002321F0AAFB044660B97B
:104C3000384935484FF4126352461BF0C7FA4040DA
:104C400080F311884FF0030002DF4FF0FF334FF085
:104C5000FF3258461AF04AFAD6F8303163B1A9014A
:104C60002D4841F001011BF0F6FED6F8300118F096
:104C7000EFF80023C6F83031204621F0FAFBC6F8E1
:104C800030012046FFF724FC0146F0B1AA01234879
:104C900042F001021BF0ECFE21481AF001FA204616
:104CA00018F020F81F4B0C2202FB00301F21408817
:104CB0002246FFF7A3FED6F8300118F0C9F800230A
:104CC0002046C6F8303118F0C3F808F11408013F47
:104CD00097E7012BF9D1D8F81000383802F0B0FE70
:104CE000F3E7AA01104842F002021BF0C1FEECE714
:104CF000FC7A02000C7A0200380300201A950200A8
:104D00004C0300204E9502005795020080000020C1
:104D1000B4010020DF920200749502008F9502001A
:104D2000980100207C1F0020B19502002DE9F84F6A
:104D3000394D3A4BD0F80880DFF8E4A0ED1A002690
:104D4000ED08B14698F800309E4201DBBDE8F88FCF
:104D500008EB8603B3F801B0B3F80370584602F0CD
:104D600041FB0446D8B100F1280B002F33D04FF09F
:104D70002003EFF3118283F31288BFF36F8FE3698F
:104D8000B3B1013BE36182F31188BFF36F8F20461B
:104D900002F0C8F9013F1AF083F9BFB2E5E7AA01B2
:104DA000204842F0010259461BF062FE0136C9E775
:104DB00063692BB1A169186860618B4208BFA0616B
:104DC00082F31188BFF36F8F4BB9A90141F0010144
:104DD00050461BF040FE20461DF0A5FFE6E74FF0D1
:104DE0002002EFF3118182F31288BFF36F8FDA682C
:104DF000E261626AC3F80C90C3F800904AB9C4E952
:104E0000083381F31188BFF36F8F58461AF0B4FA54
:104E1000BDE713606362F4E7FC7A02000C7A0200DB
:104E2000EE950200D295020073B58568B5F8016071
:104E3000304602F0D7FA044668B9294B294A2A4875
:104E4000D21AD208920142F00102314602B0BDE806
:104E500070401BF00DBE2B78CBB92A79EB7843EA72
:104E60000223A0F89E30AA796B7943EA0223A0F8C6
:104E7000A430EB792A7A43EA0223A0F8A63002F0A4
:104E8000CFFB204602B0BDE870401DF04CBF1A2B8E
:104E9000F7D1C378012BF4D1BFF35B8F031D53E827
:104EA000002F42F4806143E80015002DF7D1BFF3D5
:104EB0005B8F5305E5D4B4F8A030ADF80030B4F8FA
:104EC000A230ADF80230B4F8A830ADF8043069462D
:104ED000B4F8AA30ADF8063002F0A8FFD1E700BF61
:104EE0000C7A0200FC7A02000596020010B5C1E9B6
:104EF00000239DF808300B720C4617F0F3FE034BAD
:104F00000C2202FB00335C6010BD00BF7C1F002040
:104F10002DE9F0474FF0FF324FF0FF3306461748B8
:104F2000174D0F4621F027FA044600F1080A002128
:104F30004FF00008504621F043FA84F814802046D0
:104F400017F0D0FE4FF00C0909FB005046802046B8
:104F500017F0C8FE09FB0050C0F80880204617F083
:104F6000C1FE09FB00550321C5F80480504621F01D
:104F7000B8FA877006802046BDE8F087440E00200E
:104F80007C1F002038B505460C4619B9FFF7C0FF55
:104F90000446F0B140F635439D4214D12046FFF758
:104FA00097FA054668B10C4B0C4AD21AD208920106
:104FB000014642F001020A481BF05AFD204617F054
:104FC00047FF284638BD0748214621F045FA00250D
:104FD000F7E76FF06805F4E70C7A0200FC7A02004C
:104FE0008F950200B401002070B506460D4642F2CE
:104FF00021000321FFF78CFF044658B90C490D4BE3
:105000000D48C91AC9088901BDE8704041F0010185
:105010001BF021BD0321083021F063FA8570068062
:10502000214642F22100BDE87040FFF7ABBF00BF50
:10503000FC7A02000C7A020029960200F7B5836818
:10504000D9789A781F8842EA0122ADF80020597970
:105050001A7942EA0122ADF802209A79D97942EA16
:105060000122ADF804201A7A5B7ABCB242EA03232B
:105070002046ADF8063002F0B5F9064680B9204B5F
:10508000204A2148D21AD2089201214642F0010258
:105090001BF0EEFC02212046FFF7A6FF03B0F0BD97
:1050A000694602F009FB38B91E212046FFF79CFF34
:1050B00030461DF038FEF1E70E2142F22000FFF7E6
:1050C00027FF05460028F3D00E21083021F009FA09
:1050D0000E22044600211DF04EF9BDF80030638019
:1050E000BDF80230A380BDF80430E380BDF806307F
:1050F00027802381294642F22000FFF743FFD7E7AC
:105100000C7A0200FC7A02000596020038B5837A18
:10511000072B044621D1BFF35B8F4368BFF35B8F3E
:105120009A041AD4C37823B10C4B93F8D0301B07E0
:1051300013D5022142F21600FFF7EAFE054660B1E0
:105140000221083021F0CDF923880380294642F25C
:105150001600BDE83840FFF715BF38BD80000020BD
:1051600070B58568B5F80160304602F03BF9044639
:1051700060B9144A144B1548D21AD208920131462C
:1051800042F00102BDE870401BF072BC2B7823B9DD
:105190000822E91CAC301DF0E3F8BFF35B8F231D40
:1051A00053E8002F42F4005243E800210029F7D1D0
:1051B000BFF35B8F2046FFF7A9FF2046BDE8704094
:1051C0001DF0B1BDFC7A02000C7A020005960200C7
:1051D0002DE9F041074686B015460C4621B9FFF788
:1051E00097FE0446002857D001220021684621F08E
:1051F00046FE204617F076FDDFF8A4800C2303FB63
:105200000080C0F808D0204621F033F90146254837
:1052100021F022F94FF4A0220023684619F066FF1E
:10522000064680B1204A214921484FF499731AF06B
:10523000CDFF204831461AF0C9FF404080F3118865
:105240004FF0030002DF204617F04CFD0C235843BB
:1052500018F80060BEB1184A184B19489B1ADB08B1
:105260009B0143F00203324639461BF015FC2046F1
:1052700017F0EEFD092E0CBF6FF06E006FF004000A
:1052800006B0BDE8F08115B12C603046F8E7204645
:1052900017F0DEFD2846F3E76FF06800F0E700BF87
:1052A0007C1F0020B40100201A9502004E950200D8
:1052B00057950200439602000C7A0200FC7A020025
:1052C000639602002DE9F043B0F80190804A04781B
:1052D00011886FEA09536FEA13539BB299424FF05A
:1052E000000808BFA2F8008085B005461FFA89F7BC
:1052F00008BF4FF00108002C3AD03C2C2AD101F015
:10530000D7F8BFF35B8F103050E8003F23F0400325
:1053100040E80032002AF7D1BFF35B8F0020FFF78F
:10532000FBFA054660B96B4B6B496C48C91AC90852
:10533000890141F0010105B0BDE8F0431BF08BBBD2
:105340004472002102F056F8284605B0BDE8F0434B
:105350001DF0E9BC5F4B604A6148D21AD208920145
:1053600042F00202214605B0BDE8F0431BF080BBCD
:105370000379023B012B00F1040648D8072231468D
:1053800002A81CF0EDFF9DF808300622023B05F153
:1053900011010DF101008DF808301CF0E1FF01232F
:1053A0008DF80030EB78012B19D102A8FFF7B4FA81
:1053B000EB78012B044611D101F07AF8BFF35B8F33
:1053C00000F1100353E8002F22F0400243E80021CF
:1053D0000029F7D1BFF35B8F1DF029FC64BB3D4A68
:1053E0003D4C3046A41AFEF7F3FEFDF7A7FAE40899
:1053F000A40144F00104014622463A481BF038FB60
:105400001F2138461DF03AFA05B0BDE8F083C37895
:10541000012B04BF344B93F86740314620461DF002
:10542000F0FA0722014602A81CF09AFF0722314633
:1054300068461CF095FFB5E72046072220F8889BB8
:1054400002A91CF08DFF2A7EEB7D43EA0223A4F81B
:105450009E30AA7E6B7E43EA0223A4F8A4302A7F02
:10546000EB7E43EA0223A4F8A630EB78E370002237
:10547000012B627217D10722694604F18F001CF0DC
:105480006FFF01F015F8217A174DC1EBC10107221A
:10549000294404F196001CF063FFD5F8DC305B066C
:1054A00001D501F0E9F90721204601F0A3FFB8F189
:1054B000000F03D00121204601F09CFF20461DF083
:1054C0006EFC2046FFF722FE20461DF02CFC9BE7D9
:1054D0000C3300200C7A0200FC7A02007F96020056
:1054E000A0960200B9960200800000202DE9F0414C
:1054F000044600F10806304621F096F8B4F80C8016
:10550000B8F1010F05460CD81C4A1D491D4840F64C
:1055100015531AF05BFE404080F311884FF00300F2
:1055200002DF3046022121F054F8074600781DF0D2
:1055300093F9C20706460CD4104A1349114840F6A5
:1055400019531AF043FE404080F311884FF00300D6
:1055500002DF05230D4A38782146FFF7FDF9B3072E
:1055600007D52069A4F80C8010FA85F5A560BDE880
:10557000F0812046BDE8F04117F06ABC1A950200A0
:10558000D596020057950200EE96020008810200AF
:1055900070B5017D012904464BD0032978D1838958
:1055A000032B0CD8424A434943484FF4DB731AF0AB
:1055B0000DFE404080F311884FF0030002DF04210C
:1055C00004F1080021F005F8A18942880688FF232C
:1055D000C6F30B008A42E08263750DD03748384B22
:1055E0001B1ADB089B01374843F001031BF054FAF8
:1055F000204617F02DFC1AE001F0F4FE054658B9DC
:105600002E4B2F4AE18A3048D21AD208920142F03A
:1056100001021BF02DFAEBE701F0D2FF320B6075AF
:105620002146284601F0B6FD28461DF07CFB0020EF
:1056300070BD8389012B0CD81D4A1E491E4840F6B7
:105640000D131AF0C3FD404080F311884FF00300A2
:1056500002DF022104F1080020F0BBFF05460078BC
:105660001DF0FAF883070CD4114A1849124840F685
:1056700011131AF0ABFD404080F311884FF0030086
:1056800002DF134A287804232146FFF765F9AFE7C4
:105690000A4B0B4A0F48D21AD208920142F001027B
:1056A0001BF0E6F9204617F0D3FB6FF01500BFE7BB
:1056B0001A950200D5960200579502000C7A020056
:1056C000FC7A0200079702002B9702004D97020018
:1056D000D88002007B97020010B5037D012B0446A1
:1056E0000CD0094A09490A4840F65C531AF06EFD8D
:1056F000404080F311884FF0030002DF2046FFF79F
:10570000F5FE002010BD00BF1A9502008F97020021
:1057100057950200084A0346D2F84C0130B9D968BF
:1057200039B1196929B1C2F84C3170476FF077006F
:1057300070476FF015007047800000202DE9F0439E
:10574000334DBFF35B8F87B005F1CC0353E8002FD7
:1057500042F0020243E800210029F7D1BFF35B8F3A
:10576000002001F003F92B4C2B4B2C492C4EDFF879
:10577000B490E41AEB792846012B88BF0E46FEF759
:1057800027FDFDF7DBF8E408A40144F00308024616
:105790003146254843461BF07FF92F460126EB7919
:1057A0009E4207F1070725DB95F868603046FFF752
:1057B00009F8B5F86A30049344F00304B5F86E3084
:1057C0000593CDE90206234602A9042217481BF0DF
:1057D00098F995F869603046FEF7F4FFB5F86C303B
:1057E000ADF800400146324611481BF06EF907B093
:1057F000BDE8F0833846FEF7EBFCFDF79FF8314635
:105800000246434648461BF047F90136C7E700BF4A
:1058100080000020FC7A02000C7A0200B29702009D
:105820007BAE0200C5970200B6970200D697020031
:105830001498020070B5B94DD5F84C31996811F043
:10584000010186B023D101AA40F60340FFF7C0FC56
:105850000446002878D1019B9B681B78A3B901F00E
:105860007FF8BFF35B8F2B4653F8CC2FBFF35B8FD2
:1058700002F00502BFF35B8F53E8001F43E80020EE
:105880000028F9D1BFF35B8F019817F0E1FA01AA64
:10589000002141F20300FFF79BFC0446002853D18E
:1058A000019B9F489968082201311CF059FD01981D
:1058B00017F0CEFA214601AA41F20100FFF788FC59
:1058C0000446002840D1019883685A7885F86820FA
:1058D000D9789A7842EA0122A5F86A201A7985F8DF
:1058E0006920197ADA7942EA0122A5F86C205A79FE
:1058F0009B7942EA0323A5F86E3017F0A9FA2146F6
:1059000001AA41F20200FFF763FC0446E0B9019BE3
:1059100084489968402201311CF022FD81481CF026
:1059200082FD019817F094FA95F8743058060ED459
:105930007D4B7E497E48C91AC908890141F00101A1
:105940001BF089F86FF01204204606B070BD2146A6
:1059500001AA42F20300FFF73BFC04460028F3D102
:10596000019B74489968082201311CF0F9FC0198E8
:1059700017F06EFA214601AA42F20200FFF728FC56
:1059800004460028E0D1019B9B68B3F80120A5F8EC
:10599000FC2091B221B1DA786748114621F06FFA04
:1059A000019817F055FA95F8746016F0200600F08B
:1059B000988095F89430190700F1C280082142F2CE
:1059C0000100FFF7A5FA0446002800F091800821A5
:1059D000084420F086FD95F8D03095F89A2013F011
:1059E000020F02F006020CBF0F232F23062A08BF66
:1059F00043F4C073002203701B0A43708270C270AC
:105A0000027142718271C271214642F20100FFF7B8
:105A1000DFFB0446002897D195F874309A061DD410
:105A2000B5F8FC10D1B901AA41F20500FFF7D0FB8F
:105A30000446002888D1B5F8FC3063B9019B9B6807
:105A40005A78997842EA0122A5F8FC209A883A48C7
:105A5000114621F014FA019817F0FAF9082140F6DE
:105A60000140FFF755FA0446002841D008210844B8
:105A700020F037FD10230370882343700223002297
:105A8000C37020238270027142718271C3712146FA
:105A900040F60140FFF79CFB044600287FF454AF1A
:105AA00001466A464FF60140FFF792FB1F4C1E4B22
:105AB000E41AE408A401002857D0204844F0020169
:105AC0001AF0C9FF00F0C2FB044600287FF43CAF87
:105AD00002F01CF8044600287FF436AFFFF72EFED4
